{
  "_format": "hh-sol-artifact-1",
  "contractName": "CarVerificationOracle",
  "sourceName": "contracts/CarVerificationOracle.sol",
  "abi": [
    {
      "inputs": [
        {
          "internalType": "address",
          "name": "router",
          "type": "address"
        }
      ],
      "stateMutability": "nonpayable",
      "type": "constructor"
    },
    {
      "inputs": [],
      "name": "AccessControlBadConfirmation",
      "type": "error"
    },
    {
      "inputs": [
        {
          "internalType": "address",
          "name": "account",
          "type": "address"
        },
        {
          "internalType": "bytes32",
          "name": "neededRole",
          "type": "bytes32"
        }
      ],
      "name": "AccessControlUnauthorizedAccount",
      "type": "error"
    },
    {
      "inputs": [
        {
          "internalType": "string",
          "name": "vin",
          "type": "string"
        },
        {
          "internalType": "address",
          "name": "user",
          "type": "address"
        }
      ],
      "name": "CarNotOwnedByUser",
      "type": "error"
    },
    {
      "inputs": [],
      "name": "EmptyArgs",
      "type": "error"
    },
    {
      "inputs": [],
      "name": "EmptySource",
      "type": "error"
    },
    {
      "inputs": [],
      "name": "EnforcedPause",
      "type": "error"
    },
    {
      "inputs": [],
      "name": "ExpectedPause",
      "type": "error"
    },
    {
      "inputs": [
        {
          "internalType": "string",
          "name": "vin",
          "type": "string"
        }
      ],
      "name": "InvalidVIN",
      "type": "error"
    },
    {
      "inputs": [],
      "name": "NoInlineSecrets",
      "type": "error"
    },
    {
      "inputs": [],
      "name": "OnlyRouterCanFulfill",
      "type": "error"
    },
    {
      "inputs": [],
      "name": "UnauthorizedAccess",
      "type": "error"
    },
    {
      "inputs": [
        {
          "internalType": "bytes32",
          "name": "requestId",
          "type": "bytes32"
        }
      ],
      "name": "VerificationNotFound",
      "type": "error"
    },
    {
      "anonymous": false,
      "inputs": [
        {
          "indexed": true,
          "internalType": "address",
          "name": "from",
          "type": "address"
        },
        {
          "indexed": true,
          "internalType": "address",
          "name": "to",
          "type": "address"
        }
      ],
      "name": "OwnershipTransferRequested",
      "type": "event"
    },
    {
      "anonymous": false,
      "inputs": [
        {
          "indexed": true,
          "internalType": "address",
          "name": "from",
          "type": "address"
        },
        {
          "indexed": true,
          "internalType": "address",
          "name": "to",
          "type": "address"
        }
      ],
      "name": "OwnershipTransferred",
      "type": "event"
    },
    {
      "anonymous": false,
      "inputs": [
        {
          "indexed": true,
          "internalType": "string",
          "name": "vin",
          "type": "string"
        },
        {
          "indexed": true,
          "internalType": "address",
          "name": "previousOwner",
          "type": "address"
        },
        {
          "indexed": true,
          "internalType": "address",
          "name": "newOwner",
          "type": "address"
        }
      ],
      "name": "OwnershipTransferred",
      "type": "event"
    },
    {
      "anonymous": false,
      "inputs": [
        {
          "indexed": false,
          "internalType": "address",
          "name": "account",
          "type": "address"
        }
      ],
      "name": "Paused",
      "type": "event"
    },
    {
      "anonymous": false,
      "inputs": [
        {
          "indexed": true,
          "internalType": "bytes32",
          "name": "id",
          "type": "bytes32"
        }
      ],
      "name": "RequestFulfilled",
      "type": "event"
    },
    {
      "anonymous": false,
      "inputs": [
        {
          "indexed": true,
          "internalType": "bytes32",
          "name": "id",
          "type": "bytes32"
        }
      ],
      "name": "RequestSent",
      "type": "event"
    },
    {
      "anonymous": false,
      "inputs": [
        {
          "indexed": true,
          "internalType": "bytes32",
          "name": "role",
          "type": "bytes32"
        },
        {
          "indexed": true,
          "internalType": "bytes32",
          "name": "previousAdminRole",
          "type": "bytes32"
        },
        {
          "indexed": true,
          "internalType": "bytes32",
          "name": "newAdminRole",
          "type": "bytes32"
        }
      ],
      "name": "RoleAdminChanged",
      "type": "event"
    },
    {
      "anonymous": false,
      "inputs": [
        {
          "indexed": true,
          "internalType": "bytes32",
          "name": "role",
          "type": "bytes32"
        },
        {
          "indexed": true,
          "internalType": "address",
          "name": "account",
          "type": "address"
        },
        {
          "indexed": true,
          "internalType": "address",
          "name": "sender",
          "type": "address"
        }
      ],
      "name": "RoleGranted",
      "type": "event"
    },
    {
      "anonymous": false,
      "inputs": [
        {
          "indexed": true,
          "internalType": "bytes32",
          "name": "role",
          "type": "bytes32"
        },
        {
          "indexed": true,
          "internalType": "address",
          "name": "account",
          "type": "address"
        },
        {
          "indexed": true,
          "internalType": "address",
          "name": "sender",
          "type": "address"
        }
      ],
      "name": "RoleRevoked",
      "type": "event"
    },
    {
      "anonymous": false,
      "inputs": [
        {
          "indexed": false,
          "internalType": "address",
          "name": "account",
          "type": "address"
        }
      ],
      "name": "Unpaused",
      "type": "event"
    },
    {
      "anonymous": false,
      "inputs": [
        {
          "indexed": true,
          "internalType": "bytes32",
          "name": "requestId",
          "type": "bytes32"
        },
        {
          "indexed": true,
          "internalType": "string",
          "name": "vin",
          "type": "string"
        },
        {
          "indexed": false,
          "internalType": "bool",
          "name": "isVerified",
          "type": "bool"
        }
      ],
      "name": "VerificationFulfilled",
      "type": "event"
    },
    {
      "anonymous": false,
      "inputs": [
        {
          "indexed": true,
          "internalType": "bytes32",
          "name": "requestId",
          "type": "bytes32"
        },
        {
          "indexed": true,
          "internalType": "string",
          "name": "vin",
          "type": "string"
        },
        {
          "indexed": true,
          "internalType": "address",
          "name": "owner",
          "type": "address"
        }
      ],
      "name": "VerificationRequested",
      "type": "event"
    },
    {
      "inputs": [],
      "name": "DEFAULT_ADMIN_ROLE",
      "outputs": [
        {
          "internalType": "bytes32",
          "name": "",
          "type": "bytes32"
        }
      ],
      "stateMutability": "view",
      "type": "function"
    },
    {
      "inputs": [],
      "name": "VERIFIER_ROLE",
      "outputs": [
        {
          "internalType": "bytes32",
          "name": "",
          "type": "bytes32"
        }
      ],
      "stateMutability": "view",
      "type": "function"
    },
    {
      "inputs": [],
      "name": "acceptOwnership",
      "outputs": [],
      "stateMutability": "nonpayable",
      "type": "function"
    },
    {
      "inputs": [
        {
          "internalType": "bytes32",
          "name": "requestId",
          "type": "bytes32"
        }
      ],
      "name": "doesRequestExist",
      "outputs": [
        {
          "internalType": "bool",
          "name": "",
          "type": "bool"
        }
      ],
      "stateMutability": "view",
      "type": "function"
    },
    {
      "inputs": [],
      "name": "donId",
      "outputs": [
        {
          "internalType": "bytes32",
          "name": "",
          "type": "bytes32"
        }
      ],
      "stateMutability": "view",
      "type": "function"
    },
    {
      "inputs": [
        {
          "internalType": "bytes32",
          "name": "requestId",
          "type": "bytes32"
        }
      ],
      "name": "getCarDetailsByRequestId",
      "outputs": [
        {
          "components": [
            {
              "internalType": "string",
              "name": "vin",
              "type": "string"
            },
            {
              "internalType": "string",
              "name": "make",
              "type": "string"
            },
            {
              "internalType": "string",
              "name": "model",
              "type": "string"
            },
            {
              "internalType": "uint256",
              "name": "year",
              "type": "uint256"
            },
            {
              "internalType": "bool",
              "name": "isVerified",
              "type": "bool"
            },
            {
              "internalType": "uint256",
              "name": "verificationTimestamp",
              "type": "uint256"
            },
            {
              "internalType": "address",
              "name": "currentOwner",
              "type": "address"
            }
          ],
          "internalType": "struct CarVerificationOracle.CarDetails",
          "name": "",
          "type": "tuple"
        }
      ],
      "stateMutability": "view",
      "type": "function"
    },
    {
      "inputs": [
        {
          "internalType": "string",
          "name": "vin",
          "type": "string"
        }
      ],
      "name": "getCarDetailsByVIN",
      "outputs": [
        {
          "components": [
            {
              "internalType": "string",
              "name": "vin",
              "type": "string"
            },
            {
              "internalType": "string",
              "name": "make",
              "type": "string"
            },
            {
              "internalType": "string",
              "name": "model",
              "type": "string"
            },
            {
              "internalType": "uint256",
              "name": "year",
              "type": "uint256"
            },
            {
              "internalType": "bool",
              "name": "isVerified",
              "type": "bool"
            },
            {
              "internalType": "uint256",
              "name": "verificationTimestamp",
              "type": "uint256"
            },
            {
              "internalType": "address",
              "name": "currentOwner",
              "type": "address"
            }
          ],
          "internalType": "struct CarVerificationOracle.CarDetails",
          "name": "",
          "type": "tuple"
        }
      ],
      "stateMutability": "view",
      "type": "function"
    },
    {
      "inputs": [
        {
          "internalType": "address",
          "name": "owner",
          "type": "address"
        }
      ],
      "name": "getOwnerCars",
      "outputs": [
        {
          "internalType": "string[]",
          "name": "",
          "type": "string[]"
        }
      ],
      "stateMutability": "view",
      "type": "function"
    },
    {
      "inputs": [
        {
          "internalType": "bytes32",
          "name": "requestId",
          "type": "bytes32"
        }
      ],
      "name": "getRawResponseBytes",
      "outputs": [
        {
          "internalType": "bytes",
          "name": "",
          "type": "bytes"
        }
      ],
      "stateMutability": "view",
      "type": "function"
    },
    {
      "inputs": [
        {
          "internalType": "bytes32",
          "name": "role",
          "type": "bytes32"
        }
      ],
      "name": "getRoleAdmin",
      "outputs": [
        {
          "internalType": "bytes32",
          "name": "",
          "type": "bytes32"
        }
      ],
      "stateMutability": "view",
      "type": "function"
    },
    {
      "inputs": [
        {
          "internalType": "bytes32",
          "name": "role",
          "type": "bytes32"
        },
        {
          "internalType": "address",
          "name": "account",
          "type": "address"
        }
      ],
      "name": "grantRole",
      "outputs": [],
      "stateMutability": "nonpayable",
      "type": "function"
    },
    {
      "inputs": [
        {
          "internalType": "bytes32",
          "name": "requestId",
          "type": "bytes32"
        },
        {
          "internalType": "bytes",
          "name": "response",
          "type": "bytes"
        },
        {
          "internalType": "bytes",
          "name": "err",
          "type": "bytes"
        }
      ],
      "name": "handleOracleFulfillment",
      "outputs": [],
      "stateMutability": "nonpayable",
      "type": "function"
    },
    {
      "inputs": [
        {
          "internalType": "bytes32",
          "name": "role",
          "type": "bytes32"
        },
        {
          "internalType": "address",
          "name": "account",
          "type": "address"
        }
      ],
      "name": "hasRole",
      "outputs": [
        {
          "internalType": "bool",
          "name": "",
          "type": "bool"
        }
      ],
      "stateMutability": "view",
      "type": "function"
    },
    {
      "inputs": [
        {
          "internalType": "string",
          "name": "vin",
          "type": "string"
        }
      ],
      "name": "isCarVerified",
      "outputs": [
        {
          "internalType": "bool",
          "name": "",
          "type": "bool"
        }
      ],
      "stateMutability": "view",
      "type": "function"
    },
    {
      "inputs": [
        {
          "internalType": "bytes32",
          "name": "requestId",
          "type": "bytes32"
        }
      ],
      "name": "isResponseReceived",
      "outputs": [
        {
          "internalType": "bool",
          "name": "",
          "type": "bool"
        }
      ],
      "stateMutability": "view",
      "type": "function"
    },
    {
      "inputs": [],
      "name": "latestRequestId",
      "outputs": [
        {
          "internalType": "bytes32",
          "name": "",
          "type": "bytes32"
        }
      ],
      "stateMutability": "view",
      "type": "function"
    },
    {
      "inputs": [],
      "name": "owner",
      "outputs": [
        {
          "internalType": "address",
          "name": "",
          "type": "address"
        }
      ],
      "stateMutability": "view",
      "type": "function"
    },
    {
      "inputs": [
        {
          "internalType": "address",
          "name": "",
          "type": "address"
        },
        {
          "internalType": "uint256",
          "name": "",
          "type": "uint256"
        }
      ],
      "name": "ownerToCars",
      "outputs": [
        {
          "internalType": "string",
          "name": "",
          "type": "string"
        }
      ],
      "stateMutability": "view",
      "type": "function"
    },
    {
      "inputs": [],
      "name": "pause",
      "outputs": [],
      "stateMutability": "nonpayable",
      "type": "function"
    },
    {
      "inputs": [],
      "name": "paused",
      "outputs": [
        {
          "internalType": "bool",
          "name": "",
          "type": "bool"
        }
      ],
      "stateMutability": "view",
      "type": "function"
    },
    {
      "inputs": [
        {
          "internalType": "bytes32",
          "name": "role",
          "type": "bytes32"
        },
        {
          "internalType": "address",
          "name": "callerConfirmation",
          "type": "address"
        }
      ],
      "name": "renounceRole",
      "outputs": [],
      "stateMutability": "nonpayable",
      "type": "function"
    },
    {
      "inputs": [
        {
          "internalType": "string",
          "name": "vin",
          "type": "string"
        },
        {
          "internalType": "string",
          "name": "make",
          "type": "string"
        },
        {
          "internalType": "string",
          "name": "model",
          "type": "string"
        },
        {
          "internalType": "uint256",
          "name": "year",
          "type": "uint256"
        },
        {
          "internalType": "string",
          "name": "source",
          "type": "string"
        },
        {
          "internalType": "address",
          "name": "carOwner",
          "type": "address"
        }
      ],
      "name": "requestCarValidation",
      "outputs": [
        {
          "internalType": "bytes32",
          "name": "",
          "type": "bytes32"
        }
      ],
      "stateMutability": "nonpayable",
      "type": "function"
    },
    {
      "inputs": [
        {
          "internalType": "bytes32",
          "name": "role",
          "type": "bytes32"
        },
        {
          "internalType": "address",
          "name": "account",
          "type": "address"
        }
      ],
      "name": "revokeRole",
      "outputs": [],
      "stateMutability": "nonpayable",
      "type": "function"
    },
    {
      "inputs": [],
      "name": "subscriptionId",
      "outputs": [
        {
          "internalType": "uint64",
          "name": "",
          "type": "uint64"
        }
      ],
      "stateMutability": "view",
      "type": "function"
    },
    {
      "inputs": [
        {
          "internalType": "bytes4",
          "name": "interfaceId",
          "type": "bytes4"
        }
      ],
      "name": "supportsInterface",
      "outputs": [
        {
          "internalType": "bool",
          "name": "",
          "type": "bool"
        }
      ],
      "stateMutability": "view",
      "type": "function"
    },
    {
      "inputs": [
        {
          "internalType": "string",
          "name": "vin",
          "type": "string"
        },
        {
          "internalType": "address",
          "name": "newOwner",
          "type": "address"
        }
      ],
      "name": "transferOwnership",
      "outputs": [],
      "stateMutability": "nonpayable",
      "type": "function"
    },
    {
      "inputs": [
        {
          "internalType": "address",
          "name": "to",
          "type": "address"
        }
      ],
      "name": "transferOwnership",
      "outputs": [],
      "stateMutability": "nonpayable",
      "type": "function"
    },
    {
      "inputs": [],
      "name": "unpause",
      "outputs": [],
      "stateMutability": "nonpayable",
      "type": "function"
    },
    {
      "inputs": [
        {
          "internalType": "bytes32",
          "name": "newDonId",
          "type": "bytes32"
        }
      ],
      "name": "updateDonId",
      "outputs": [],
      "stateMutability": "nonpayable",
      "type": "function"
    },
    {
      "inputs": [
        {
          "internalType": "uint64",
          "name": "newSubscriptionId",
          "type": "uint64"
        }
      ],
      "name": "updateSubscriptionId",
      "outputs": [],
      "stateMutability": "nonpayable",
      "type": "function"
    },
    {
      "inputs": [
        {
          "internalType": "bytes32",
          "name": "",
          "type": "bytes32"
        }
      ],
      "name": "verifications",
      "outputs": [
        {
          "internalType": "string",
          "name": "vin",
          "type": "string"
        },
        {
          "internalType": "string",
          "name": "make",
          "type": "string"
        },
        {
          "internalType": "string",
          "name": "model",
          "type": "string"
        },
        {
          "internalType": "uint256",
          "name": "year",
          "type": "uint256"
        },
        {
          "internalType": "bool",
          "name": "isVerified",
          "type": "bool"
        },
        {
          "internalType": "uint256",
          "name": "verificationTimestamp",
          "type": "uint256"
        },
        {
          "internalType": "address",
          "name": "currentOwner",
          "type": "address"
        }
      ],
      "stateMutability": "view",
      "type": "function"
    },
    {
      "inputs": [
        {
          "internalType": "string",
          "name": "",
          "type": "string"
        }
      ],
      "name": "vinToRequestId",
      "outputs": [
        {
          "internalType": "bytes32",
          "name": "",
          "type": "bytes32"
        }
      ],
      "stateMutability": "view",
      "type": "function"
    },
    {
      "stateMutability": "payable",
      "type": "receive"
    }
  ],
  "bytecode": "0x60a06040523480156200001157600080fd5b506040516200546d3803806200546d8339818101604052810190620000379190620005f5565b33806000838073ffffffffffffffffffffffffffffffffffffffff1660808173ffffffffffffffffffffffffffffffffffffffff168152505050600073ffffffffffffffffffffffffffffffffffffffff168273ffffffffffffffffffffffffffffffffffffffff1603620000e3576040517f08c379a0000000000000000000000000000000000000000000000000000000008152600401620000da9062000688565b60405180910390fd5b816000806101000a81548173ffffffffffffffffffffffffffffffffffffffff021916908373ffffffffffffffffffffffffffffffffffffffff160217905550600073ffffffffffffffffffffffffffffffffffffffff168173ffffffffffffffffffffffffffffffffffffffff16146200016a5762000169816200026160201b60201c565b5b5050506000600160146101000a81548160ff02191690831515021790555060c9600860006101000a81548167ffffffffffffffff021916908367ffffffffffffffff1602179055507f66756e2d626173652d7365706f6c69612d31000000000000000000000000000060001b600981905550620001f16000801b336200039060201b60201c565b50620002247f0ce23c3e399818cfee81a7ab0880f714e53d7672b08df0fa62f2843416e1ea09336200039060201b60201c565b506200025a7f0ce23c3e399818cfee81a7ab0880f714e53d7672b08df0fa62f2843416e1ea096000801b6200049460201b60201c565b506200071c565b3373ffffffffffffffffffffffffffffffffffffffff168173ffffffffffffffffffffffffffffffffffffffff1603620002d2576040517f08c379a0000000000000000000000000000000000000000000000000000000008152600401620002c990620006fa565b60405180910390fd5b80600160006101000a81548173ffffffffffffffffffffffffffffffffffffffff021916908373ffffffffffffffffffffffffffffffffffffffff1602179055508073ffffffffffffffffffffffffffffffffffffffff1660008054906101000a900473ffffffffffffffffffffffffffffffffffffffff1673ffffffffffffffffffffffffffffffffffffffff167fed8889f560326eb138920d842192f0eb3dd22b4f139c87a2c57538e05bae127860405160405180910390a350565b6000620003a48383620004f860201b60201c565b620004895760016002600085815260200190815260200160002060000160008473ffffffffffffffffffffffffffffffffffffffff1673ffffffffffffffffffffffffffffffffffffffff16815260200190815260200160002060006101000a81548160ff021916908315150217905550620004256200056360201b60201c565b73ffffffffffffffffffffffffffffffffffffffff168273ffffffffffffffffffffffffffffffffffffffff16847f2f8788117e7eff1d82e926ec794901d17c78024a50270940304540a733656f0d60405160405180910390a4600190506200048e565b600090505b92915050565b6000620004a7836200056b60201b60201c565b90508160026000858152602001908152602001600020600101819055508181847fbd79b86ffe0ab8e8776151514217cd7cacd52c909f66475c3af44e129f0b00ff60405160405180910390a4505050565b60006002600084815260200190815260200160002060000160008373ffffffffffffffffffffffffffffffffffffffff1673ffffffffffffffffffffffffffffffffffffffff16815260200190815260200160002060009054906101000a900460ff16905092915050565b600033905090565b600060026000838152602001908152602001600020600101549050919050565b600080fd5b600073ffffffffffffffffffffffffffffffffffffffff82169050919050565b6000620005bd8262000590565b9050919050565b620005cf81620005b0565b8114620005db57600080fd5b50565b600081519050620005ef81620005c4565b92915050565b6000602082840312156200060e576200060d6200058b565b5b60006200061e84828501620005de565b91505092915050565b600082825260208201905092915050565b7f43616e6e6f7420736574206f776e657220746f207a65726f0000000000000000600082015250565b60006200067060188362000627565b91506200067d8262000638565b602082019050919050565b60006020820190508181036000830152620006a38162000661565b9050919050565b7f43616e6e6f74207472616e7366657220746f2073656c66000000000000000000600082015250565b6000620006e260178362000627565b9150620006ef82620006aa565b602082019050919050565b600060208201905081810360008301526200071581620006d3565b9050919050565b608051614d2e6200073f6000396000818161089f015261287b0152614d2e6000f3fe6080604052600436106101e75760003560e01c80638c61291e11610102578063b19b067111610095578063e3e8983311610064578063e3e898331461073b578063e74481c814610778578063e7705db6146107b5578063f2fde38b146107e0576101ee565b8063b19b06711461066f578063c0e793c2146106ac578063d547741f146106d5578063e27cb49a146106fe576101ee565b8063914fe309116100d1578063914fe3091461058d57806391d14854146105ca578063a16e93f714610607578063a217fddf14610644576101ee565b80638c61291e146104bd5780638d1547d5146104fa5780638da5cb5b146105375780638dbe7b9d14610562576101ee565b80632f2ff15d1161017a5780635c975abb116101495780635c975abb1461043b5780636df0c7471461046657806379ba50971461048f5780638456cb59146104a6576101ee565b80632f2ff15d1461039557806336568abe146103be5780633f4ba83a146103e757806350c34dc9146103fe576101ee565b806314b1dd1b116101b657806314b1dd1b146102c75780631aa46f59146102f05780631ff84a6a1461031b578063248a9ca314610358576101ee565b806301ffc9a7146101f357806309c1ba2e146102305780630ca761751461025b57806310c74e1614610284576101ee565b366101ee57005b600080fd5b3480156101ff57600080fd5b5061021a60048036038101906102159190613587565b610809565b60405161022791906135cf565b60405180910390f35b34801561023c57600080fd5b50610245610883565b604051610252919061360d565b60405180910390f35b34801561026757600080fd5b50610282600480360381019061027d91906137a4565b61089d565b005b34801561029057600080fd5b506102ab60048036038101906102a6919061382f565b61095f565b6040516102be9796959493929190613935565b60405180910390f35b3480156102d357600080fd5b506102ee60048036038101906102e991906139e5565b610b66565b005b3480156102fc57600080fd5b50610305610b9a565b6040516103129190613a21565b60405180910390f35b34801561032757600080fd5b50610342600480360381019061033d919061382f565b610ba0565b60405161034f91906135cf565b60405180910390f35b34801561036457600080fd5b5061037f600480360381019061037a919061382f565b610bcb565b60405161038c9190613a21565b60405180910390f35b3480156103a157600080fd5b506103bc60048036038101906103b79190613a68565b610beb565b005b3480156103ca57600080fd5b506103e560048036038101906103e09190613a68565b610c0d565b005b3480156103f357600080fd5b506103fc610c88565b005b34801561040a57600080fd5b5061042560048036038101906104209190613b49565b610c9a565b6040516104329190613cb3565b60405180910390f35b34801561044757600080fd5b50610450610f6d565b60405161045d91906135cf565b60405180910390f35b34801561047257600080fd5b5061048d6004803603810190610488919061382f565b610f84565b005b34801561049b57600080fd5b506104a4610f96565b005b3480156104b257600080fd5b506104bb61112b565b005b3480156104c957600080fd5b506104e460048036038101906104df9190613d01565b61113d565b6040516104f19190613d41565b60405180910390f35b34801561050657600080fd5b50610521600480360381019061051c9190613b49565b6111f6565b60405161052e9190613a21565b60405180910390f35b34801561054357600080fd5b5061054c611224565b6040516105599190613d63565b60405180910390f35b34801561056e57600080fd5b5061057761124d565b6040516105849190613a21565b60405180910390f35b34801561059957600080fd5b506105b460048036038101906105af9190613d7e565b611253565b6040516105c19190613e6d565b60405180910390f35b3480156105d657600080fd5b506105f160048036038101906105ec9190613a68565b61136b565b6040516105fe91906135cf565b60405180910390f35b34801561061357600080fd5b5061062e6004803603810190610629919061382f565b6113d6565b60405161063b9190613cb3565b60405180910390f35b34801561065057600080fd5b5061065961168e565b6040516106669190613a21565b60405180910390f35b34801561067b57600080fd5b5061069660048036038101906106919190613e8f565b611695565b6040516106a39190613a21565b60405180910390f35b3480156106b857600080fd5b506106d360048036038101906106ce9190613f8c565b611a71565b005b3480156106e157600080fd5b506106fc60048036038101906106f79190613a68565b611ca0565b005b34801561070a57600080fd5b506107256004803603810190610720919061382f565b611cc2565b604051610732919061403d565b60405180910390f35b34801561074757600080fd5b50610762600480360381019061075d9190613b49565b611d67565b60405161076f91906135cf565b60405180910390f35b34801561078457600080fd5b5061079f600480360381019061079a919061382f565b611dcc565b6040516107ac91906135cf565b60405180910390f35b3480156107c157600080fd5b506107ca611df7565b6040516107d79190613a21565b60405180910390f35b3480156107ec57600080fd5b5061080760048036038101906108029190613d7e565b611e1b565b005b60007f7965db0b000000000000000000000000000000000000000000000000000000007bffffffffffffffffffffffffffffffffffffffffffffffffffffffff1916827bffffffffffffffffffffffffffffffffffffffffffffffffffffffff1916148061087c575061087b82611e2f565b5b9050919050565b600860009054906101000a900467ffffffffffffffff1681565b7f000000000000000000000000000000000000000000000000000000000000000073ffffffffffffffffffffffffffffffffffffffff163373ffffffffffffffffffffffffffffffffffffffff1614610922576040517fc6829f8300000000000000000000000000000000000000000000000000000000815260040160405180910390fd5b61092d838383611e99565b827f85e1543bf2f84fe80c6badbce3648c8539ad1df4d2b3d822938ca0538be727e660405160405180910390a2505050565b60046020528060005260406000206000915090508060000180546109829061408e565b80601f01602080910402602001604051908101604052809291908181526020018280546109ae9061408e565b80156109fb5780601f106109d0576101008083540402835291602001916109fb565b820191906000526020600020905b8154815290600101906020018083116109de57829003601f168201915b505050505090806001018054610a109061408e565b80601f0160208091040260200160405190810160405280929190818152602001828054610a3c9061408e565b8015610a895780601f10610a5e57610100808354040283529160200191610a89565b820191906000526020600020905b815481529060010190602001808311610a6c57829003601f168201915b505050505090806002018054610a9e9061408e565b80601f0160208091040260200160405190810160405280929190818152602001828054610aca9061408e565b8015610b175780601f10610aec57610100808354040283529160200191610b17565b820191906000526020600020905b815481529060010190602001808311610afa57829003601f168201915b5050505050908060030154908060040160009054906101000a900460ff16908060050154908060060160009054906101000a900473ffffffffffffffffffffffffffffffffffffffff16905087565b610b6e611fa8565b80600860006101000a81548167ffffffffffffffff021916908367ffffffffffffffff16021790555050565b60035481565b600080600560008481526020019081526020016000208054610bc19061408e565b9050119050919050565b600060026000838152602001908152602001600020600101549050919050565b610bf482610bcb565b610bfd81612038565b610c07838361204c565b50505050565b610c1561213e565b73ffffffffffffffffffffffffffffffffffffffff168173ffffffffffffffffffffffffffffffffffffffff1614610c79576040517f6697b23200000000000000000000000000000000000000000000000000000000815260040160405180910390fd5b610c838282612146565b505050565b610c90611fa8565b610c98612239565b565b610ca26133bd565b6000600683604051610cb491906140fb565b90815260200160405180910390205490506000801b8103610d0c57806040517f587311a8000000000000000000000000000000000000000000000000000000008152600401610d039190613a21565b60405180910390fd5b600460008281526020019081526020016000206040518060e0016040529081600082018054610d3a9061408e565b80601f0160208091040260200160405190810160405280929190818152602001828054610d669061408e565b8015610db35780601f10610d8857610100808354040283529160200191610db3565b820191906000526020600020905b815481529060010190602001808311610d9657829003601f168201915b50505050508152602001600182018054610dcc9061408e565b80601f0160208091040260200160405190810160405280929190818152602001828054610df89061408e565b8015610e455780601f10610e1a57610100808354040283529160200191610e45565b820191906000526020600020905b815481529060010190602001808311610e2857829003601f168201915b50505050508152602001600282018054610e5e9061408e565b80601f0160208091040260200160405190810160405280929190818152602001828054610e8a9061408e565b8015610ed75780601f10610eac57610100808354040283529160200191610ed7565b820191906000526020600020905b815481529060010190602001808311610eba57829003601f168201915b50505050508152602001600382015481526020016004820160009054906101000a900460ff16151515158152602001600582015481526020016006820160009054906101000a900473ffffffffffffffffffffffffffffffffffffffff1673ffffffffffffffffffffffffffffffffffffffff1673ffffffffffffffffffffffffffffffffffffffff1681525050915050919050565b6000600160149054906101000a900460ff16905090565b610f8c611fa8565b8060098190555050565b600160009054906101000a900473ffffffffffffffffffffffffffffffffffffffff1673ffffffffffffffffffffffffffffffffffffffff163373ffffffffffffffffffffffffffffffffffffffff1614611026576040517f08c379a000000000000000000000000000000000000000000000000000000000815260040161101d9061415e565b60405180910390fd5b60008060009054906101000a900473ffffffffffffffffffffffffffffffffffffffff169050336000806101000a81548173ffffffffffffffffffffffffffffffffffffffff021916908373ffffffffffffffffffffffffffffffffffffffff1602179055506000600160006101000a81548173ffffffffffffffffffffffffffffffffffffffff021916908373ffffffffffffffffffffffffffffffffffffffff1602179055503373ffffffffffffffffffffffffffffffffffffffff168173ffffffffffffffffffffffffffffffffffffffff167f8be0079c531659141344cd1fd0a4f28419497f9722a3daafe3b4186f6b6457e060405160405180910390a350565b611133611fa8565b61113b61229c565b565b6007602052816000526040600020818154811061115957600080fd5b906000526020600020016000915091505080546111759061408e565b80601f01602080910402602001604051908101604052809291908181526020018280546111a19061408e565b80156111ee5780601f106111c3576101008083540402835291602001916111ee565b820191906000526020600020905b8154815290600101906020018083116111d157829003601f168201915b505050505081565b6006818051602081018201805184825260208301602085012081835280955050505050506000915090505481565b60008060009054906101000a900473ffffffffffffffffffffffffffffffffffffffff16905090565b60095481565b6060600760008373ffffffffffffffffffffffffffffffffffffffff1673ffffffffffffffffffffffffffffffffffffffff168152602001908152602001600020805480602002602001604051908101604052809291908181526020016000905b828210156113605783829060005260206000200180546112d39061408e565b80601f01602080910402602001604051908101604052809291908181526020018280546112ff9061408e565b801561134c5780601f106113215761010080835404028352916020019161134c565b820191906000526020600020905b81548152906001019060200180831161132f57829003601f168201915b5050505050815260200190600101906112b4565b505050509050919050565b60006002600084815260200190815260200160002060000160008373ffffffffffffffffffffffffffffffffffffffff1673ffffffffffffffffffffffffffffffffffffffff16815260200190815260200160002060009054906101000a900460ff16905092915050565b6113de6133bd565b6000600460008481526020019081526020016000206040518060e001604052908160008201805461140e9061408e565b80601f016020809104026020016040519081016040528092919081815260200182805461143a9061408e565b80156114875780601f1061145c57610100808354040283529160200191611487565b820191906000526020600020905b81548152906001019060200180831161146a57829003601f168201915b505050505081526020016001820180546114a09061408e565b80601f01602080910402602001604051908101604052809291908181526020018280546114cc9061408e565b80156115195780601f106114ee57610100808354040283529160200191611519565b820191906000526020600020905b8154815290600101906020018083116114fc57829003601f168201915b505050505081526020016002820180546115329061408e565b80601f016020809104026020016040519081016040528092919081815260200182805461155e9061408e565b80156115ab5780601f10611580576101008083540402835291602001916115ab565b820191906000526020600020905b81548152906001019060200180831161158e57829003601f168201915b50505050508152602001600382015481526020016004820160009054906101000a900460ff16151515158152602001600582015481526020016006820160009054906101000a900473ffffffffffffffffffffffffffffffffffffffff1673ffffffffffffffffffffffffffffffffffffffff1673ffffffffffffffffffffffffffffffffffffffff1681525050905060008160000151510361168557826040517f587311a800000000000000000000000000000000000000000000000000000000815260040161167c9190613a21565b60405180910390fd5b80915050919050565b6000801b81565b600061169f6122fe565b7f0ce23c3e399818cfee81a7ab0880f714e53d7672b08df0fa62f2843416e1ea096116c981612038565b601188511461170f57876040517fe2ccd97c0000000000000000000000000000000000000000000000000000000081526004016117069190613d41565b60405180910390fd5b611717613412565b61172a858261233f90919063ffffffff16565b6000600467ffffffffffffffff81111561174757611746613679565b5b60405190808252806020026020018201604052801561177a57816020015b60608152602001906001900390816117655790505b50905089816000815181106117925761179161417e565b5b602002602001018190525088816001815181106117b2576117b161417e565b5b602002602001018190525087816002815181106117d2576117d161417e565b5b60200260200101819052506117e687612350565b816003815181106117fa576117f961417e565b5b6020026020010181905250611818818361241e90919063ffffffff16565b600061184961182684612466565b600860009054906101000a900467ffffffffffffffff16620493e0600954612876565b9050806003819055506040518060e001604052808c81526020018b81526020018a81526020018981526020016000151581526020014281526020018773ffffffffffffffffffffffffffffffffffffffff168152506004600083815260200190815260200160002060008201518160000190816118c69190614359565b5060208201518160010190816118dc9190614359565b5060408201518160020190816118f29190614359565b506060820151816003015560808201518160040160006101000a81548160ff02191690831515021790555060a0820151816005015560c08201518160060160006101000a81548173ffffffffffffffffffffffffffffffffffffffff021916908373ffffffffffffffffffffffffffffffffffffffff1602179055509050508060068c60405161198291906140fb565b908152602001604051809103902081905550600760008773ffffffffffffffffffffffffffffffffffffffff1673ffffffffffffffffffffffffffffffffffffffff1681526020019081526020016000208b908060018154018082558091505060019003906000526020600020016000909190919091509081611a059190614359565b508573ffffffffffffffffffffffffffffffffffffffff168b604051611a2b91906140fb565b6040518091039020827f13ca237172794937f1fb184f8c22655ef88cbe6c2164ef88558a9445b64b807d60405160405180910390a4809450505050509695505050505050565b6000600683604051611a8391906140fb565b908152602001604051809103902054905060006004600083815260200190815260200160002090503373ffffffffffffffffffffffffffffffffffffffff168160060160009054906101000a900473ffffffffffffffffffffffffffffffffffffffff1673ffffffffffffffffffffffffffffffffffffffff1614611b415783336040517fc9613021000000000000000000000000000000000000000000000000000000008152600401611b3892919061442b565b60405180910390fd5b60008160060160009054906101000a900473ffffffffffffffffffffffffffffffffffffffff169050838260060160006101000a81548173ffffffffffffffffffffffffffffffffffffffff021916908373ffffffffffffffffffffffffffffffffffffffff160217905550611bb78186612959565b600760008573ffffffffffffffffffffffffffffffffffffffff1673ffffffffffffffffffffffffffffffffffffffff16815260200190815260200160002085908060018154018082558091505060019003906000526020600020016000909190919091509081611c289190614359565b508373ffffffffffffffffffffffffffffffffffffffff168173ffffffffffffffffffffffffffffffffffffffff1686604051611c6591906140fb565b60405180910390207f6840904f5b31827f74e1497360da245f56e530c8c3de3163a2d31f11493273c660405160405180910390a45050505050565b611ca982610bcb565b611cb281612038565b611cbc8383612146565b50505050565b6060600560008381526020019081526020016000208054611ce29061408e565b80601f0160208091040260200160405190810160405280929190818152602001828054611d0e9061408e565b8015611d5b5780601f10611d3057610100808354040283529160200191611d5b565b820191906000526020600020905b815481529060010190602001808311611d3e57829003601f168201915b50505050509050919050565b600080600683604051611d7a91906140fb565b90815260200160405180910390205490506000801b8103611d9f576000915050611dc7565b6004600082815260200190815260200160002060040160009054906101000a900460ff169150505b919050565b600080600560008481526020019081526020016000208054611ded9061408e565b9050119050919050565b7f0ce23c3e399818cfee81a7ab0880f714e53d7672b08df0fa62f2843416e1ea0981565b611e23611fa8565b611e2c81612a88565b50565b60007f01ffc9a7000000000000000000000000000000000000000000000000000000007bffffffffffffffffffffffffffffffffffffffffffffffffffffffff1916827bffffffffffffffffffffffffffffffffffffffffffffffffffffffff1916149050919050565b6000600460008581526020019081526020016000209050600082511115611f115780600001604051611ecb91906144de565b6040518091039020847ff42589e0d152d54c83ef9856d3a1bd0a58c63e6b1af9565d804bc5f8aa85c2146000604051611f0491906135cf565b60405180910390a3611fa2565b82600560008681526020019081526020016000209081611f319190614550565b5060018160040160006101000a81548160ff02191690831515021790555080600001604051611f6091906144de565b6040518091039020847ff42589e0d152d54c83ef9856d3a1bd0a58c63e6b1af9565d804bc5f8aa85c2146001604051611f9991906135cf565b60405180910390a35b50505050565b60008054906101000a900473ffffffffffffffffffffffffffffffffffffffff1673ffffffffffffffffffffffffffffffffffffffff163373ffffffffffffffffffffffffffffffffffffffff1614612036576040517f08c379a000000000000000000000000000000000000000000000000000000000815260040161202d9061466e565b60405180910390fd5b565b6120498161204461213e565b612bb4565b50565b6000612058838361136b565b6121335760016002600085815260200190815260200160002060000160008473ffffffffffffffffffffffffffffffffffffffff1673ffffffffffffffffffffffffffffffffffffffff16815260200190815260200160002060006101000a81548160ff0219169083151502179055506120d061213e565b73ffffffffffffffffffffffffffffffffffffffff168273ffffffffffffffffffffffffffffffffffffffff16847f2f8788117e7eff1d82e926ec794901d17c78024a50270940304540a733656f0d60405160405180910390a460019050612138565b600090505b92915050565b600033905090565b6000612152838361136b565b1561222e5760006002600085815260200190815260200160002060000160008473ffffffffffffffffffffffffffffffffffffffff1673ffffffffffffffffffffffffffffffffffffffff16815260200190815260200160002060006101000a81548160ff0219169083151502179055506121cb61213e565b73ffffffffffffffffffffffffffffffffffffffff168273ffffffffffffffffffffffffffffffffffffffff16847ff6391f5c32d9c69d2a47ea670b442974b53935d1edc7fd64eb21e047a839171b60405160405180910390a460019050612233565b600090505b92915050565b612241612c05565b6000600160146101000a81548160ff0219169083151502179055507f5db9ee0a495bf2e6ff9c91a7834c1ba4fdd244a5e8aa4e537bd38aeae4b073aa61228561213e565b6040516122929190613d63565b60405180910390a1565b6122a46122fe565b60018060146101000a81548160ff0219169083151502179055507f62e78cea01bee320cd4e420270b5ea74000d11b0c9f74754ebdbfc544b05a2586122e761213e565b6040516122f49190613d63565b60405180910390a1565b612306610f6d565b1561233d576040517fd93c066500000000000000000000000000000000000000000000000000000000815260040160405180910390fd5b565b61234c8260008084612c45565b5050565b60606000600161235f84612cef565b01905060008167ffffffffffffffff81111561237e5761237d613679565b5b6040519080825280601f01601f1916602001820160405280156123b05781602001600182028036833780820191505090505b509050600082602001820190505b600115612413578080600190039150507f3031323334353637383961626364656600000000000000000000000000000000600a86061a8153600a85816124075761240661468e565b5b049450600085036123be575b819350505050919050565b6000815103612459576040517ffe936cb700000000000000000000000000000000000000000000000000000000815260040160405180910390fd5b808260a001819052505050565b60606000612475610100612e42565b90506124bf6040518060400160405280600c81526020017f636f64654c6f636174696f6e000000000000000000000000000000000000000081525082612e6990919063ffffffff16565b6124e8836000015160028111156124d9576124d86146bd565b5b82612e9290919063ffffffff16565b6125306040518060400160405280600881526020017f6c616e677561676500000000000000000000000000000000000000000000000081525082612e6990919063ffffffff16565b6125598360400151600081111561254a576125496146bd565b5b82612e9290919063ffffffff16565b6125a16040518060400160405280600681526020017f736f75726365000000000000000000000000000000000000000000000000000081525082612e6990919063ffffffff16565b6125b8836060015182612e6990919063ffffffff16565b60008360a0015151111561266e5761260e6040518060400160405280600481526020017f617267730000000000000000000000000000000000000000000000000000000081525082612e6990919063ffffffff16565b61261781612ee2565b60005b8360a0015151811015612663576126588460a0015182815181106126415761264061417e565b5b602002602001015183612e6990919063ffffffff16565b80600101905061261a565b5061266d81612f0a565b5b600083608001515111156127af57600060028111156126905761268f6146bd565b5b836020015160028111156126a7576126a66146bd565b5b036126de576040517fa80d31f700000000000000000000000000000000000000000000000000000000815260040160405180910390fd5b6127266040518060400160405280600f81526020017f736563726574734c6f636174696f6e000000000000000000000000000000000081525082612e6990919063ffffffff16565b61274f836020015160028111156127405761273f6146bd565b5b82612e9290919063ffffffff16565b6127976040518060400160405280600781526020017f736563726574730000000000000000000000000000000000000000000000000081525082612e6990919063ffffffff16565b6127ae836080015182612f3290919063ffffffff16565b5b60008360c00151511115612865576128056040518060400160405280600981526020017f627974657341726773000000000000000000000000000000000000000000000081525082612e6990919063ffffffff16565b61280e81612ee2565b60005b8360c001515181101561285a5761284f8460c0015182815181106128385761283761417e565b5b602002602001015183612f3290919063ffffffff16565b806001019050612811565b5061286481612f0a565b5b806000015160000151915050919050565b6000807f000000000000000000000000000000000000000000000000000000000000000073ffffffffffffffffffffffffffffffffffffffff1663461d27628688600188886040518663ffffffff1660e01b81526004016128db959493929190614728565b6020604051808303816000875af11580156128fa573d6000803e3d6000fd5b505050506040513d601f19601f8201168201806040525081019061291e9190614797565b9050807f1131472297a800fee664d1d89cfa8f7676ff07189ecc53f80bbb5f4969099db860405160405180910390a280915050949350505050565b6000600760008473ffffffffffffffffffffffffffffffffffffffff1673ffffffffffffffffffffffffffffffffffffffff168152602001908152602001600020905060005b8180549050811015612a825782805190602001208282815481106129c6576129c561417e565b5b906000526020600020016040516129dd9190614867565b604051809103902003612a755781600183805490506129fc91906148ad565b81548110612a0d57612a0c61417e565b5b90600052602060002001828281548110612a2a57612a2961417e565b5b906000526020600020019081612a40919061490c565b5081805480612a5257612a516149f4565b5b600190038181906000526020600020016000612a6e9190613484565b9055612a82565b808060010191505061299f565b50505050565b3373ffffffffffffffffffffffffffffffffffffffff168173ffffffffffffffffffffffffffffffffffffffff1603612af6576040517f08c379a0000000000000000000000000000000000000000000000000000000008152600401612aed90614a6f565b60405180910390fd5b80600160006101000a81548173ffffffffffffffffffffffffffffffffffffffff021916908373ffffffffffffffffffffffffffffffffffffffff1602179055508073ffffffffffffffffffffffffffffffffffffffff1660008054906101000a900473ffffffffffffffffffffffffffffffffffffffff1673ffffffffffffffffffffffffffffffffffffffff167fed8889f560326eb138920d842192f0eb3dd22b4f139c87a2c57538e05bae127860405160405180910390a350565b612bbe828261136b565b612c015780826040517fe2517d3f000000000000000000000000000000000000000000000000000000008152600401612bf8929190614a8f565b60405180910390fd5b5050565b612c0d610f6d565b612c43576040517f8dfc202b00000000000000000000000000000000000000000000000000000000815260040160405180910390fd5b565b6000815103612c80576040517f22ce3edd00000000000000000000000000000000000000000000000000000000815260040160405180910390fd5b8284600001906002811115612c9857612c976146bd565b5b90816002811115612cac57612cab6146bd565b5b815250508184604001906000811115612cc857612cc76146bd565b5b90816000811115612cdc57612cdb6146bd565b5b8152505080846060018190525050505050565b600080600090507a184f03e93ff9f4daa797ed6e38ed64bf6a1f0100000000000000008310612d4d577a184f03e93ff9f4daa797ed6e38ed64bf6a1f0100000000000000008381612d4357612d4261468e565b5b0492506040810190505b6d04ee2d6d415b85acef81000000008310612d8a576d04ee2d6d415b85acef81000000008381612d8057612d7f61468e565b5b0492506020810190505b662386f26fc100008310612db957662386f26fc100008381612daf57612dae61468e565b5b0492506010810190505b6305f5e1008310612de2576305f5e1008381612dd857612dd761468e565b5b0492506008810190505b6127108310612e07576127108381612dfd57612dfc61468e565b5b0492506004810190505b60648310612e2a5760648381612e2057612e1f61468e565b5b0492506002810190505b600a8310612e39576001810190505b80915050919050565b612e4a6134c4565b612e58816000015183612f5b565b506000816020018181525050919050565b612e768260038351612fd4565b612e8d81836000015161317d90919063ffffffff16565b505050565b612eb460026005600660ff16901b17836000015161319990919063ffffffff16565b50612ede8282604051602001612eca9190614ab8565b604051602081830303815290604052612f32565b5050565b612eed816004613203565b600181602001818151612f009190614ad3565b9150818152505050565b612f15816007613203565b600181602001818151612f2891906148ad565b9150818152505050565b612f3f8260028351612fd4565b612f5681836000015161317d90919063ffffffff16565b505050565b612f636134e4565b6000602083612f729190614b07565b14612f9e57602082612f849190614b07565b6020612f9091906148ad565b82612f9b9190614ad3565b91505b818360200181815250506040518084526000815282810160200181811015612fc557600080fd5b80604052505082905092915050565b60178167ffffffffffffffff161161300f576130098160058460ff16901b60ff1617846000015161319990919063ffffffff16565b50613178565b60ff8167ffffffffffffffff161161306d57613042601860058460ff16901b17846000015161319990919063ffffffff16565b506130678167ffffffffffffffff16600185600001516132299092919063ffffffff16565b50613177565b61ffff8167ffffffffffffffff16116130cc576130a1601960058460ff16901b17846000015161319990919063ffffffff16565b506130c68167ffffffffffffffff16600285600001516132299092919063ffffffff16565b50613176565b63ffffffff8167ffffffffffffffff161161312d57613102601a60058460ff16901b17846000015161319990919063ffffffff16565b506131278167ffffffffffffffff16600485600001516132299092919063ffffffff16565b50613175565b61314e601b60058460ff16901b17846000015161319990919063ffffffff16565b506131738167ffffffffffffffff16600885600001516132299092919063ffffffff16565b505b5b5b5b505050565b6131856134e4565b613191838384516132b6565b905092915050565b6131a16134e4565b6000836000015151905060006001826131ba9190614ad3565b9050846020015182106131de576131dd856002836131d89190614b38565b613399565b5b845160208382010185815381518311156131f6578282525b5050849250505092915050565b613224601f60058360ff16901b17836000015161319990919063ffffffff16565b505050565b6132316134e4565b60008460000151519050600081846132499190614ad3565b9050856020015181111561326e5761326d866002836132689190614b38565b613399565b5b60006001856101006132809190614cad565b61328a91906148ad565b9050865182810187831982511617815281518411156132a7578382525b50508693505050509392505050565b6132be6134e4565b82518211156132cc57600080fd5b60008460000151519050600083826132e49190614ad3565b9050856020015181111561330957613308866002836133039190614b38565b613399565b5b60008087518051856020830101935080851115613324578482525b60208901925050505b6020861061336b57805182526020826133469190614ad3565b91506020816133559190614ad3565b905060208661336491906148ad565b955061332d565b60006001876020036101000a0390508019825116818451168181178552505050879450505050509392505050565b6000826000015190506133ac8383612f5b565b506133b7838261317d565b50505050565b6040518060e001604052806060815260200160608152602001606081526020016000815260200160001515815260200160008152602001600073ffffffffffffffffffffffffffffffffffffffff1681525090565b6040518060e0016040528060006002811115613431576134306146bd565b5b81526020016000600281111561344a576134496146bd565b5b8152602001600080811115613462576134616146bd565b5b8152602001606081526020016060815260200160608152602001606081525090565b5080546134909061408e565b6000825580601f106134a257506134c1565b601f0160209004906000526020600020908101906134c091906134fe565b5b50565b60405180604001604052806134d76134e4565b8152602001600081525090565b604051806040016040528060608152602001600081525090565b5b808211156135175760008160009055506001016134ff565b5090565b6000604051905090565b600080fd5b600080fd5b60007fffffffff0000000000000000000000000000000000000000000000000000000082169050919050565b6135648161352f565b811461356f57600080fd5b50565b6000813590506135818161355b565b92915050565b60006020828403121561359d5761359c613525565b5b60006135ab84828501613572565b91505092915050565b60008115159050919050565b6135c9816135b4565b82525050565b60006020820190506135e460008301846135c0565b92915050565b600067ffffffffffffffff82169050919050565b613607816135ea565b82525050565b600060208201905061362260008301846135fe565b92915050565b6000819050919050565b61363b81613628565b811461364657600080fd5b50565b60008135905061365881613632565b92915050565b600080fd5b600080fd5b6000601f19601f8301169050919050565b7f4e487b7100000000000000000000000000000000000000000000000000000000600052604160045260246000fd5b6136b182613668565b810181811067ffffffffffffffff821117156136d0576136cf613679565b5b80604052505050565b60006136e361351b565b90506136ef82826136a8565b919050565b600067ffffffffffffffff82111561370f5761370e613679565b5b61371882613668565b9050602081019050919050565b82818337600083830152505050565b6000613747613742846136f4565b6136d9565b90508281526020810184848401111561376357613762613663565b5b61376e848285613725565b509392505050565b600082601f83011261378b5761378a61365e565b5b813561379b848260208601613734565b91505092915050565b6000806000606084860312156137bd576137bc613525565b5b60006137cb86828701613649565b935050602084013567ffffffffffffffff8111156137ec576137eb61352a565b5b6137f886828701613776565b925050604084013567ffffffffffffffff8111156138195761381861352a565b5b61382586828701613776565b9150509250925092565b60006020828403121561384557613844613525565b5b600061385384828501613649565b91505092915050565b600081519050919050565b600082825260208201905092915050565b60005b8381101561389657808201518184015260208101905061387b565b60008484015250505050565b60006138ad8261385c565b6138b78185613867565b93506138c7818560208601613878565b6138d081613668565b840191505092915050565b6000819050919050565b6138ee816138db565b82525050565b600073ffffffffffffffffffffffffffffffffffffffff82169050919050565b600061391f826138f4565b9050919050565b61392f81613914565b82525050565b600060e082019050818103600083015261394f818a6138a2565b9050818103602083015261396381896138a2565b9050818103604083015261397781886138a2565b905061398660608301876138e5565b61399360808301866135c0565b6139a060a08301856138e5565b6139ad60c0830184613926565b98975050505050505050565b6139c2816135ea565b81146139cd57600080fd5b50565b6000813590506139df816139b9565b92915050565b6000602082840312156139fb576139fa613525565b5b6000613a09848285016139d0565b91505092915050565b613a1b81613628565b82525050565b6000602082019050613a366000830184613a12565b92915050565b613a4581613914565b8114613a5057600080fd5b50565b600081359050613a6281613a3c565b92915050565b60008060408385031215613a7f57613a7e613525565b5b6000613a8d85828601613649565b9250506020613a9e85828601613a53565b9150509250929050565b600067ffffffffffffffff821115613ac357613ac2613679565b5b613acc82613668565b9050602081019050919050565b6000613aec613ae784613aa8565b6136d9565b905082815260208101848484011115613b0857613b07613663565b5b613b13848285613725565b509392505050565b600082601f830112613b3057613b2f61365e565b5b8135613b40848260208601613ad9565b91505092915050565b600060208284031215613b5f57613b5e613525565b5b600082013567ffffffffffffffff811115613b7d57613b7c61352a565b5b613b8984828501613b1b565b91505092915050565b600082825260208201905092915050565b6000613bae8261385c565b613bb88185613b92565b9350613bc8818560208601613878565b613bd181613668565b840191505092915050565b613be5816138db565b82525050565b613bf4816135b4565b82525050565b613c0381613914565b82525050565b600060e0830160008301518482036000860152613c268282613ba3565b91505060208301518482036020860152613c408282613ba3565b91505060408301518482036040860152613c5a8282613ba3565b9150506060830151613c6f6060860182613bdc565b506080830151613c826080860182613beb565b5060a0830151613c9560a0860182613bdc565b5060c0830151613ca860c0860182613bfa565b508091505092915050565b60006020820190508181036000830152613ccd8184613c09565b905092915050565b613cde816138db565b8114613ce957600080fd5b50565b600081359050613cfb81613cd5565b92915050565b60008060408385031215613d1857613d17613525565b5b6000613d2685828601613a53565b9250506020613d3785828601613cec565b9150509250929050565b60006020820190508181036000830152613d5b81846138a2565b905092915050565b6000602082019050613d786000830184613926565b92915050565b600060208284031215613d9457613d93613525565b5b6000613da284828501613a53565b91505092915050565b600081519050919050565b600082825260208201905092915050565b6000819050602082019050919050565b6000613de38383613ba3565b905092915050565b6000602082019050919050565b6000613e0382613dab565b613e0d8185613db6565b935083602082028501613e1f85613dc7565b8060005b85811015613e5b5784840389528151613e3c8582613dd7565b9450613e4783613deb565b925060208a01995050600181019050613e23565b50829750879550505050505092915050565b60006020820190508181036000830152613e878184613df8565b905092915050565b60008060008060008060c08789031215613eac57613eab613525565b5b600087013567ffffffffffffffff811115613eca57613ec961352a565b5b613ed689828a01613b1b565b965050602087013567ffffffffffffffff811115613ef757613ef661352a565b5b613f0389828a01613b1b565b955050604087013567ffffffffffffffff811115613f2457613f2361352a565b5b613f3089828a01613b1b565b9450506060613f4189828a01613cec565b935050608087013567ffffffffffffffff811115613f6257613f6161352a565b5b613f6e89828a01613b1b565b92505060a0613f7f89828a01613a53565b9150509295509295509295565b60008060408385031215613fa357613fa2613525565b5b600083013567ffffffffffffffff811115613fc157613fc061352a565b5b613fcd85828601613b1b565b9250506020613fde85828601613a53565b9150509250929050565b600081519050919050565b600082825260208201905092915050565b600061400f82613fe8565b6140198185613ff3565b9350614029818560208601613878565b61403281613668565b840191505092915050565b600060208201905081810360008301526140578184614004565b905092915050565b7f4e487b7100000000000000000000000000000000000000000000000000000000600052602260045260246000fd5b600060028204905060018216806140a657607f821691505b6020821081036140b9576140b861405f565b5b50919050565b600081905092915050565b60006140d58261385c565b6140df81856140bf565b93506140ef818560208601613878565b80840191505092915050565b600061410782846140ca565b915081905092915050565b7f4d7573742062652070726f706f736564206f776e657200000000000000000000600082015250565b6000614148601683613867565b915061415382614112565b602082019050919050565b600060208201905081810360008301526141778161413b565b9050919050565b7f4e487b7100000000000000000000000000000000000000000000000000000000600052603260045260246000fd5b60008190508160005260206000209050919050565b60006020601f8301049050919050565b600082821b905092915050565b60006008830261420f7fffffffffffffffffffffffffffffffffffffffffffffffffffffffffffffffff826141d2565b61421986836141d2565b95508019841693508086168417925050509392505050565b6000819050919050565b600061425661425161424c846138db565b614231565b6138db565b9050919050565b6000819050919050565b6142708361423b565b61428461427c8261425d565b8484546141df565b825550505050565b600090565b61429961428c565b6142a4818484614267565b505050565b5b818110156142c8576142bd600082614291565b6001810190506142aa565b5050565b601f82111561430d576142de816141ad565b6142e7846141c2565b810160208510156142f6578190505b61430a614302856141c2565b8301826142a9565b50505b505050565b600082821c905092915050565b600061433060001984600802614312565b1980831691505092915050565b6000614349838361431f565b9150826002028217905092915050565b6143628261385c565b67ffffffffffffffff81111561437b5761437a613679565b5b614385825461408e565b6143908282856142cc565b600060209050601f8311600181146143c357600084156143b1578287015190505b6143bb858261433d565b865550614423565b601f1984166143d1866141ad565b60005b828110156143f9578489015182556001820191506020850194506020810190506143d4565b868310156144165784890151614412601f89168261431f565b8355505b6001600288020188555050505b505050505050565b6000604082019050818103600083015261444581856138a2565b90506144546020830184613926565b9392505050565b600081546144688161408e565b61447281866140bf565b9450600182166000811461448d57600181146144a2576144d5565b60ff19831686528115158202860193506144d5565b6144ab856141ad565b60005b838110156144cd578154818901526001820191506020810190506144ae565b838801955050505b50505092915050565b60006144ea828461445b565b915081905092915050565b60008190508160005260206000209050919050565b601f82111561454b5761451c816144f5565b614525846141c2565b81016020851015614534578190505b614548614540856141c2565b8301826142a9565b50505b505050565b61455982613fe8565b67ffffffffffffffff81111561457257614571613679565b5b61457c825461408e565b61458782828561450a565b600060209050601f8311600181146145ba57600084156145a8578287015190505b6145b2858261433d565b86555061461a565b601f1984166145c8866144f5565b60005b828110156145f0578489015182556001820191506020850194506020810190506145cb565b8683101561460d5784890151614609601f89168261431f565b8355505b6001600288020188555050505b505050505050565b7f4f6e6c792063616c6c61626c65206279206f776e657200000000000000000000600082015250565b6000614658601683613867565b915061466382614622565b602082019050919050565b600060208201905081810360008301526146878161464b565b9050919050565b7f4e487b7100000000000000000000000000000000000000000000000000000000600052601260045260246000fd5b7f4e487b7100000000000000000000000000000000000000000000000000000000600052602160045260246000fd5b600061ffff82169050919050565b614703816146ec565b82525050565b600063ffffffff82169050919050565b61472281614709565b82525050565b600060a08201905061473d60008301886135fe565b818103602083015261474f8187614004565b905061475e60408301866146fa565b61476b6060830185614719565b6147786080830184613a12565b9695505050505050565b60008151905061479181613632565b92915050565b6000602082840312156147ad576147ac613525565b5b60006147bb84828501614782565b91505092915050565b600081905092915050565b60008190508160005260206000209050919050565b600081546147f18161408e565b6147fb81866147c4565b94506001821660008114614816576001811461482b5761485e565b60ff198316865281151582028601935061485e565b614834856147cf565b60005b8381101561485657815481890152600182019150602081019050614837565b838801955050505b50505092915050565b600061487382846147e4565b915081905092915050565b7f4e487b7100000000000000000000000000000000000000000000000000000000600052601160045260246000fd5b60006148b8826138db565b91506148c3836138db565b92508282039050818111156148db576148da61487e565b5b92915050565b6000815490506148f08161408e565b9050919050565b60008190508160005260206000209050919050565b81810361491a5750506149f2565b614923826148e1565b67ffffffffffffffff81111561493c5761493b613679565b5b614946825461408e565b6149518282856142cc565b6000601f831160018114614980576000841561496e578287015490505b614978858261433d565b8655506149eb565b601f19841661498e876148f7565b9650614999866141ad565b60005b828110156149c15784890154825560018201915060018501945060208101905061499c565b868310156149de57848901546149da601f89168261431f565b8355505b6001600288020188555050505b5050505050505b565b7f4e487b7100000000000000000000000000000000000000000000000000000000600052603160045260246000fd5b7f43616e6e6f74207472616e7366657220746f2073656c66000000000000000000600082015250565b6000614a59601783613867565b9150614a6482614a23565b602082019050919050565b60006020820190508181036000830152614a8881614a4c565b9050919050565b6000604082019050614aa46000830185613926565b614ab16020830184613a12565b9392505050565b6000602082019050614acd60008301846138e5565b92915050565b6000614ade826138db565b9150614ae9836138db565b9250828201905080821115614b0157614b0061487e565b5b92915050565b6000614b12826138db565b9150614b1d836138db565b925082614b2d57614b2c61468e565b5b828206905092915050565b6000614b43826138db565b9150614b4e836138db565b9250828202614b5c816138db565b91508282048414831517614b7357614b7261487e565b5b5092915050565b60008160011c9050919050565b6000808291508390505b6001851115614bd157808604811115614bad57614bac61487e565b5b6001851615614bbc5780820291505b8081029050614bca85614b7a565b9450614b91565b94509492505050565b600082614bea5760019050614ca6565b81614bf85760009050614ca6565b8160018114614c0e5760028114614c1857614c47565b6001915050614ca6565b60ff841115614c2a57614c2961487e565b5b8360020a915084821115614c4157614c4061487e565b5b50614ca6565b5060208310610133831016604e8410600b8410161715614c7c5782820a905083811115614c7757614c7661487e565b5b614ca6565b614c898484846001614b87565b92509050818404811115614ca057614c9f61487e565b5b81810290505b9392505050565b6000614cb8826138db565b9150614cc3836138db565b9250614cf07fffffffffffffffffffffffffffffffffffffffffffffffffffffffffffffffff8484614bda565b90509291505056fea26469706673582212205437a79798ed62b67f66d139791837335b4f352477c18829603183aa8a18b6ba64736f6c63430008180033",
  "linkReferences": {},
  "deployedLinkReferences": {}
}