{
  "_format": "hh-sol-artifact-1",
  "contractName": "CarVerificationOracle",
  "sourceName": "contracts/CarVerificationOracle.sol",
  "abi": [
    {
      "inputs": [
        {
          "internalType": "address",
          "name": "router",
          "type": "address"
        }
      ],
      "stateMutability": "nonpayable",
      "type": "constructor"
    },
    {
      "inputs": [],
      "name": "BatchSizeMismatch",
      "type": "error"
    },
    {
      "inputs": [],
      "name": "EmptyArgs",
      "type": "error"
    },
    {
      "inputs": [],
      "name": "EmptySource",
      "type": "error"
    },
    {
      "inputs": [],
      "name": "EnforcedPause",
      "type": "error"
    },
    {
      "inputs": [],
      "name": "ExpectedPause",
      "type": "error"
    },
    {
      "inputs": [
        {
          "internalType": "string",
          "name": "vin",
          "type": "string"
        }
      ],
      "name": "InvalidVIN",
      "type": "error"
    },
    {
      "inputs": [],
      "name": "NoInlineSecrets",
      "type": "error"
    },
    {
      "inputs": [],
      "name": "OnlyRouterCanFulfill",
      "type": "error"
    },
    {
      "inputs": [
        {
          "internalType": "address",
          "name": "requester",
          "type": "address"
        },
        {
          "internalType": "uint256",
          "name": "cooldownEnd",
          "type": "uint256"
        }
      ],
      "name": "RateLimitExceeded",
      "type": "error"
    },
    {
      "inputs": [
        {
          "internalType": "bytes32",
          "name": "requestId",
          "type": "bytes32"
        }
      ],
      "name": "VerificationNotFound",
      "type": "error"
    },
    {
      "inputs": [
        {
          "internalType": "bytes32",
          "name": "requestId",
          "type": "bytes32"
        }
      ],
      "name": "VerificationTimedOutError",
      "type": "error"
    },
    {
      "anonymous": false,
      "inputs": [
        {
          "indexed": false,
          "internalType": "bytes32[]",
          "name": "requestIds",
          "type": "bytes32[]"
        },
        {
          "indexed": false,
          "internalType": "string[]",
          "name": "vins",
          "type": "string[]"
        },
        {
          "indexed": true,
          "internalType": "address",
          "name": "requester",
          "type": "address"
        }
      ],
      "name": "BatchVerificationRequested",
      "type": "event"
    },
    {
      "anonymous": false,
      "inputs": [
        {
          "indexed": true,
          "internalType": "address",
          "name": "from",
          "type": "address"
        },
        {
          "indexed": true,
          "internalType": "address",
          "name": "to",
          "type": "address"
        }
      ],
      "name": "OwnershipTransferRequested",
      "type": "event"
    },
    {
      "anonymous": false,
      "inputs": [
        {
          "indexed": true,
          "internalType": "address",
          "name": "from",
          "type": "address"
        },
        {
          "indexed": true,
          "internalType": "address",
          "name": "to",
          "type": "address"
        }
      ],
      "name": "OwnershipTransferred",
      "type": "event"
    },
    {
      "anonymous": false,
      "inputs": [
        {
          "indexed": false,
          "internalType": "address",
          "name": "account",
          "type": "address"
        }
      ],
      "name": "Paused",
      "type": "event"
    },
    {
      "anonymous": false,
      "inputs": [
        {
          "indexed": true,
          "internalType": "bytes32",
          "name": "id",
          "type": "bytes32"
        }
      ],
      "name": "RequestFulfilled",
      "type": "event"
    },
    {
      "anonymous": false,
      "inputs": [
        {
          "indexed": true,
          "internalType": "bytes32",
          "name": "id",
          "type": "bytes32"
        }
      ],
      "name": "RequestSent",
      "type": "event"
    },
    {
      "anonymous": false,
      "inputs": [
        {
          "indexed": false,
          "internalType": "address",
          "name": "account",
          "type": "address"
        }
      ],
      "name": "Unpaused",
      "type": "event"
    },
    {
      "anonymous": false,
      "inputs": [
        {
          "indexed": true,
          "internalType": "bytes32",
          "name": "requestId",
          "type": "bytes32"
        },
        {
          "indexed": true,
          "internalType": "string",
          "name": "vin",
          "type": "string"
        },
        {
          "indexed": false,
          "internalType": "bool",
          "name": "isVerified",
          "type": "bool"
        }
      ],
      "name": "VerificationFulfilled",
      "type": "event"
    },
    {
      "anonymous": false,
      "inputs": [
        {
          "indexed": true,
          "internalType": "bytes32",
          "name": "requestId",
          "type": "bytes32"
        },
        {
          "indexed": true,
          "internalType": "string",
          "name": "vin",
          "type": "string"
        },
        {
          "indexed": true,
          "internalType": "address",
          "name": "requester",
          "type": "address"
        }
      ],
      "name": "VerificationRequested",
      "type": "event"
    },
    {
      "anonymous": false,
      "inputs": [
        {
          "indexed": true,
          "internalType": "bytes32",
          "name": "requestId",
          "type": "bytes32"
        },
        {
          "indexed": true,
          "internalType": "string",
          "name": "vin",
          "type": "string"
        }
      ],
      "name": "VerificationTimedOut",
      "type": "event"
    },
    {
      "inputs": [],
      "name": "REQUEST_COOLDOWN",
      "outputs": [
        {
          "internalType": "uint256",
          "name": "",
          "type": "uint256"
        }
      ],
      "stateMutability": "view",
      "type": "function"
    },
    {
      "inputs": [],
      "name": "VERIFICATION_TIMEOUT",
      "outputs": [
        {
          "internalType": "uint256",
          "name": "",
          "type": "uint256"
        }
      ],
      "stateMutability": "view",
      "type": "function"
    },
    {
      "inputs": [],
      "name": "acceptOwnership",
      "outputs": [],
      "stateMutability": "nonpayable",
      "type": "function"
    },
    {
      "inputs": [
        {
          "internalType": "bytes32[]",
          "name": "requestIds",
          "type": "bytes32[]"
        }
      ],
      "name": "checkAndTimeoutVerifications",
      "outputs": [],
      "stateMutability": "nonpayable",
      "type": "function"
    },
    {
      "inputs": [],
      "name": "donId",
      "outputs": [
        {
          "internalType": "bytes32",
          "name": "",
          "type": "bytes32"
        }
      ],
      "stateMutability": "view",
      "type": "function"
    },
    {
      "inputs": [
        {
          "internalType": "bytes32",
          "name": "requestId",
          "type": "bytes32"
        }
      ],
      "name": "getCarDetails",
      "outputs": [
        {
          "components": [
            {
              "internalType": "string",
              "name": "vin",
              "type": "string"
            },
            {
              "internalType": "string",
              "name": "make",
              "type": "string"
            },
            {
              "internalType": "string",
              "name": "model",
              "type": "string"
            },
            {
              "internalType": "uint256",
              "name": "year",
              "type": "uint256"
            },
            {
              "internalType": "bool",
              "name": "isVerified",
              "type": "bool"
            },
            {
              "internalType": "uint256",
              "name": "verificationTimestamp",
              "type": "uint256"
            }
          ],
          "internalType": "struct CarVerificationOracle.CarDetails",
          "name": "",
          "type": "tuple"
        }
      ],
      "stateMutability": "view",
      "type": "function"
    },
    {
      "inputs": [
        {
          "internalType": "bytes32",
          "name": "requestId",
          "type": "bytes32"
        }
      ],
      "name": "getVerificationResult",
      "outputs": [
        {
          "internalType": "bool",
          "name": "isVerified",
          "type": "bool"
        },
        {
          "internalType": "uint256",
          "name": "timestamp",
          "type": "uint256"
        }
      ],
      "stateMutability": "view",
      "type": "function"
    },
    {
      "inputs": [
        {
          "internalType": "bytes32",
          "name": "requestId",
          "type": "bytes32"
        },
        {
          "internalType": "bytes",
          "name": "response",
          "type": "bytes"
        },
        {
          "internalType": "bytes",
          "name": "err",
          "type": "bytes"
        }
      ],
      "name": "handleOracleFulfillment",
      "outputs": [],
      "stateMutability": "nonpayable",
      "type": "function"
    },
    {
      "inputs": [
        {
          "internalType": "address",
          "name": "",
          "type": "address"
        }
      ],
      "name": "lastRequestTimestamp",
      "outputs": [
        {
          "internalType": "uint256",
          "name": "",
          "type": "uint256"
        }
      ],
      "stateMutability": "view",
      "type": "function"
    },
    {
      "inputs": [],
      "name": "latestRequestId",
      "outputs": [
        {
          "internalType": "bytes32",
          "name": "",
          "type": "bytes32"
        }
      ],
      "stateMutability": "view",
      "type": "function"
    },
    {
      "inputs": [],
      "name": "owner",
      "outputs": [
        {
          "internalType": "address",
          "name": "",
          "type": "address"
        }
      ],
      "stateMutability": "view",
      "type": "function"
    },
    {
      "inputs": [],
      "name": "pause",
      "outputs": [],
      "stateMutability": "nonpayable",
      "type": "function"
    },
    {
      "inputs": [],
      "name": "paused",
      "outputs": [
        {
          "internalType": "bool",
          "name": "",
          "type": "bool"
        }
      ],
      "stateMutability": "view",
      "type": "function"
    },
    {
      "inputs": [
        {
          "internalType": "string",
          "name": "vin",
          "type": "string"
        },
        {
          "internalType": "string",
          "name": "make",
          "type": "string"
        },
        {
          "internalType": "string",
          "name": "model",
          "type": "string"
        },
        {
          "internalType": "uint256",
          "name": "year",
          "type": "uint256"
        },
        {
          "internalType": "string",
          "name": "source",
          "type": "string"
        }
      ],
      "name": "requestCarValidation",
      "outputs": [
        {
          "internalType": "bytes32",
          "name": "",
          "type": "bytes32"
        }
      ],
      "stateMutability": "nonpayable",
      "type": "function"
    },
    {
      "inputs": [],
      "name": "subscriptionId",
      "outputs": [
        {
          "internalType": "uint64",
          "name": "",
          "type": "uint64"
        }
      ],
      "stateMutability": "view",
      "type": "function"
    },
    {
      "inputs": [
        {
          "internalType": "address",
          "name": "to",
          "type": "address"
        }
      ],
      "name": "transferOwnership",
      "outputs": [],
      "stateMutability": "nonpayable",
      "type": "function"
    },
    {
      "inputs": [],
      "name": "unpause",
      "outputs": [],
      "stateMutability": "nonpayable",
      "type": "function"
    },
    {
      "inputs": [
        {
          "internalType": "bytes32",
          "name": "newDonId",
          "type": "bytes32"
        }
      ],
      "name": "updateDonId",
      "outputs": [],
      "stateMutability": "nonpayable",
      "type": "function"
    },
    {
      "inputs": [
        {
          "internalType": "uint64",
          "name": "newSubscriptionId",
          "type": "uint64"
        }
      ],
      "name": "updateSubscriptionId",
      "outputs": [],
      "stateMutability": "nonpayable",
      "type": "function"
    },
    {
      "inputs": [
        {
          "internalType": "bytes32",
          "name": "",
          "type": "bytes32"
        }
      ],
      "name": "verifications",
      "outputs": [
        {
          "internalType": "string",
          "name": "vin",
          "type": "string"
        },
        {
          "internalType": "string",
          "name": "make",
          "type": "string"
        },
        {
          "internalType": "string",
          "name": "model",
          "type": "string"
        },
        {
          "internalType": "uint256",
          "name": "year",
          "type": "uint256"
        },
        {
          "internalType": "bool",
          "name": "isVerified",
          "type": "bool"
        },
        {
          "internalType": "uint256",
          "name": "verificationTimestamp",
          "type": "uint256"
        }
      ],
      "stateMutability": "view",
      "type": "function"
    },
    {
      "stateMutability": "payable",
      "type": "receive"
    }
  ],
  "bytecode": "0x60a06040523480156200001157600080fd5b5060405162003fa138038062003fa183398181016040528101906200003791906200037d565b33806000838073ffffffffffffffffffffffffffffffffffffffff1660808173ffffffffffffffffffffffffffffffffffffffff168152505050600073ffffffffffffffffffffffffffffffffffffffff168273ffffffffffffffffffffffffffffffffffffffff1603620000e3576040517f08c379a0000000000000000000000000000000000000000000000000000000008152600401620000da9062000410565b60405180910390fd5b816000806101000a81548173ffffffffffffffffffffffffffffffffffffffff021916908373ffffffffffffffffffffffffffffffffffffffff160217905550600073ffffffffffffffffffffffffffffffffffffffff168173ffffffffffffffffffffffffffffffffffffffff16146200016a576200016981620001e460201b60201c565b5b5050506000600160146101000a81548160ff021916908315150217905550610e35600560006101000a81548167ffffffffffffffff021916908367ffffffffffffffff1602179055507f66756e2d657468657265756d2d7365706f6c69612d310000000000000000000060001b60068190555050620004a4565b3373ffffffffffffffffffffffffffffffffffffffff168173ffffffffffffffffffffffffffffffffffffffff160362000255576040517f08c379a00000000000000000000000000000000000000000000000000000000081526004016200024c9062000482565b60405180910390fd5b80600160006101000a81548173ffffffffffffffffffffffffffffffffffffffff021916908373ffffffffffffffffffffffffffffffffffffffff1602179055508073ffffffffffffffffffffffffffffffffffffffff1660008054906101000a900473ffffffffffffffffffffffffffffffffffffffff1673ffffffffffffffffffffffffffffffffffffffff167fed8889f560326eb138920d842192f0eb3dd22b4f139c87a2c57538e05bae127860405160405180910390a350565b600080fd5b600073ffffffffffffffffffffffffffffffffffffffff82169050919050565b6000620003458262000318565b9050919050565b620003578162000338565b81146200036357600080fd5b50565b60008151905062000377816200034c565b92915050565b60006020828403121562000396576200039562000313565b5b6000620003a68482850162000366565b91505092915050565b600082825260208201905092915050565b7f43616e6e6f7420736574206f776e657220746f207a65726f0000000000000000600082015250565b6000620003f8601883620003af565b91506200040582620003c0565b602082019050919050565b600060208201905081810360008301526200042b81620003e9565b9050919050565b7f43616e6e6f74207472616e7366657220746f2073656c66000000000000000000600082015250565b60006200046a601783620003af565b9150620004778262000432565b602082019050919050565b600060208201905081810360008301526200049d816200045b565b9050919050565b608051613ada620004c7600039600081816104c10152611c740152613ada6000f3fe6080604052600436106101235760003560e01c80637197ad7a116100a05780639059891911610064578063905989191461039a5780639d4200ef146103d75780639d86568014610414578063d3b144c614610451578063f2fde38b1461047c5761012a565b80637197ad7a146102ed57806379ba5097146103165780638456cb591461032d5780638da5cb5b146103445780638dbe7b9d1461036f5761012a565b80631e1d6e1d116100e75780631e1d6e1d1461021957806336beb697146102445780633f4ba83a146102825780635c975abb146102995780636df0c747146102c45761012a565b806309c1ba2e1461012f5780630ca761751461015a57806310c74e161461018357806314b1dd1b146101c55780631aa46f59146101ee5761012a565b3661012a57005b600080fd5b34801561013b57600080fd5b506101446104a5565b60405161015191906127a2565b60405180910390f35b34801561016657600080fd5b50610181600480360381019061017c919061294d565b6104bf565b005b34801561018f57600080fd5b506101aa60048036038101906101a591906129d8565b610581565b6040516101bc96959493929190612ab8565b60405180910390f35b3480156101d157600080fd5b506101ec60048036038101906101e79190612b5a565b610762565b005b3480156101fa57600080fd5b50610203610796565b6040516102109190612b96565b60405180910390f35b34801561022557600080fd5b5061022e61079c565b60405161023b9190612bb1565b60405180910390f35b34801561025057600080fd5b5061026b600480360381019061026691906129d8565b6107a2565b604051610279929190612bcc565b60405180910390f35b34801561028e57600080fd5b50610297610a60565b005b3480156102a557600080fd5b506102ae610a72565b6040516102bb9190612bf5565b60405180910390f35b3480156102d057600080fd5b506102eb60048036038101906102e691906129d8565b610a89565b005b3480156102f957600080fd5b50610314600480360381019061030f9190612cd8565b610a9b565b005b34801561032257600080fd5b5061032b610c1f565b005b34801561033957600080fd5b50610342610db4565b005b34801561035057600080fd5b50610359610dc6565b6040516103669190612d62565b60405180910390f35b34801561037b57600080fd5b50610384610def565b6040516103919190612b96565b60405180910390f35b3480156103a657600080fd5b506103c160048036038101906103bc9190612da9565b610df5565b6040516103ce9190612bb1565b60405180910390f35b3480156103e357600080fd5b506103fe60048036038101906103f99190612ea3565b610e0d565b60405161040b9190612b96565b60405180910390f35b34801561042057600080fd5b5061043b600480360381019061043691906129d8565b6111e8565b604051610448919061308d565b60405180910390f35b34801561045d57600080fd5b5061046661144a565b6040516104739190612bb1565b60405180910390f35b34801561048857600080fd5b506104a3600480360381019061049e9190612da9565b611450565b005b600560009054906101000a900467ffffffffffffffff1681565b7f000000000000000000000000000000000000000000000000000000000000000073ffffffffffffffffffffffffffffffffffffffff163373ffffffffffffffffffffffffffffffffffffffff1614610544576040517fc6829f8300000000000000000000000000000000000000000000000000000000815260040160405180910390fd5b61054f838383611464565b827f85e1543bf2f84fe80c6badbce3648c8539ad1df4d2b3d822938ca0538be727e660405160405180910390a2505050565b60036020528060005260406000206000915090508060000180546105a4906130de565b80601f01602080910402602001604051908101604052809291908181526020018280546105d0906130de565b801561061d5780601f106105f25761010080835404028352916020019161061d565b820191906000526020600020905b81548152906001019060200180831161060057829003601f168201915b505050505090806001018054610632906130de565b80601f016020809104026020016040519081016040528092919081815260200182805461065e906130de565b80156106ab5780601f10610680576101008083540402835291602001916106ab565b820191906000526020600020905b81548152906001019060200180831161068e57829003601f168201915b5050505050908060020180546106c0906130de565b80601f01602080910402602001604051908101604052809291908181526020018280546106ec906130de565b80156107395780601f1061070e57610100808354040283529160200191610739565b820191906000526020600020905b81548152906001019060200180831161071c57829003601f168201915b5050505050908060030154908060040160009054906101000a900460ff16908060050154905086565b61076a6115a2565b80600560006101000a81548167ffffffffffffffff021916908367ffffffffffffffff16021790555050565b60025481565b610e1081565b6000806000600360008581526020019081526020016000206040518060c00160405290816000820180546107d5906130de565b80601f0160208091040260200160405190810160405280929190818152602001828054610801906130de565b801561084e5780601f106108235761010080835404028352916020019161084e565b820191906000526020600020905b81548152906001019060200180831161083157829003601f168201915b50505050508152602001600182018054610867906130de565b80601f0160208091040260200160405190810160405280929190818152602001828054610893906130de565b80156108e05780601f106108b5576101008083540402835291602001916108e0565b820191906000526020600020905b8154815290600101906020018083116108c357829003601f168201915b505050505081526020016002820180546108f9906130de565b80601f0160208091040260200160405190810160405280929190818152602001828054610925906130de565b80156109725780601f1061094757610100808354040283529160200191610972565b820191906000526020600020905b81548152906001019060200180831161095557829003601f168201915b50505050508152602001600382015481526020016004820160009054906101000a900460ff1615151515815260200160058201548152505090506000816000015151036109f657836040517f587311a80000000000000000000000000000000000000000000000000000000081526004016109ed9190612b96565b60405180910390fd5b610e108160a0015142610a09919061313e565b1115610a4c57836040517f07d1e6ab000000000000000000000000000000000000000000000000000000008152600401610a439190612b96565b60405180910390fd5b80608001518160a001519250925050915091565b610a686115a2565b610a70611632565b565b6000600160149054906101000a900460ff16905090565b610a916115a2565b8060068190555050565b60005b8151811015610c1b57600060036000848481518110610ac057610abf613172565b5b6020026020010151815260200190815260200160002090506000816000018054610ae9906130de565b9050118015610b0757508060040160009054906101000a900460ff16155b8015610b235750610e10816005015442610b21919061313e565b115b15610c0d5780600001604051610b399190613244565b6040518091039020838381518110610b5457610b53613172565b5b60200260200101517f441e87488d9508b039e73ab2adb702b4cb74ee8efedbeb96e99b4e78adc3762860405160405180910390a360036000848481518110610b9f57610b9e613172565b5b6020026020010151815260200190815260200160002060008082016000610bc6919061263e565b600182016000610bd6919061263e565b600282016000610be6919061263e565b60038201600090556004820160006101000a81549060ff0219169055600582016000905550505b508080600101915050610a9e565b5050565b600160009054906101000a900473ffffffffffffffffffffffffffffffffffffffff1673ffffffffffffffffffffffffffffffffffffffff163373ffffffffffffffffffffffffffffffffffffffff1614610caf576040517f08c379a0000000000000000000000000000000000000000000000000000000008152600401610ca6906132a7565b60405180910390fd5b60008060009054906101000a900473ffffffffffffffffffffffffffffffffffffffff169050336000806101000a81548173ffffffffffffffffffffffffffffffffffffffff021916908373ffffffffffffffffffffffffffffffffffffffff1602179055506000600160006101000a81548173ffffffffffffffffffffffffffffffffffffffff021916908373ffffffffffffffffffffffffffffffffffffffff1602179055503373ffffffffffffffffffffffffffffffffffffffff168173ffffffffffffffffffffffffffffffffffffffff167f8be0079c531659141344cd1fd0a4f28419497f9722a3daafe3b4186f6b6457e060405160405180910390a350565b610dbc6115a2565b610dc4611695565b565b60008060009054906101000a900473ffffffffffffffffffffffffffffffffffffffff16905090565b60065481565b60046020528060005260406000206000915090505481565b6000610e176116f7565b6011865114610e5d57856040517fe2ccd97c000000000000000000000000000000000000000000000000000000008152600401610e5491906132c7565b60405180910390fd5b610258600460003373ffffffffffffffffffffffffffffffffffffffff1673ffffffffffffffffffffffffffffffffffffffff1681526020019081526020016000205442610eab919061313e565b1015610f3c5733610258600460003373ffffffffffffffffffffffffffffffffffffffff1673ffffffffffffffffffffffffffffffffffffffff16815260200190815260200160002054610eff91906132e9565b6040517fa7382e9b000000000000000000000000000000000000000000000000000000008152600401610f3392919061331d565b60405180910390fd5b42600460003373ffffffffffffffffffffffffffffffffffffffff1673ffffffffffffffffffffffffffffffffffffffff16815260200190815260200160002081905550610f8861267e565b610f9b838261173890919063ffffffff16565b6000600467ffffffffffffffff811115610fb857610fb7612822565b5b604051908082528060200260200182016040528015610feb57816020015b6060815260200190600190039081610fd65790505b509050878160008151811061100357611002613172565b5b6020026020010181905250868160018151811061102357611022613172565b5b6020026020010181905250858160028151811061104357611042613172565b5b602002602001018190525061105785611749565b8160038151811061106b5761106a613172565b5b6020026020010181905250611089818361181790919063ffffffff16565b60006110ba6110978461185f565b600560009054906101000a900467ffffffffffffffff16620493e0600654611c6f565b9050806002819055506040518060c001604052808a81526020018981526020018881526020018781526020016000151581526020014281525060036000838152602001908152602001600020600082015181600001908161111b91906134dd565b50602082015181600101908161113191906134dd565b50604082015181600201908161114791906134dd565b506060820151816003015560808201518160040160006101000a81548160ff02191690831515021790555060a082015181600501559050503373ffffffffffffffffffffffffffffffffffffffff16896040516111a491906135e0565b6040518091039020827f13ca237172794937f1fb184f8c22655ef88cbe6c2164ef88558a9445b64b807d60405160405180910390a480935050505095945050505050565b6111f06126f0565b6000600360008481526020019081526020016000206040518060c0016040529081600082018054611220906130de565b80601f016020809104026020016040519081016040528092919081815260200182805461124c906130de565b80156112995780601f1061126e57610100808354040283529160200191611299565b820191906000526020600020905b81548152906001019060200180831161127c57829003601f168201915b505050505081526020016001820180546112b2906130de565b80601f01602080910402602001604051908101604052809291908181526020018280546112de906130de565b801561132b5780601f106113005761010080835404028352916020019161132b565b820191906000526020600020905b81548152906001019060200180831161130e57829003601f168201915b50505050508152602001600282018054611344906130de565b80601f0160208091040260200160405190810160405280929190818152602001828054611370906130de565b80156113bd5780601f10611392576101008083540402835291602001916113bd565b820191906000526020600020905b8154815290600101906020018083116113a057829003601f168201915b50505050508152602001600382015481526020016004820160009054906101000a900460ff16151515158152602001600582015481525050905060008160000151510361144157826040517f587311a80000000000000000000000000000000000000000000000000000000081526004016114389190612b96565b60405180910390fd5b80915050919050565b61025881565b6114586115a2565b61146181611d52565b50565b6000815111156114d757600360008481526020019081526020016000206000016040516114919190613244565b6040518091039020837ff42589e0d152d54c83ef9856d3a1bd0a58c63e6b1af9565d804bc5f8aa85c21460006040516114ca9190612bf5565b60405180910390a361159d565b6000828060200190518101906114ed9190613623565b9050806003600086815260200190815260200160002060040160006101000a81548160ff0219169083151502179055504260036000868152602001908152602001600020600501819055506003600085815260200190815260200160002060000160405161155b9190613244565b6040518091039020847ff42589e0d152d54c83ef9856d3a1bd0a58c63e6b1af9565d804bc5f8aa85c214836040516115939190612bf5565b60405180910390a3505b505050565b60008054906101000a900473ffffffffffffffffffffffffffffffffffffffff1673ffffffffffffffffffffffffffffffffffffffff163373ffffffffffffffffffffffffffffffffffffffff1614611630576040517f08c379a00000000000000000000000000000000000000000000000000000000081526004016116279061369c565b60405180910390fd5b565b61163a611e7e565b6000600160146101000a81548160ff0219169083151502179055507f5db9ee0a495bf2e6ff9c91a7834c1ba4fdd244a5e8aa4e537bd38aeae4b073aa61167e611ebe565b60405161168b9190612d62565b60405180910390a1565b61169d6116f7565b60018060146101000a81548160ff0219169083151502179055507f62e78cea01bee320cd4e420270b5ea74000d11b0c9f74754ebdbfc544b05a2586116e0611ebe565b6040516116ed9190612d62565b60405180910390a1565b6116ff610a72565b15611736576040517fd93c066500000000000000000000000000000000000000000000000000000000815260040160405180910390fd5b565b6117458260008084611ec6565b5050565b60606000600161175884611f70565b01905060008167ffffffffffffffff81111561177757611776612822565b5b6040519080825280601f01601f1916602001820160405280156117a95781602001600182028036833780820191505090505b509050600082602001820190505b60011561180c578080600190039150507f3031323334353637383961626364656600000000000000000000000000000000600a86061a8153600a8581611800576117ff6136bc565b5b049450600085036117b7575b819350505050919050565b6000815103611852576040517ffe936cb700000000000000000000000000000000000000000000000000000000815260040160405180910390fd5b808260a001819052505050565b6060600061186e6101006120c3565b90506118b86040518060400160405280600c81526020017f636f64654c6f636174696f6e0000000000000000000000000000000000000000815250826120ea90919063ffffffff16565b6118e1836000015160028111156118d2576118d16136eb565b5b8261211390919063ffffffff16565b6119296040518060400160405280600881526020017f6c616e6775616765000000000000000000000000000000000000000000000000815250826120ea90919063ffffffff16565b61195283604001516000811115611943576119426136eb565b5b8261211390919063ffffffff16565b61199a6040518060400160405280600681526020017f736f757263650000000000000000000000000000000000000000000000000000815250826120ea90919063ffffffff16565b6119b18360600151826120ea90919063ffffffff16565b60008360a00151511115611a6757611a076040518060400160405280600481526020017f6172677300000000000000000000000000000000000000000000000000000000815250826120ea90919063ffffffff16565b611a1081612163565b60005b8360a0015151811015611a5c57611a518460a001518281518110611a3a57611a39613172565b5b6020026020010151836120ea90919063ffffffff16565b806001019050611a13565b50611a668161218b565b5b60008360800151511115611ba85760006002811115611a8957611a886136eb565b5b83602001516002811115611aa057611a9f6136eb565b5b03611ad7576040517fa80d31f700000000000000000000000000000000000000000000000000000000815260040160405180910390fd5b611b1f6040518060400160405280600f81526020017f736563726574734c6f636174696f6e0000000000000000000000000000000000815250826120ea90919063ffffffff16565b611b4883602001516002811115611b3957611b386136eb565b5b8261211390919063ffffffff16565b611b906040518060400160405280600781526020017f7365637265747300000000000000000000000000000000000000000000000000815250826120ea90919063ffffffff16565b611ba78360800151826121b390919063ffffffff16565b5b60008360c00151511115611c5e57611bfe6040518060400160405280600981526020017f6279746573417267730000000000000000000000000000000000000000000000815250826120ea90919063ffffffff16565b611c0781612163565b60005b8360c0015151811015611c5357611c488460c001518281518110611c3157611c30613172565b5b6020026020010151836121b390919063ffffffff16565b806001019050611c0a565b50611c5d8161218b565b5b806000015160000151915050919050565b6000807f000000000000000000000000000000000000000000000000000000000000000073ffffffffffffffffffffffffffffffffffffffff1663461d27628688600188886040518663ffffffff1660e01b8152600401611cd49594939291906137ab565b6020604051808303816000875af1158015611cf3573d6000803e3d6000fd5b505050506040513d601f19601f82011682018060405250810190611d17919061381a565b9050807f1131472297a800fee664d1d89cfa8f7676ff07189ecc53f80bbb5f4969099db860405160405180910390a280915050949350505050565b3373ffffffffffffffffffffffffffffffffffffffff168173ffffffffffffffffffffffffffffffffffffffff1603611dc0576040517f08c379a0000000000000000000000000000000000000000000000000000000008152600401611db790613893565b60405180910390fd5b80600160006101000a81548173ffffffffffffffffffffffffffffffffffffffff021916908373ffffffffffffffffffffffffffffffffffffffff1602179055508073ffffffffffffffffffffffffffffffffffffffff1660008054906101000a900473ffffffffffffffffffffffffffffffffffffffff1673ffffffffffffffffffffffffffffffffffffffff167fed8889f560326eb138920d842192f0eb3dd22b4f139c87a2c57538e05bae127860405160405180910390a350565b611e86610a72565b611ebc576040517f8dfc202b00000000000000000000000000000000000000000000000000000000815260040160405180910390fd5b565b600033905090565b6000815103611f01576040517f22ce3edd00000000000000000000000000000000000000000000000000000000815260040160405180910390fd5b8284600001906002811115611f1957611f186136eb565b5b90816002811115611f2d57611f2c6136eb565b5b815250508184604001906000811115611f4957611f486136eb565b5b90816000811115611f5d57611f5c6136eb565b5b8152505080846060018190525050505050565b600080600090507a184f03e93ff9f4daa797ed6e38ed64bf6a1f0100000000000000008310611fce577a184f03e93ff9f4daa797ed6e38ed64bf6a1f0100000000000000008381611fc457611fc36136bc565b5b0492506040810190505b6d04ee2d6d415b85acef8100000000831061200b576d04ee2d6d415b85acef81000000008381612001576120006136bc565b5b0492506020810190505b662386f26fc10000831061203a57662386f26fc1000083816120305761202f6136bc565b5b0492506010810190505b6305f5e1008310612063576305f5e1008381612059576120586136bc565b5b0492506008810190505b612710831061208857612710838161207e5761207d6136bc565b5b0492506004810190505b606483106120ab57606483816120a1576120a06136bc565b5b0492506002810190505b600a83106120ba576001810190505b80915050919050565b6120cb612728565b6120d98160000151836121dc565b506000816020018181525050919050565b6120f78260038351612255565b61210e8183600001516123fe90919063ffffffff16565b505050565b61213560026005600660ff16901b17836000015161241a90919063ffffffff16565b5061215f828260405160200161214b9190612bb1565b6040516020818303038152906040526121b3565b5050565b61216e816004612484565b60018160200181815161218191906132e9565b9150818152505050565b612196816007612484565b6001816020018181516121a9919061313e565b9150818152505050565b6121c08260028351612255565b6121d78183600001516123fe90919063ffffffff16565b505050565b6121e4612748565b60006020836121f391906138b3565b1461221f5760208261220591906138b3565b6020612211919061313e565b8261221c91906132e9565b91505b81836020018181525050604051808452600081528281016020018181101561224657600080fd5b80604052505082905092915050565b60178167ffffffffffffffff16116122905761228a8160058460ff16901b60ff1617846000015161241a90919063ffffffff16565b506123f9565b60ff8167ffffffffffffffff16116122ee576122c3601860058460ff16901b17846000015161241a90919063ffffffff16565b506122e88167ffffffffffffffff16600185600001516124aa9092919063ffffffff16565b506123f8565b61ffff8167ffffffffffffffff161161234d57612322601960058460ff16901b17846000015161241a90919063ffffffff16565b506123478167ffffffffffffffff16600285600001516124aa9092919063ffffffff16565b506123f7565b63ffffffff8167ffffffffffffffff16116123ae57612383601a60058460ff16901b17846000015161241a90919063ffffffff16565b506123a88167ffffffffffffffff16600485600001516124aa9092919063ffffffff16565b506123f6565b6123cf601b60058460ff16901b17846000015161241a90919063ffffffff16565b506123f48167ffffffffffffffff16600885600001516124aa9092919063ffffffff16565b505b5b5b5b505050565b612406612748565b61241283838451612537565b905092915050565b612422612748565b60008360000151519050600060018261243b91906132e9565b90508460200151821061245f5761245e8560028361245991906138e4565b61261a565b5b84516020838201018581538151831115612477578282525b5050849250505092915050565b6124a5601f60058360ff16901b17836000015161241a90919063ffffffff16565b505050565b6124b2612748565b60008460000151519050600081846124ca91906132e9565b905085602001518111156124ef576124ee866002836124e991906138e4565b61261a565b5b60006001856101006125019190613a59565b61250b919061313e565b905086518281018783198251161781528151841115612528578382525b50508693505050509392505050565b61253f612748565b825182111561254d57600080fd5b600084600001515190506000838261256591906132e9565b9050856020015181111561258a576125898660028361258491906138e4565b61261a565b5b600080875180518560208301019350808511156125a5578482525b60208901925050505b602086106125ec57805182526020826125c791906132e9565b91506020816125d691906132e9565b90506020866125e5919061313e565b95506125ae565b60006001876020036101000a0390508019825116818451168181178552505050879450505050509392505050565b60008260000151905061262d83836121dc565b5061263883826123fe565b50505050565b50805461264a906130de565b6000825580601f1061265c575061267b565b601f01602090049060005260206000209081019061267a9190612762565b5b50565b6040518060e001604052806000600281111561269d5761269c6136eb565b5b8152602001600060028111156126b6576126b56136eb565b5b81526020016000808111156126ce576126cd6136eb565b5b8152602001606081526020016060815260200160608152602001606081525090565b6040518060c0016040528060608152602001606081526020016060815260200160008152602001600015158152602001600081525090565b604051806040016040528061273b612748565b8152602001600081525090565b604051806040016040528060608152602001600081525090565b5b8082111561277b576000816000905550600101612763565b5090565b600067ffffffffffffffff82169050919050565b61279c8161277f565b82525050565b60006020820190506127b76000830184612793565b92915050565b6000604051905090565b600080fd5b600080fd5b6000819050919050565b6127e4816127d1565b81146127ef57600080fd5b50565b600081359050612801816127db565b92915050565b600080fd5b600080fd5b6000601f19601f8301169050919050565b7f4e487b7100000000000000000000000000000000000000000000000000000000600052604160045260246000fd5b61285a82612811565b810181811067ffffffffffffffff8211171561287957612878612822565b5b80604052505050565b600061288c6127bd565b90506128988282612851565b919050565b600067ffffffffffffffff8211156128b8576128b7612822565b5b6128c182612811565b9050602081019050919050565b82818337600083830152505050565b60006128f06128eb8461289d565b612882565b90508281526020810184848401111561290c5761290b61280c565b5b6129178482856128ce565b509392505050565b600082601f83011261293457612933612807565b5b81356129448482602086016128dd565b91505092915050565b600080600060608486031215612966576129656127c7565b5b6000612974868287016127f2565b935050602084013567ffffffffffffffff811115612995576129946127cc565b5b6129a18682870161291f565b925050604084013567ffffffffffffffff8111156129c2576129c16127cc565b5b6129ce8682870161291f565b9150509250925092565b6000602082840312156129ee576129ed6127c7565b5b60006129fc848285016127f2565b91505092915050565b600081519050919050565b600082825260208201905092915050565b60005b83811015612a3f578082015181840152602081019050612a24565b60008484015250505050565b6000612a5682612a05565b612a608185612a10565b9350612a70818560208601612a21565b612a7981612811565b840191505092915050565b6000819050919050565b612a9781612a84565b82525050565b60008115159050919050565b612ab281612a9d565b82525050565b600060c0820190508181036000830152612ad28189612a4b565b90508181036020830152612ae68188612a4b565b90508181036040830152612afa8187612a4b565b9050612b096060830186612a8e565b612b166080830185612aa9565b612b2360a0830184612a8e565b979650505050505050565b612b378161277f565b8114612b4257600080fd5b50565b600081359050612b5481612b2e565b92915050565b600060208284031215612b7057612b6f6127c7565b5b6000612b7e84828501612b45565b91505092915050565b612b90816127d1565b82525050565b6000602082019050612bab6000830184612b87565b92915050565b6000602082019050612bc66000830184612a8e565b92915050565b6000604082019050612be16000830185612aa9565b612bee6020830184612a8e565b9392505050565b6000602082019050612c0a6000830184612aa9565b92915050565b600067ffffffffffffffff821115612c2b57612c2a612822565b5b602082029050602081019050919050565b600080fd5b6000612c54612c4f84612c10565b612882565b90508083825260208201905060208402830185811115612c7757612c76612c3c565b5b835b81811015612ca05780612c8c88826127f2565b845260208401935050602081019050612c79565b5050509392505050565b600082601f830112612cbf57612cbe612807565b5b8135612ccf848260208601612c41565b91505092915050565b600060208284031215612cee57612ced6127c7565b5b600082013567ffffffffffffffff811115612d0c57612d0b6127cc565b5b612d1884828501612caa565b91505092915050565b600073ffffffffffffffffffffffffffffffffffffffff82169050919050565b6000612d4c82612d21565b9050919050565b612d5c81612d41565b82525050565b6000602082019050612d776000830184612d53565b92915050565b612d8681612d41565b8114612d9157600080fd5b50565b600081359050612da381612d7d565b92915050565b600060208284031215612dbf57612dbe6127c7565b5b6000612dcd84828501612d94565b91505092915050565b600067ffffffffffffffff821115612df157612df0612822565b5b612dfa82612811565b9050602081019050919050565b6000612e1a612e1584612dd6565b612882565b905082815260208101848484011115612e3657612e3561280c565b5b612e418482856128ce565b509392505050565b600082601f830112612e5e57612e5d612807565b5b8135612e6e848260208601612e07565b91505092915050565b612e8081612a84565b8114612e8b57600080fd5b50565b600081359050612e9d81612e77565b92915050565b600080600080600060a08688031215612ebf57612ebe6127c7565b5b600086013567ffffffffffffffff811115612edd57612edc6127cc565b5b612ee988828901612e49565b955050602086013567ffffffffffffffff811115612f0a57612f096127cc565b5b612f1688828901612e49565b945050604086013567ffffffffffffffff811115612f3757612f366127cc565b5b612f4388828901612e49565b9350506060612f5488828901612e8e565b925050608086013567ffffffffffffffff811115612f7557612f746127cc565b5b612f8188828901612e49565b9150509295509295909350565b600082825260208201905092915050565b6000612faa82612a05565b612fb48185612f8e565b9350612fc4818560208601612a21565b612fcd81612811565b840191505092915050565b612fe181612a84565b82525050565b612ff081612a9d565b82525050565b600060c08301600083015184820360008601526130138282612f9f565b9150506020830151848203602086015261302d8282612f9f565b915050604083015184820360408601526130478282612f9f565b915050606083015161305c6060860182612fd8565b50608083015161306f6080860182612fe7565b5060a083015161308260a0860182612fd8565b508091505092915050565b600060208201905081810360008301526130a78184612ff6565b905092915050565b7f4e487b7100000000000000000000000000000000000000000000000000000000600052602260045260246000fd5b600060028204905060018216806130f657607f821691505b602082108103613109576131086130af565b5b50919050565b7f4e487b7100000000000000000000000000000000000000000000000000000000600052601160045260246000fd5b600061314982612a84565b915061315483612a84565b925082820390508181111561316c5761316b61310f565b5b92915050565b7f4e487b7100000000000000000000000000000000000000000000000000000000600052603260045260246000fd5b600081905092915050565b60008190508160005260206000209050919050565b600081546131ce816130de565b6131d881866131a1565b945060018216600081146131f357600181146132085761323b565b60ff198316865281151582028601935061323b565b613211856131ac565b60005b8381101561323357815481890152600182019150602081019050613214565b838801955050505b50505092915050565b600061325082846131c1565b915081905092915050565b7f4d7573742062652070726f706f736564206f776e657200000000000000000000600082015250565b6000613291601683612a10565b915061329c8261325b565b602082019050919050565b600060208201905081810360008301526132c081613284565b9050919050565b600060208201905081810360008301526132e18184612a4b565b905092915050565b60006132f482612a84565b91506132ff83612a84565b92508282019050808211156133175761331661310f565b5b92915050565b60006040820190506133326000830185612d53565b61333f6020830184612a8e565b9392505050565b60006020601f8301049050919050565b600082821b905092915050565b6000600883026133937fffffffffffffffffffffffffffffffffffffffffffffffffffffffffffffffff82613356565b61339d8683613356565b95508019841693508086168417925050509392505050565b6000819050919050565b60006133da6133d56133d084612a84565b6133b5565b612a84565b9050919050565b6000819050919050565b6133f4836133bf565b613408613400826133e1565b848454613363565b825550505050565b600090565b61341d613410565b6134288184846133eb565b505050565b5b8181101561344c57613441600082613415565b60018101905061342e565b5050565b601f82111561349157613462816131ac565b61346b84613346565b8101602085101561347a578190505b61348e61348685613346565b83018261342d565b50505b505050565b600082821c905092915050565b60006134b460001984600802613496565b1980831691505092915050565b60006134cd83836134a3565b9150826002028217905092915050565b6134e682612a05565b67ffffffffffffffff8111156134ff576134fe612822565b5b61350982546130de565b613514828285613450565b600060209050601f8311600181146135475760008415613535578287015190505b61353f85826134c1565b8655506135a7565b601f198416613555866131ac565b60005b8281101561357d57848901518255600182019150602085019450602081019050613558565b8683101561359a5784890151613596601f8916826134a3565b8355505b6001600288020188555050505b505050505050565b60006135ba82612a05565b6135c481856131a1565b93506135d4818560208601612a21565b80840191505092915050565b60006135ec82846135af565b915081905092915050565b61360081612a9d565b811461360b57600080fd5b50565b60008151905061361d816135f7565b92915050565b600060208284031215613639576136386127c7565b5b60006136478482850161360e565b91505092915050565b7f4f6e6c792063616c6c61626c65206279206f776e657200000000000000000000600082015250565b6000613686601683612a10565b915061369182613650565b602082019050919050565b600060208201905081810360008301526136b581613679565b9050919050565b7f4e487b7100000000000000000000000000000000000000000000000000000000600052601260045260246000fd5b7f4e487b7100000000000000000000000000000000000000000000000000000000600052602160045260246000fd5b600081519050919050565b600082825260208201905092915050565b60006137418261371a565b61374b8185613725565b935061375b818560208601612a21565b61376481612811565b840191505092915050565b600061ffff82169050919050565b6137868161376f565b82525050565b600063ffffffff82169050919050565b6137a58161378c565b82525050565b600060a0820190506137c06000830188612793565b81810360208301526137d28187613736565b90506137e1604083018661377d565b6137ee606083018561379c565b6137fb6080830184612b87565b9695505050505050565b600081519050613814816127db565b92915050565b6000602082840312156138305761382f6127c7565b5b600061383e84828501613805565b91505092915050565b7f43616e6e6f74207472616e7366657220746f2073656c66000000000000000000600082015250565b600061387d601783612a10565b915061388882613847565b602082019050919050565b600060208201905081810360008301526138ac81613870565b9050919050565b60006138be82612a84565b91506138c983612a84565b9250826138d9576138d86136bc565b5b828206905092915050565b60006138ef82612a84565b91506138fa83612a84565b925082820261390881612a84565b9150828204841483151761391f5761391e61310f565b5b5092915050565b60008160011c9050919050565b6000808291508390505b600185111561397d578086048111156139595761395861310f565b5b60018516156139685780820291505b808102905061397685613926565b945061393d565b94509492505050565b6000826139965760019050613a52565b816139a45760009050613a52565b81600181146139ba57600281146139c4576139f3565b6001915050613a52565b60ff8411156139d6576139d561310f565b5b8360020a9150848211156139ed576139ec61310f565b5b50613a52565b5060208310610133831016604e8410600b8410161715613a285782820a905083811115613a2357613a2261310f565b5b613a52565b613a358484846001613933565b92509050818404811115613a4c57613a4b61310f565b5b81810290505b9392505050565b6000613a6482612a84565b9150613a6f83612a84565b9250613a9c7fffffffffffffffffffffffffffffffffffffffffffffffffffffffffffffffff8484613986565b90509291505056fea2646970667358221220a6873a4569811864d1fa6b81e3480d8482138c2c810e6b6cbff33dda0450be0464736f6c63430008180033",
  "linkReferences": {},
  "deployedLinkReferences": {}
}