{
  "_format": "hh-sol-artifact-1",
  "contractName": "CarVerificationOracle",
  "sourceName": "contracts/CarVerificationOracle.sol",
  "abi": [
    {
      "inputs": [
        {
          "internalType": "address",
          "name": "router",
          "type": "address"
        }
      ],
      "stateMutability": "nonpayable",
      "type": "constructor"
    },
    {
      "inputs": [],
      "name": "EmptyArgs",
      "type": "error"
    },
    {
      "inputs": [],
      "name": "EmptySource",
      "type": "error"
    },
    {
      "inputs": [],
      "name": "EnforcedPause",
      "type": "error"
    },
    {
      "inputs": [],
      "name": "ExpectedPause",
      "type": "error"
    },
    {
      "inputs": [
        {
          "internalType": "string",
          "name": "vin",
          "type": "string"
        }
      ],
      "name": "InvalidVIN",
      "type": "error"
    },
    {
      "inputs": [],
      "name": "NoInlineSecrets",
      "type": "error"
    },
    {
      "inputs": [],
      "name": "OnlyRouterCanFulfill",
      "type": "error"
    },
    {
      "inputs": [
        {
          "internalType": "bytes32",
          "name": "requestId",
          "type": "bytes32"
        }
      ],
      "name": "VerificationNotFound",
      "type": "error"
    },
    {
      "anonymous": false,
      "inputs": [
        {
          "indexed": true,
          "internalType": "address",
          "name": "from",
          "type": "address"
        },
        {
          "indexed": true,
          "internalType": "address",
          "name": "to",
          "type": "address"
        }
      ],
      "name": "OwnershipTransferRequested",
      "type": "event"
    },
    {
      "anonymous": false,
      "inputs": [
        {
          "indexed": true,
          "internalType": "address",
          "name": "from",
          "type": "address"
        },
        {
          "indexed": true,
          "internalType": "address",
          "name": "to",
          "type": "address"
        }
      ],
      "name": "OwnershipTransferred",
      "type": "event"
    },
    {
      "anonymous": false,
      "inputs": [
        {
          "indexed": false,
          "internalType": "address",
          "name": "account",
          "type": "address"
        }
      ],
      "name": "Paused",
      "type": "event"
    },
    {
      "anonymous": false,
      "inputs": [
        {
          "indexed": true,
          "internalType": "bytes32",
          "name": "id",
          "type": "bytes32"
        }
      ],
      "name": "RequestFulfilled",
      "type": "event"
    },
    {
      "anonymous": false,
      "inputs": [
        {
          "indexed": true,
          "internalType": "bytes32",
          "name": "id",
          "type": "bytes32"
        }
      ],
      "name": "RequestSent",
      "type": "event"
    },
    {
      "anonymous": false,
      "inputs": [
        {
          "indexed": false,
          "internalType": "address",
          "name": "account",
          "type": "address"
        }
      ],
      "name": "Unpaused",
      "type": "event"
    },
    {
      "anonymous": false,
      "inputs": [
        {
          "indexed": true,
          "internalType": "bytes32",
          "name": "requestId",
          "type": "bytes32"
        },
        {
          "indexed": true,
          "internalType": "string",
          "name": "vin",
          "type": "string"
        },
        {
          "indexed": false,
          "internalType": "bool",
          "name": "isVerified",
          "type": "bool"
        }
      ],
      "name": "VerificationFulfilled",
      "type": "event"
    },
    {
      "anonymous": false,
      "inputs": [
        {
          "indexed": true,
          "internalType": "bytes32",
          "name": "requestId",
          "type": "bytes32"
        },
        {
          "indexed": true,
          "internalType": "string",
          "name": "vin",
          "type": "string"
        },
        {
          "indexed": true,
          "internalType": "address",
          "name": "requester",
          "type": "address"
        }
      ],
      "name": "VerificationRequested",
      "type": "event"
    },
    {
      "inputs": [],
      "name": "acceptOwnership",
      "outputs": [],
      "stateMutability": "nonpayable",
      "type": "function"
    },
    {
      "inputs": [
        {
          "internalType": "bytes32",
          "name": "requestId",
          "type": "bytes32"
        }
      ],
      "name": "doesRequestExist",
      "outputs": [
        {
          "internalType": "bool",
          "name": "",
          "type": "bool"
        }
      ],
      "stateMutability": "view",
      "type": "function"
    },
    {
      "inputs": [],
      "name": "donId",
      "outputs": [
        {
          "internalType": "bytes32",
          "name": "",
          "type": "bytes32"
        }
      ],
      "stateMutability": "view",
      "type": "function"
    },
    {
      "inputs": [
        {
          "internalType": "bytes32",
          "name": "requestId",
          "type": "bytes32"
        }
      ],
      "name": "getCarDetails",
      "outputs": [
        {
          "components": [
            {
              "internalType": "string",
              "name": "vin",
              "type": "string"
            },
            {
              "internalType": "string",
              "name": "make",
              "type": "string"
            },
            {
              "internalType": "string",
              "name": "model",
              "type": "string"
            },
            {
              "internalType": "uint256",
              "name": "year",
              "type": "uint256"
            },
            {
              "internalType": "bool",
              "name": "isVerified",
              "type": "bool"
            },
            {
              "internalType": "uint256",
              "name": "verificationTimestamp",
              "type": "uint256"
            }
          ],
          "internalType": "struct CarVerificationOracle.CarDetails",
          "name": "",
          "type": "tuple"
        }
      ],
      "stateMutability": "view",
      "type": "function"
    },
    {
      "inputs": [
        {
          "internalType": "bytes32",
          "name": "requestId",
          "type": "bytes32"
        }
      ],
      "name": "getRawResponseBytes",
      "outputs": [
        {
          "internalType": "bytes",
          "name": "",
          "type": "bytes"
        }
      ],
      "stateMutability": "view",
      "type": "function"
    },
    {
      "inputs": [
        {
          "internalType": "bytes32",
          "name": "requestId",
          "type": "bytes32"
        },
        {
          "internalType": "bytes",
          "name": "response",
          "type": "bytes"
        },
        {
          "internalType": "bytes",
          "name": "err",
          "type": "bytes"
        }
      ],
      "name": "handleOracleFulfillment",
      "outputs": [],
      "stateMutability": "nonpayable",
      "type": "function"
    },
    {
      "inputs": [
        {
          "internalType": "bytes32",
          "name": "requestId",
          "type": "bytes32"
        }
      ],
      "name": "isResponseReceived",
      "outputs": [
        {
          "internalType": "bool",
          "name": "",
          "type": "bool"
        }
      ],
      "stateMutability": "view",
      "type": "function"
    },
    {
      "inputs": [],
      "name": "latestRequestId",
      "outputs": [
        {
          "internalType": "bytes32",
          "name": "",
          "type": "bytes32"
        }
      ],
      "stateMutability": "view",
      "type": "function"
    },
    {
      "inputs": [],
      "name": "owner",
      "outputs": [
        {
          "internalType": "address",
          "name": "",
          "type": "address"
        }
      ],
      "stateMutability": "view",
      "type": "function"
    },
    {
      "inputs": [],
      "name": "pause",
      "outputs": [],
      "stateMutability": "nonpayable",
      "type": "function"
    },
    {
      "inputs": [],
      "name": "paused",
      "outputs": [
        {
          "internalType": "bool",
          "name": "",
          "type": "bool"
        }
      ],
      "stateMutability": "view",
      "type": "function"
    },
    {
      "inputs": [
        {
          "internalType": "string",
          "name": "vin",
          "type": "string"
        },
        {
          "internalType": "string",
          "name": "make",
          "type": "string"
        },
        {
          "internalType": "string",
          "name": "model",
          "type": "string"
        },
        {
          "internalType": "uint256",
          "name": "year",
          "type": "uint256"
        },
        {
          "internalType": "string",
          "name": "source",
          "type": "string"
        }
      ],
      "name": "requestCarValidation",
      "outputs": [
        {
          "internalType": "bytes32",
          "name": "",
          "type": "bytes32"
        }
      ],
      "stateMutability": "nonpayable",
      "type": "function"
    },
    {
      "inputs": [],
      "name": "subscriptionId",
      "outputs": [
        {
          "internalType": "uint64",
          "name": "",
          "type": "uint64"
        }
      ],
      "stateMutability": "view",
      "type": "function"
    },
    {
      "inputs": [
        {
          "internalType": "address",
          "name": "to",
          "type": "address"
        }
      ],
      "name": "transferOwnership",
      "outputs": [],
      "stateMutability": "nonpayable",
      "type": "function"
    },
    {
      "inputs": [],
      "name": "unpause",
      "outputs": [],
      "stateMutability": "nonpayable",
      "type": "function"
    },
    {
      "inputs": [
        {
          "internalType": "bytes32",
          "name": "newDonId",
          "type": "bytes32"
        }
      ],
      "name": "updateDonId",
      "outputs": [],
      "stateMutability": "nonpayable",
      "type": "function"
    },
    {
      "inputs": [
        {
          "internalType": "uint64",
          "name": "newSubscriptionId",
          "type": "uint64"
        }
      ],
      "name": "updateSubscriptionId",
      "outputs": [],
      "stateMutability": "nonpayable",
      "type": "function"
    },
    {
      "inputs": [
        {
          "internalType": "bytes32",
          "name": "",
          "type": "bytes32"
        }
      ],
      "name": "verifications",
      "outputs": [
        {
          "internalType": "string",
          "name": "vin",
          "type": "string"
        },
        {
          "internalType": "string",
          "name": "make",
          "type": "string"
        },
        {
          "internalType": "string",
          "name": "model",
          "type": "string"
        },
        {
          "internalType": "uint256",
          "name": "year",
          "type": "uint256"
        },
        {
          "internalType": "bool",
          "name": "isVerified",
          "type": "bool"
        },
        {
          "internalType": "uint256",
          "name": "verificationTimestamp",
          "type": "uint256"
        }
      ],
      "stateMutability": "view",
      "type": "function"
    },
    {
      "stateMutability": "payable",
      "type": "receive"
    }
  ],
  "bytecode": "0x60a06040523480156200001157600080fd5b50604051620039af380380620039af83398181016040528101906200003791906200037c565b33806000838073ffffffffffffffffffffffffffffffffffffffff1660808173ffffffffffffffffffffffffffffffffffffffff168152505050600073ffffffffffffffffffffffffffffffffffffffff168273ffffffffffffffffffffffffffffffffffffffff1603620000e3576040517f08c379a0000000000000000000000000000000000000000000000000000000008152600401620000da906200040f565b60405180910390fd5b816000806101000a81548173ffffffffffffffffffffffffffffffffffffffff021916908373ffffffffffffffffffffffffffffffffffffffff160217905550600073ffffffffffffffffffffffffffffffffffffffff168173ffffffffffffffffffffffffffffffffffffffff16146200016a576200016981620001e360201b60201c565b5b5050506000600160146101000a81548160ff02191690831515021790555060c9600560006101000a81548167ffffffffffffffff021916908367ffffffffffffffff1602179055507f66756e2d626173652d7365706f6c69612d31000000000000000000000000000060001b60068190555050620004a3565b3373ffffffffffffffffffffffffffffffffffffffff168173ffffffffffffffffffffffffffffffffffffffff160362000254576040517f08c379a00000000000000000000000000000000000000000000000000000000081526004016200024b9062000481565b60405180910390fd5b80600160006101000a81548173ffffffffffffffffffffffffffffffffffffffff021916908373ffffffffffffffffffffffffffffffffffffffff1602179055508073ffffffffffffffffffffffffffffffffffffffff1660008054906101000a900473ffffffffffffffffffffffffffffffffffffffff1673ffffffffffffffffffffffffffffffffffffffff167fed8889f560326eb138920d842192f0eb3dd22b4f139c87a2c57538e05bae127860405160405180910390a350565b600080fd5b600073ffffffffffffffffffffffffffffffffffffffff82169050919050565b6000620003448262000317565b9050919050565b620003568162000337565b81146200036257600080fd5b50565b60008151905062000376816200034b565b92915050565b60006020828403121562000395576200039462000312565b5b6000620003a58482850162000365565b91505092915050565b600082825260208201905092915050565b7f43616e6e6f7420736574206f776e657220746f207a65726f0000000000000000600082015250565b6000620003f7601883620003ae565b91506200040482620003bf565b602082019050919050565b600060208201905081810360008301526200042a81620003e8565b9050919050565b7f43616e6e6f74207472616e7366657220746f2073656c66000000000000000000600082015250565b600062000469601783620003ae565b9150620004768262000431565b602082019050919050565b600060208201905081810360008301526200049c816200045a565b9050919050565b6080516134e9620004c660003960008181610468015261174d01526134e96000f3fe60806040526004361061010d5760003560e01c806379ba5097116100955780639d4200ef116100645780639d4200ef1461032f5780639d8656801461036c578063e27cb49a146103a9578063e74481c8146103e6578063f2fde38b1461042357610114565b806379ba5097146102ab5780638456cb59146102c25780638da5cb5b146102d95780638dbe7b9d1461030457610114565b80631aa46f59116100dc5780631aa46f59146101d85780631ff84a6a146102035780633f4ba83a146102405780635c975abb146102575780636df0c7471461028257610114565b806309c1ba2e146101195780630ca761751461014457806310c74e161461016d57806314b1dd1b146101af57610114565b3661011457005b600080fd5b34801561012557600080fd5b5061012e61044c565b60405161013b919061221e565b60405180910390f35b34801561015057600080fd5b5061016b600480360381019061016691906123c9565b610466565b005b34801561017957600080fd5b50610194600480360381019061018f9190612454565b610528565b6040516101a696959493929190612534565b60405180910390f35b3480156101bb57600080fd5b506101d660048036038101906101d191906125d6565b610709565b005b3480156101e457600080fd5b506101ed61073d565b6040516101fa9190612612565b60405180910390f35b34801561020f57600080fd5b5061022a60048036038101906102259190612454565b610743565b604051610237919061262d565b60405180910390f35b34801561024c57600080fd5b5061025561076e565b005b34801561026357600080fd5b5061026c610780565b604051610279919061262d565b60405180910390f35b34801561028e57600080fd5b506102a960048036038101906102a49190612454565b610797565b005b3480156102b757600080fd5b506102c06107a9565b005b3480156102ce57600080fd5b506102d761093e565b005b3480156102e557600080fd5b506102ee610950565b6040516102fb9190612689565b60405180910390f35b34801561031057600080fd5b50610319610979565b6040516103269190612612565b60405180910390f35b34801561033b57600080fd5b5061035660048036038101906103519190612771565b61097f565b6040516103639190612612565b60405180910390f35b34801561037857600080fd5b50610393600480360381019061038e9190612454565b610c37565b6040516103a0919061295b565b60405180910390f35b3480156103b557600080fd5b506103d060048036038101906103cb9190612454565b610e99565b6040516103dd91906129d2565b60405180910390f35b3480156103f257600080fd5b5061040d60048036038101906104089190612454565b610f3e565b60405161041a919061262d565b60405180910390f35b34801561042f57600080fd5b5061044a60048036038101906104459190612a20565b610f69565b005b600560009054906101000a900467ffffffffffffffff1681565b7f000000000000000000000000000000000000000000000000000000000000000073ffffffffffffffffffffffffffffffffffffffff163373ffffffffffffffffffffffffffffffffffffffff16146104eb576040517fc6829f8300000000000000000000000000000000000000000000000000000000815260040160405180910390fd5b6104f6838383610f7d565b827f85e1543bf2f84fe80c6badbce3648c8539ad1df4d2b3d822938ca0538be727e660405160405180910390a2505050565b600360205280600052604060002060009150905080600001805461054b90612a7c565b80601f016020809104026020016040519081016040528092919081815260200182805461057790612a7c565b80156105c45780601f10610599576101008083540402835291602001916105c4565b820191906000526020600020905b8154815290600101906020018083116105a757829003601f168201915b5050505050908060010180546105d990612a7c565b80601f016020809104026020016040519081016040528092919081815260200182805461060590612a7c565b80156106525780601f1061062757610100808354040283529160200191610652565b820191906000526020600020905b81548152906001019060200180831161063557829003601f168201915b50505050509080600201805461066790612a7c565b80601f016020809104026020016040519081016040528092919081815260200182805461069390612a7c565b80156106e05780601f106106b5576101008083540402835291602001916106e0565b820191906000526020600020905b8154815290600101906020018083116106c357829003601f168201915b5050505050908060030154908060040160009054906101000a900460ff16908060050154905086565b61071161107b565b80600560006101000a81548167ffffffffffffffff021916908367ffffffffffffffff16021790555050565b60025481565b60008060046000848152602001908152602001600020805461076490612a7c565b9050119050919050565b61077661107b565b61077e61110b565b565b6000600160149054906101000a900460ff16905090565b61079f61107b565b8060068190555050565b600160009054906101000a900473ffffffffffffffffffffffffffffffffffffffff1673ffffffffffffffffffffffffffffffffffffffff163373ffffffffffffffffffffffffffffffffffffffff1614610839576040517f08c379a000000000000000000000000000000000000000000000000000000000815260040161083090612af9565b60405180910390fd5b60008060009054906101000a900473ffffffffffffffffffffffffffffffffffffffff169050336000806101000a81548173ffffffffffffffffffffffffffffffffffffffff021916908373ffffffffffffffffffffffffffffffffffffffff1602179055506000600160006101000a81548173ffffffffffffffffffffffffffffffffffffffff021916908373ffffffffffffffffffffffffffffffffffffffff1602179055503373ffffffffffffffffffffffffffffffffffffffff168173ffffffffffffffffffffffffffffffffffffffff167f8be0079c531659141344cd1fd0a4f28419497f9722a3daafe3b4186f6b6457e060405160405180910390a350565b61094661107b565b61094e61116e565b565b60008060009054906101000a900473ffffffffffffffffffffffffffffffffffffffff16905090565b60065481565b60006109896111d0565b60118651146109cf57856040517fe2ccd97c0000000000000000000000000000000000000000000000000000000081526004016109c69190612b19565b60405180910390fd5b6109d7612117565b6109ea838261121190919063ffffffff16565b6000600467ffffffffffffffff811115610a0757610a0661229e565b5b604051908082528060200260200182016040528015610a3a57816020015b6060815260200190600190039081610a255790505b5090508781600081518110610a5257610a51612b3b565b5b60200260200101819052508681600181518110610a7257610a71612b3b565b5b60200260200101819052508581600281518110610a9257610a91612b3b565b5b6020026020010181905250610aa685611222565b81600381518110610aba57610ab9612b3b565b5b6020026020010181905250610ad881836112f090919063ffffffff16565b6000610b09610ae684611338565b600560009054906101000a900467ffffffffffffffff16620493e0600654611748565b9050806002819055506040518060c001604052808a815260200189815260200188815260200187815260200160001515815260200142815250600360008381526020019081526020016000206000820151816000019081610b6a9190612d16565b506020820151816001019081610b809190612d16565b506040820151816002019081610b969190612d16565b506060820151816003015560808201518160040160006101000a81548160ff02191690831515021790555060a082015181600501559050503373ffffffffffffffffffffffffffffffffffffffff1689604051610bf39190612e24565b6040518091039020827f13ca237172794937f1fb184f8c22655ef88cbe6c2164ef88558a9445b64b807d60405160405180910390a480935050505095945050505050565b610c3f612189565b6000600360008481526020019081526020016000206040518060c0016040529081600082018054610c6f90612a7c565b80601f0160208091040260200160405190810160405280929190818152602001828054610c9b90612a7c565b8015610ce85780601f10610cbd57610100808354040283529160200191610ce8565b820191906000526020600020905b815481529060010190602001808311610ccb57829003601f168201915b50505050508152602001600182018054610d0190612a7c565b80601f0160208091040260200160405190810160405280929190818152602001828054610d2d90612a7c565b8015610d7a5780601f10610d4f57610100808354040283529160200191610d7a565b820191906000526020600020905b815481529060010190602001808311610d5d57829003601f168201915b50505050508152602001600282018054610d9390612a7c565b80601f0160208091040260200160405190810160405280929190818152602001828054610dbf90612a7c565b8015610e0c5780601f10610de157610100808354040283529160200191610e0c565b820191906000526020600020905b815481529060010190602001808311610def57829003601f168201915b50505050508152602001600382015481526020016004820160009054906101000a900460ff161515151581526020016005820154815250509050600081600001515103610e9057826040517f587311a8000000000000000000000000000000000000000000000000000000008152600401610e879190612612565b60405180910390fd5b80915050919050565b6060600460008381526020019081526020016000208054610eb990612a7c565b80601f0160208091040260200160405190810160405280929190818152602001828054610ee590612a7c565b8015610f325780601f10610f0757610100808354040283529160200191610f32565b820191906000526020600020905b815481529060010190602001808311610f1557829003601f168201915b50505050509050919050565b600080600460008481526020019081526020016000208054610f5f90612a7c565b9050119050919050565b610f7161107b565b610f7a8161182b565b50565b600081511115610ff05760036000848152602001908152602001600020600001604051610faa9190612ebe565b6040518091039020837ff42589e0d152d54c83ef9856d3a1bd0a58c63e6b1af9565d804bc5f8aa85c2146000604051610fe3919061262d565b60405180910390a3611076565b816004600085815260200190815260200160002090816110109190612f30565b50600360008481526020019081526020016000206000016040516110349190612ebe565b6040518091039020837ff42589e0d152d54c83ef9856d3a1bd0a58c63e6b1af9565d804bc5f8aa85c214600160405161106d919061262d565b60405180910390a35b505050565b60008054906101000a900473ffffffffffffffffffffffffffffffffffffffff1673ffffffffffffffffffffffffffffffffffffffff163373ffffffffffffffffffffffffffffffffffffffff1614611109576040517f08c379a00000000000000000000000000000000000000000000000000000000081526004016111009061304e565b60405180910390fd5b565b611113611957565b6000600160146101000a81548160ff0219169083151502179055507f5db9ee0a495bf2e6ff9c91a7834c1ba4fdd244a5e8aa4e537bd38aeae4b073aa611157611997565b6040516111649190612689565b60405180910390a1565b6111766111d0565b60018060146101000a81548160ff0219169083151502179055507f62e78cea01bee320cd4e420270b5ea74000d11b0c9f74754ebdbfc544b05a2586111b9611997565b6040516111c69190612689565b60405180910390a1565b6111d8610780565b1561120f576040517fd93c066500000000000000000000000000000000000000000000000000000000815260040160405180910390fd5b565b61121e826000808461199f565b5050565b60606000600161123184611a49565b01905060008167ffffffffffffffff8111156112505761124f61229e565b5b6040519080825280601f01601f1916602001820160405280156112825781602001600182028036833780820191505090505b509050600082602001820190505b6001156112e5578080600190039150507f3031323334353637383961626364656600000000000000000000000000000000600a86061a8153600a85816112d9576112d861306e565b5b04945060008503611290575b819350505050919050565b600081510361132b576040517ffe936cb700000000000000000000000000000000000000000000000000000000815260040160405180910390fd5b808260a001819052505050565b60606000611347610100611b9c565b90506113916040518060400160405280600c81526020017f636f64654c6f636174696f6e000000000000000000000000000000000000000081525082611bc390919063ffffffff16565b6113ba836000015160028111156113ab576113aa61309d565b5b82611bec90919063ffffffff16565b6114026040518060400160405280600881526020017f6c616e677561676500000000000000000000000000000000000000000000000081525082611bc390919063ffffffff16565b61142b8360400151600081111561141c5761141b61309d565b5b82611bec90919063ffffffff16565b6114736040518060400160405280600681526020017f736f75726365000000000000000000000000000000000000000000000000000081525082611bc390919063ffffffff16565b61148a836060015182611bc390919063ffffffff16565b60008360a00151511115611540576114e06040518060400160405280600481526020017f617267730000000000000000000000000000000000000000000000000000000081525082611bc390919063ffffffff16565b6114e981611c3c565b60005b8360a00151518110156115355761152a8460a00151828151811061151357611512612b3b565b5b602002602001015183611bc390919063ffffffff16565b8060010190506114ec565b5061153f81611c64565b5b6000836080015151111561168157600060028111156115625761156161309d565b5b836020015160028111156115795761157861309d565b5b036115b0576040517fa80d31f700000000000000000000000000000000000000000000000000000000815260040160405180910390fd5b6115f86040518060400160405280600f81526020017f736563726574734c6f636174696f6e000000000000000000000000000000000081525082611bc390919063ffffffff16565b611621836020015160028111156116125761161161309d565b5b82611bec90919063ffffffff16565b6116696040518060400160405280600781526020017f736563726574730000000000000000000000000000000000000000000000000081525082611bc390919063ffffffff16565b611680836080015182611c8c90919063ffffffff16565b5b60008360c00151511115611737576116d76040518060400160405280600981526020017f627974657341726773000000000000000000000000000000000000000000000081525082611bc390919063ffffffff16565b6116e081611c3c565b60005b8360c001515181101561172c576117218460c00151828151811061170a57611709612b3b565b5b602002602001015183611c8c90919063ffffffff16565b8060010190506116e3565b5061173681611c64565b5b806000015160000151915050919050565b6000807f000000000000000000000000000000000000000000000000000000000000000073ffffffffffffffffffffffffffffffffffffffff1663461d27628688600188886040518663ffffffff1660e01b81526004016117ad959493929190613108565b6020604051808303816000875af11580156117cc573d6000803e3d6000fd5b505050506040513d601f19601f820116820180604052508101906117f09190613177565b9050807f1131472297a800fee664d1d89cfa8f7676ff07189ecc53f80bbb5f4969099db860405160405180910390a280915050949350505050565b3373ffffffffffffffffffffffffffffffffffffffff168173ffffffffffffffffffffffffffffffffffffffff1603611899576040517f08c379a0000000000000000000000000000000000000000000000000000000008152600401611890906131f0565b60405180910390fd5b80600160006101000a81548173ffffffffffffffffffffffffffffffffffffffff021916908373ffffffffffffffffffffffffffffffffffffffff1602179055508073ffffffffffffffffffffffffffffffffffffffff1660008054906101000a900473ffffffffffffffffffffffffffffffffffffffff1673ffffffffffffffffffffffffffffffffffffffff167fed8889f560326eb138920d842192f0eb3dd22b4f139c87a2c57538e05bae127860405160405180910390a350565b61195f610780565b611995576040517f8dfc202b00000000000000000000000000000000000000000000000000000000815260040160405180910390fd5b565b600033905090565b60008151036119da576040517f22ce3edd00000000000000000000000000000000000000000000000000000000815260040160405180910390fd5b82846000019060028111156119f2576119f161309d565b5b90816002811115611a0657611a0561309d565b5b815250508184604001906000811115611a2257611a2161309d565b5b90816000811115611a3657611a3561309d565b5b8152505080846060018190525050505050565b600080600090507a184f03e93ff9f4daa797ed6e38ed64bf6a1f0100000000000000008310611aa7577a184f03e93ff9f4daa797ed6e38ed64bf6a1f0100000000000000008381611a9d57611a9c61306e565b5b0492506040810190505b6d04ee2d6d415b85acef81000000008310611ae4576d04ee2d6d415b85acef81000000008381611ada57611ad961306e565b5b0492506020810190505b662386f26fc100008310611b1357662386f26fc100008381611b0957611b0861306e565b5b0492506010810190505b6305f5e1008310611b3c576305f5e1008381611b3257611b3161306e565b5b0492506008810190505b6127108310611b61576127108381611b5757611b5661306e565b5b0492506004810190505b60648310611b845760648381611b7a57611b7961306e565b5b0492506002810190505b600a8310611b93576001810190505b80915050919050565b611ba46121c1565b611bb2816000015183611cb5565b506000816020018181525050919050565b611bd08260038351611d2e565b611be7818360000151611ed790919063ffffffff16565b505050565b611c0e60026005600660ff16901b178360000151611ef390919063ffffffff16565b50611c388282604051602001611c249190613210565b604051602081830303815290604052611c8c565b5050565b611c47816004611f5d565b600181602001818151611c5a919061325a565b9150818152505050565b611c6f816007611f5d565b600181602001818151611c82919061328e565b9150818152505050565b611c998260028351611d2e565b611cb0818360000151611ed790919063ffffffff16565b505050565b611cbd6121e1565b6000602083611ccc91906132c2565b14611cf857602082611cde91906132c2565b6020611cea919061328e565b82611cf5919061325a565b91505b818360200181815250506040518084526000815282810160200181811015611d1f57600080fd5b80604052505082905092915050565b60178167ffffffffffffffff1611611d6957611d638160058460ff16901b60ff16178460000151611ef390919063ffffffff16565b50611ed2565b60ff8167ffffffffffffffff1611611dc757611d9c601860058460ff16901b178460000151611ef390919063ffffffff16565b50611dc18167ffffffffffffffff1660018560000151611f839092919063ffffffff16565b50611ed1565b61ffff8167ffffffffffffffff1611611e2657611dfb601960058460ff16901b178460000151611ef390919063ffffffff16565b50611e208167ffffffffffffffff1660028560000151611f839092919063ffffffff16565b50611ed0565b63ffffffff8167ffffffffffffffff1611611e8757611e5c601a60058460ff16901b178460000151611ef390919063ffffffff16565b50611e818167ffffffffffffffff1660048560000151611f839092919063ffffffff16565b50611ecf565b611ea8601b60058460ff16901b178460000151611ef390919063ffffffff16565b50611ecd8167ffffffffffffffff1660088560000151611f839092919063ffffffff16565b505b5b5b5b505050565b611edf6121e1565b611eeb83838451612010565b905092915050565b611efb6121e1565b600083600001515190506000600182611f14919061325a565b905084602001518210611f3857611f3785600283611f3291906132f3565b6120f3565b5b84516020838201018581538151831115611f50578282525b5050849250505092915050565b611f7e601f60058360ff16901b178360000151611ef390919063ffffffff16565b505050565b611f8b6121e1565b6000846000015151905060008184611fa3919061325a565b90508560200151811115611fc857611fc786600283611fc291906132f3565b6120f3565b5b6000600185610100611fda9190613468565b611fe4919061328e565b905086518281018783198251161781528151841115612001578382525b50508693505050509392505050565b6120186121e1565b825182111561202657600080fd5b600084600001515190506000838261203e919061325a565b90508560200151811115612063576120628660028361205d91906132f3565b6120f3565b5b6000808751805185602083010193508085111561207e578482525b60208901925050505b602086106120c557805182526020826120a0919061325a565b91506020816120af919061325a565b90506020866120be919061328e565b9550612087565b60006001876020036101000a0390508019825116818451168181178552505050879450505050509392505050565b6000826000015190506121068383611cb5565b506121118382611ed7565b50505050565b6040518060e00160405280600060028111156121365761213561309d565b5b81526020016000600281111561214f5761214e61309d565b5b81526020016000808111156121675761216661309d565b5b8152602001606081526020016060815260200160608152602001606081525090565b6040518060c0016040528060608152602001606081526020016060815260200160008152602001600015158152602001600081525090565b60405180604001604052806121d46121e1565b8152602001600081525090565b604051806040016040528060608152602001600081525090565b600067ffffffffffffffff82169050919050565b612218816121fb565b82525050565b6000602082019050612233600083018461220f565b92915050565b6000604051905090565b600080fd5b600080fd5b6000819050919050565b6122608161224d565b811461226b57600080fd5b50565b60008135905061227d81612257565b92915050565b600080fd5b600080fd5b6000601f19601f8301169050919050565b7f4e487b7100000000000000000000000000000000000000000000000000000000600052604160045260246000fd5b6122d68261228d565b810181811067ffffffffffffffff821117156122f5576122f461229e565b5b80604052505050565b6000612308612239565b905061231482826122cd565b919050565b600067ffffffffffffffff8211156123345761233361229e565b5b61233d8261228d565b9050602081019050919050565b82818337600083830152505050565b600061236c61236784612319565b6122fe565b90508281526020810184848401111561238857612387612288565b5b61239384828561234a565b509392505050565b600082601f8301126123b0576123af612283565b5b81356123c0848260208601612359565b91505092915050565b6000806000606084860312156123e2576123e1612243565b5b60006123f08682870161226e565b935050602084013567ffffffffffffffff81111561241157612410612248565b5b61241d8682870161239b565b925050604084013567ffffffffffffffff81111561243e5761243d612248565b5b61244a8682870161239b565b9150509250925092565b60006020828403121561246a57612469612243565b5b60006124788482850161226e565b91505092915050565b600081519050919050565b600082825260208201905092915050565b60005b838110156124bb5780820151818401526020810190506124a0565b60008484015250505050565b60006124d282612481565b6124dc818561248c565b93506124ec81856020860161249d565b6124f58161228d565b840191505092915050565b6000819050919050565b61251381612500565b82525050565b60008115159050919050565b61252e81612519565b82525050565b600060c082019050818103600083015261254e81896124c7565b9050818103602083015261256281886124c7565b9050818103604083015261257681876124c7565b9050612585606083018661250a565b6125926080830185612525565b61259f60a083018461250a565b979650505050505050565b6125b3816121fb565b81146125be57600080fd5b50565b6000813590506125d0816125aa565b92915050565b6000602082840312156125ec576125eb612243565b5b60006125fa848285016125c1565b91505092915050565b61260c8161224d565b82525050565b60006020820190506126276000830184612603565b92915050565b60006020820190506126426000830184612525565b92915050565b600073ffffffffffffffffffffffffffffffffffffffff82169050919050565b600061267382612648565b9050919050565b61268381612668565b82525050565b600060208201905061269e600083018461267a565b92915050565b600067ffffffffffffffff8211156126bf576126be61229e565b5b6126c88261228d565b9050602081019050919050565b60006126e86126e3846126a4565b6122fe565b90508281526020810184848401111561270457612703612288565b5b61270f84828561234a565b509392505050565b600082601f83011261272c5761272b612283565b5b813561273c8482602086016126d5565b91505092915050565b61274e81612500565b811461275957600080fd5b50565b60008135905061276b81612745565b92915050565b600080600080600060a0868803121561278d5761278c612243565b5b600086013567ffffffffffffffff8111156127ab576127aa612248565b5b6127b788828901612717565b955050602086013567ffffffffffffffff8111156127d8576127d7612248565b5b6127e488828901612717565b945050604086013567ffffffffffffffff81111561280557612804612248565b5b61281188828901612717565b93505060606128228882890161275c565b925050608086013567ffffffffffffffff81111561284357612842612248565b5b61284f88828901612717565b9150509295509295909350565b600082825260208201905092915050565b600061287882612481565b612882818561285c565b935061289281856020860161249d565b61289b8161228d565b840191505092915050565b6128af81612500565b82525050565b6128be81612519565b82525050565b600060c08301600083015184820360008601526128e1828261286d565b915050602083015184820360208601526128fb828261286d565b91505060408301518482036040860152612915828261286d565b915050606083015161292a60608601826128a6565b50608083015161293d60808601826128b5565b5060a083015161295060a08601826128a6565b508091505092915050565b6000602082019050818103600083015261297581846128c4565b905092915050565b600081519050919050565b600082825260208201905092915050565b60006129a48261297d565b6129ae8185612988565b93506129be81856020860161249d565b6129c78161228d565b840191505092915050565b600060208201905081810360008301526129ec8184612999565b905092915050565b6129fd81612668565b8114612a0857600080fd5b50565b600081359050612a1a816129f4565b92915050565b600060208284031215612a3657612a35612243565b5b6000612a4484828501612a0b565b91505092915050565b7f4e487b7100000000000000000000000000000000000000000000000000000000600052602260045260246000fd5b60006002820490506001821680612a9457607f821691505b602082108103612aa757612aa6612a4d565b5b50919050565b7f4d7573742062652070726f706f736564206f776e657200000000000000000000600082015250565b6000612ae360168361248c565b9150612aee82612aad565b602082019050919050565b60006020820190508181036000830152612b1281612ad6565b9050919050565b60006020820190508181036000830152612b3381846124c7565b905092915050565b7f4e487b7100000000000000000000000000000000000000000000000000000000600052603260045260246000fd5b60008190508160005260206000209050919050565b60006020601f8301049050919050565b600082821b905092915050565b600060088302612bcc7fffffffffffffffffffffffffffffffffffffffffffffffffffffffffffffffff82612b8f565b612bd68683612b8f565b95508019841693508086168417925050509392505050565b6000819050919050565b6000612c13612c0e612c0984612500565b612bee565b612500565b9050919050565b6000819050919050565b612c2d83612bf8565b612c41612c3982612c1a565b848454612b9c565b825550505050565b600090565b612c56612c49565b612c61818484612c24565b505050565b5b81811015612c8557612c7a600082612c4e565b600181019050612c67565b5050565b601f821115612cca57612c9b81612b6a565b612ca484612b7f565b81016020851015612cb3578190505b612cc7612cbf85612b7f565b830182612c66565b50505b505050565b600082821c905092915050565b6000612ced60001984600802612ccf565b1980831691505092915050565b6000612d068383612cdc565b9150826002028217905092915050565b612d1f82612481565b67ffffffffffffffff811115612d3857612d3761229e565b5b612d428254612a7c565b612d4d828285612c89565b600060209050601f831160018114612d805760008415612d6e578287015190505b612d788582612cfa565b865550612de0565b601f198416612d8e86612b6a565b60005b82811015612db657848901518255600182019150602085019450602081019050612d91565b86831015612dd35784890151612dcf601f891682612cdc565b8355505b6001600288020188555050505b505050505050565b600081905092915050565b6000612dfe82612481565b612e088185612de8565b9350612e1881856020860161249d565b80840191505092915050565b6000612e308284612df3565b915081905092915050565b60008154612e4881612a7c565b612e528186612de8565b94506001821660008114612e6d5760018114612e8257612eb5565b60ff1983168652811515820286019350612eb5565b612e8b85612b6a565b60005b83811015612ead57815481890152600182019150602081019050612e8e565b838801955050505b50505092915050565b6000612eca8284612e3b565b915081905092915050565b60008190508160005260206000209050919050565b601f821115612f2b57612efc81612ed5565b612f0584612b7f565b81016020851015612f14578190505b612f28612f2085612b7f565b830182612c66565b50505b505050565b612f398261297d565b67ffffffffffffffff811115612f5257612f5161229e565b5b612f5c8254612a7c565b612f67828285612eea565b600060209050601f831160018114612f9a5760008415612f88578287015190505b612f928582612cfa565b865550612ffa565b601f198416612fa886612ed5565b60005b82811015612fd057848901518255600182019150602085019450602081019050612fab565b86831015612fed5784890151612fe9601f891682612cdc565b8355505b6001600288020188555050505b505050505050565b7f4f6e6c792063616c6c61626c65206279206f776e657200000000000000000000600082015250565b600061303860168361248c565b915061304382613002565b602082019050919050565b600060208201905081810360008301526130678161302b565b9050919050565b7f4e487b7100000000000000000000000000000000000000000000000000000000600052601260045260246000fd5b7f4e487b7100000000000000000000000000000000000000000000000000000000600052602160045260246000fd5b600061ffff82169050919050565b6130e3816130cc565b82525050565b600063ffffffff82169050919050565b613102816130e9565b82525050565b600060a08201905061311d600083018861220f565b818103602083015261312f8187612999565b905061313e60408301866130da565b61314b60608301856130f9565b6131586080830184612603565b9695505050505050565b60008151905061317181612257565b92915050565b60006020828403121561318d5761318c612243565b5b600061319b84828501613162565b91505092915050565b7f43616e6e6f74207472616e7366657220746f2073656c66000000000000000000600082015250565b60006131da60178361248c565b91506131e5826131a4565b602082019050919050565b60006020820190508181036000830152613209816131cd565b9050919050565b6000602082019050613225600083018461250a565b92915050565b7f4e487b7100000000000000000000000000000000000000000000000000000000600052601160045260246000fd5b600061326582612500565b915061327083612500565b92508282019050808211156132885761328761322b565b5b92915050565b600061329982612500565b91506132a483612500565b92508282039050818111156132bc576132bb61322b565b5b92915050565b60006132cd82612500565b91506132d883612500565b9250826132e8576132e761306e565b5b828206905092915050565b60006132fe82612500565b915061330983612500565b925082820261331781612500565b9150828204841483151761332e5761332d61322b565b5b5092915050565b60008160011c9050919050565b6000808291508390505b600185111561338c578086048111156133685761336761322b565b5b60018516156133775780820291505b808102905061338585613335565b945061334c565b94509492505050565b6000826133a55760019050613461565b816133b35760009050613461565b81600181146133c957600281146133d357613402565b6001915050613461565b60ff8411156133e5576133e461322b565b5b8360020a9150848211156133fc576133fb61322b565b5b50613461565b5060208310610133831016604e8410600b84101617156134375782820a9050838111156134325761343161322b565b5b613461565b6134448484846001613342565b9250905081840481111561345b5761345a61322b565b5b81810290505b9392505050565b600061347382612500565b915061347e83612500565b92506134ab7fffffffffffffffffffffffffffffffffffffffffffffffffffffffffffffffff8484613395565b90509291505056fea26469706673582212208ebaf120309720a3897e21245cd69979d4410a021c1472bc4208bea41f215d0364736f6c63430008180033",
  "linkReferences": {},
  "deployedLinkReferences": {}
}