{"abi":[{"type":"constructor","inputs":[{"name":"_name","type":"string","internalType":"string"},{"name":"_symbol","type":"string","internalType":"string"},{"name":"_initialConfig","type":"tuple","internalType":"struct MechanicVerification.QuizConfig","components":[{"name":"duration","type":"uint40","internalType":"uint40"},{"name":"bufferTime","type":"uint40","internalType":"uint40"},{"name":"cooldownPeriod","type":"uint40","internalType":"uint40"},{"name":"passingScore","type":"uint8","internalType":"uint8"},{"name":"totalQuestions","type":"uint8","internalType":"uint8"}]},{"name":"_initialAnswersRoot","type":"bytes32","internalType":"bytes32"}],"stateMutability":"nonpayable"},{"type":"function","name":"answersRoot","inputs":[],"outputs":[{"name":"","type":"bytes32","internalType":"bytes32"}],"stateMutability":"view"},{"type":"function","name":"approve","inputs":[{"name":"to","type":"address","internalType":"address"},{"name":"tokenId","type":"uint256","internalType":"uint256"}],"outputs":[],"stateMutability":"nonpayable"},{"type":"function","name":"balanceOf","inputs":[{"name":"owner","type":"address","internalType":"address"}],"outputs":[{"name":"","type":"uint256","internalType":"uint256"}],"stateMutability":"view"},{"type":"function","name":"getApproved","inputs":[{"name":"tokenId","type":"uint256","internalType":"uint256"}],"outputs":[{"name":"","type":"address","internalType":"address"}],"stateMutability":"view"},{"type":"function","name":"getLatestQuizAttempt","inputs":[{"name":"_participant","type":"address","internalType":"address"}],"outputs":[{"name":"","type":"tuple","internalType":"struct MechanicVerification.Quiz","components":[{"name":"startTime","type":"uint40","internalType":"uint40"},{"name":"endTime","type":"uint40","internalType":"uint40"},{"name":"score","type":"uint8","internalType":"uint8"},{"name":"completed","type":"bool","internalType":"bool"}]}],"stateMutability":"view"},{"type":"function","name":"getQuizAttemptCount","inputs":[{"name":"_participant","type":"address","internalType":"address"}],"outputs":[{"name":"","type":"uint256","internalType":"uint256"}],"stateMutability":"view"},{"type":"function","name":"isApprovedForAll","inputs":[{"name":"owner","type":"address","internalType":"address"},{"name":"operator","type":"address","internalType":"address"}],"outputs":[{"name":"","type":"bool","internalType":"bool"}],"stateMutability":"view"},{"type":"function","name":"name","inputs":[],"outputs":[{"name":"","type":"string","internalType":"string"}],"stateMutability":"view"},{"type":"function","name":"owner","inputs":[],"outputs":[{"name":"","type":"address","internalType":"address"}],"stateMutability":"view"},{"type":"function","name":"ownerOf","inputs":[{"name":"tokenId","type":"uint256","internalType":"uint256"}],"outputs":[{"name":"","type":"address","internalType":"address"}],"stateMutability":"view"},{"type":"function","name":"quizAttempts","inputs":[{"name":"","type":"address","internalType":"address"},{"name":"","type":"uint256","internalType":"uint256"}],"outputs":[{"name":"startTime","type":"uint40","internalType":"uint40"},{"name":"endTime","type":"uint40","internalType":"uint40"},{"name":"score","type":"uint8","internalType":"uint8"},{"name":"completed","type":"bool","internalType":"bool"}],"stateMutability":"view"},{"type":"function","name":"quizConfig","inputs":[],"outputs":[{"name":"duration","type":"uint40","internalType":"uint40"},{"name":"bufferTime","type":"uint40","internalType":"uint40"},{"name":"cooldownPeriod","type":"uint40","internalType":"uint40"},{"name":"passingScore","type":"uint8","internalType":"uint8"},{"name":"totalQuestions","type":"uint8","internalType":"uint8"}],"stateMutability":"view"},{"type":"function","name":"renounceOwnership","inputs":[],"outputs":[],"stateMutability":"nonpayable"},{"type":"function","name":"safeTransferFrom","inputs":[{"name":"from","type":"address","internalType":"address"},{"name":"to","type":"address","internalType":"address"},{"name":"tokenId","type":"uint256","internalType":"uint256"}],"outputs":[],"stateMutability":"nonpayable"},{"type":"function","name":"safeTransferFrom","inputs":[{"name":"from","type":"address","internalType":"address"},{"name":"to","type":"address","internalType":"address"},{"name":"tokenId","type":"uint256","internalType":"uint256"},{"name":"data","type":"bytes","internalType":"bytes"}],"outputs":[],"stateMutability":"nonpayable"},{"type":"function","name":"setApprovalForAll","inputs":[{"name":"operator","type":"address","internalType":"address"},{"name":"approved","type":"bool","internalType":"bool"}],"outputs":[],"stateMutability":"nonpayable"},{"type":"function","name":"startQuiz","inputs":[],"outputs":[],"stateMutability":"nonpayable"},{"type":"function","name":"submitQuiz","inputs":[{"name":"_answerHashes","type":"bytes32[]","internalType":"bytes32[]"},{"name":"_proof","type":"bytes32[]","internalType":"bytes32[]"}],"outputs":[],"stateMutability":"nonpayable"},{"type":"function","name":"supportsInterface","inputs":[{"name":"interfaceId","type":"bytes4","internalType":"bytes4"}],"outputs":[{"name":"","type":"bool","internalType":"bool"}],"stateMutability":"view"},{"type":"function","name":"symbol","inputs":[],"outputs":[{"name":"","type":"string","internalType":"string"}],"stateMutability":"view"},{"type":"function","name":"tokenURI","inputs":[{"name":"tokenId","type":"uint256","internalType":"uint256"}],"outputs":[{"name":"","type":"string","internalType":"string"}],"stateMutability":"view"},{"type":"function","name":"transferFrom","inputs":[{"name":"from","type":"address","internalType":"address"},{"name":"to","type":"address","internalType":"address"},{"name":"tokenId","type":"uint256","internalType":"uint256"}],"outputs":[],"stateMutability":"nonpayable"},{"type":"function","name":"transferOwnership","inputs":[{"name":"newOwner","type":"address","internalType":"address"}],"outputs":[],"stateMutability":"nonpayable"},{"type":"function","name":"updateAnswersRoot","inputs":[{"name":"_newRoot","type":"bytes32","internalType":"bytes32"}],"outputs":[],"stateMutability":"nonpayable"},{"type":"function","name":"updateQuizConfig","inputs":[{"name":"_newConfig","type":"tuple","internalType":"struct MechanicVerification.QuizConfig","components":[{"name":"duration","type":"uint40","internalType":"uint40"},{"name":"bufferTime","type":"uint40","internalType":"uint40"},{"name":"cooldownPeriod","type":"uint40","internalType":"uint40"},{"name":"passingScore","type":"uint8","internalType":"uint8"},{"name":"totalQuestions","type":"uint8","internalType":"uint8"}]}],"outputs":[],"stateMutability":"nonpayable"},{"type":"event","name":"AnswersRootUpdated","inputs":[{"name":"newRoot","type":"bytes32","indexed":false,"internalType":"bytes32"}],"anonymous":false},{"type":"event","name":"Approval","inputs":[{"name":"owner","type":"address","indexed":true,"internalType":"address"},{"name":"approved","type":"address","indexed":true,"internalType":"address"},{"name":"tokenId","type":"uint256","indexed":true,"internalType":"uint256"}],"anonymous":false},{"type":"event","name":"ApprovalForAll","inputs":[{"name":"owner","type":"address","indexed":true,"internalType":"address"},{"name":"operator","type":"address","indexed":true,"internalType":"address"},{"name":"approved","type":"bool","indexed":false,"internalType":"bool"}],"anonymous":false},{"type":"event","name":"OwnershipTransferred","inputs":[{"name":"previousOwner","type":"address","indexed":true,"internalType":"address"},{"name":"newOwner","type":"address","indexed":true,"internalType":"address"}],"anonymous":false},{"type":"event","name":"QuizConfigUpdated","inputs":[{"name":"newConfig","type":"tuple","indexed":false,"internalType":"struct MechanicVerification.QuizConfig","components":[{"name":"duration","type":"uint40","internalType":"uint40"},{"name":"bufferTime","type":"uint40","internalType":"uint40"},{"name":"cooldownPeriod","type":"uint40","internalType":"uint40"},{"name":"passingScore","type":"uint8","internalType":"uint8"},{"name":"totalQuestions","type":"uint8","internalType":"uint8"}]}],"anonymous":false},{"type":"event","name":"QuizStarted","inputs":[{"name":"participant","type":"address","indexed":true,"internalType":"address"},{"name":"startTime","type":"uint256","indexed":false,"internalType":"uint256"},{"name":"endTime","type":"uint256","indexed":false,"internalType":"uint256"}],"anonymous":false},{"type":"event","name":"QuizSubmitted","inputs":[{"name":"participant","type":"address","indexed":true,"internalType":"address"},{"name":"score","type":"uint8","indexed":false,"internalType":"uint8"},{"name":"passed","type":"bool","indexed":false,"internalType":"bool"}],"anonymous":false},{"type":"event","name":"Transfer","inputs":[{"name":"from","type":"address","indexed":true,"internalType":"address"},{"name":"to","type":"address","indexed":true,"internalType":"address"},{"name":"tokenId","type":"uint256","indexed":true,"internalType":"uint256"}],"anonymous":false},{"type":"error","name":"ERC721IncorrectOwner","inputs":[{"name":"sender","type":"address","internalType":"address"},{"name":"tokenId","type":"uint256","internalType":"uint256"},{"name":"owner","type":"address","internalType":"address"}]},{"type":"error","name":"ERC721InsufficientApproval","inputs":[{"name":"operator","type":"address","internalType":"address"},{"name":"tokenId","type":"uint256","internalType":"uint256"}]},{"type":"error","name":"ERC721InvalidApprover","inputs":[{"name":"approver","type":"address","internalType":"address"}]},{"type":"error","name":"ERC721InvalidOperator","inputs":[{"name":"operator","type":"address","internalType":"address"}]},{"type":"error","name":"ERC721InvalidOwner","inputs":[{"name":"owner","type":"address","internalType":"address"}]},{"type":"error","name":"ERC721InvalidReceiver","inputs":[{"name":"receiver","type":"address","internalType":"address"}]},{"type":"error","name":"ERC721InvalidSender","inputs":[{"name":"sender","type":"address","internalType":"address"}]},{"type":"error","name":"ERC721NonexistentToken","inputs":[{"name":"tokenId","type":"uint256","internalType":"uint256"}]},{"type":"error","name":"OwnableInvalidOwner","inputs":[{"name":"owner","type":"address","internalType":"address"}]},{"type":"error","name":"OwnableUnauthorizedAccount","inputs":[{"name":"account","type":"address","internalType":"address"}]}],"bytecode":{"object":"0x608060405234801561001057600080fd5b506040516121b23803806121b283398101604081905261002f91610295565b338484600061003e83826103fe565b50600161004b82826103fe565b5050506001600160a01b03811661007c57604051631e4fbdf760e01b81526000600482015260240160405180910390fd5b61008581610126565b5081516008805460208501516040860151606087015160809097015164ffffffffff9586166001600160501b03199094169390931765010000000000928616929092029190911765ffffffffffff60501b19166a0100000000000000000000949091169390930260ff60781b191692909217600160781b60ff958616021760ff60801b1916600160801b949092169390930217909155600955506104bd9050565b600680546001600160a01b038381166001600160a01b0319831681179093556040519116919082907f8be0079c531659141344cd1fd0a4f28419497f9722a3daafe3b4186f6b6457e090600090a35050565b634e487b7160e01b600052604160045260246000fd5b60405160a081016001600160401b03811182821017156101b0576101b0610178565b60405290565b604051601f8201601f191681016001600160401b03811182821017156101de576101de610178565b604052919050565b600082601f8301126101f757600080fd5b81516001600160401b0381111561021057610210610178565b6020610224601f8301601f191682016101b6565b828152858284870101111561023857600080fd5b60005b8381101561025657858101830151828201840152820161023b565b506000928101909101919091529392505050565b805164ffffffffff8116811461027f57600080fd5b919050565b805160ff8116811461027f57600080fd5b6000806000808486036101008112156102ad57600080fd5b85516001600160401b03808211156102c457600080fd5b6102d089838a016101e6565b965060208801519150808211156102e657600080fd5b506102f3888289016101e6565b94505060a0603f198201121561030857600080fd5b5061031161018e565b61031d6040870161026a565b815261032b6060870161026a565b602082015261033c6080870161026a565b604082015261034d60a08701610284565b606082015261035e60c08701610284565b608082015260e0959095015193969295505050565b600181811c9082168061038757607f821691505b6020821081036103a757634e487b7160e01b600052602260045260246000fd5b50919050565b601f8211156103f9576000816000526020600020601f850160051c810160208610156103d65750805b601f850160051c820191505b818110156103f5578281556001016103e2565b5050505b505050565b81516001600160401b0381111561041757610417610178565b61042b816104258454610373565b846103ad565b602080601f83116001811461046057600084156104485750858301515b600019600386901b1c1916600185901b1785556103f5565b600085815260208120601f198616915b8281101561048f57888601518255948401946001909101908401610470565b50858210156104ad5787850151600019600388901b60f8161c191681555b5050505050600190811b01905550565b611ce6806104cc6000396000f3fe608060405234801561001057600080fd5b50600436106101735760003560e01c8063786481da116100de578063b88d4fde11610097578063e27322dd11610071578063e27322dd146103b0578063e6644a721461040b578063e985e9c514610434578063f2fde38b1461044757600080fd5b8063b88d4fde14610313578063bab8aef414610326578063c87b56dd1461039d57600080fd5b8063786481da146102ae5780638962b95a146102c15780638da5cb5b146102d457806395d89b41146102e5578063a22cb465146102ed578063abf43fdf1461030057600080fd5b80633618039c116101305780633618039c1461024e57806342842e0e146102655780634c3415e6146102785780636352211e1461028057806370a0823114610293578063715018a6146102a657600080fd5b806301ffc9a71461017857806306fdde03146101a0578063081812fc146101b5578063095ea7b3146101e05780630e9c85bb146101f557806323b872dd1461023b575b600080fd5b61018b61018636600461162c565b61045a565b60405190151581526020015b60405180910390f35b6101a86104ac565b6040516101979190611699565b6101c86101c33660046116ac565b61053e565b6040516001600160a01b039091168152602001610197565b6101f36101ee3660046116e1565b610567565b005b6102086102033660046116e1565b610576565b6040805164ffffffffff958616815294909316602085015260ff9091169183019190915215156060820152608001610197565b6101f361024936600461170b565b6105ca565b61025760095481565b604051908152602001610197565b6101f361027336600461170b565b61065a565b6101f361067a565b6101c861028e3660046116ac565b61085e565b6102576102a1366004611747565b610869565b6101f36108b1565b6101f36102bc366004611762565b6108c5565b6101f36102cf3660046117c6565b610917565b6006546001600160a01b03166101c8565b6101a8610bea565b6101f36102fb366004611832565b610bf9565b6101f361030e3660046116ac565b610c04565b6101f3610321366004611884565b610c41565b6008546103619064ffffffffff80821691600160281b8104821691600160501b8204169060ff600160781b8204811691600160801b90041685565b6040805164ffffffffff96871681529486166020860152929094169183019190915260ff9081166060830152909116608082015260a001610197565b6101a86103ab3660046116ac565b610c58565b6103c36103be366004611747565b610ccd565b6040516101979190600060808201905064ffffffffff8084511683528060208501511660208401525060ff604084015116604083015260608301511515606083015292915050565b610257610419366004611747565b6001600160a01b031660009081526007602052604090205490565b61018b610442366004611960565b610dd7565b6101f3610455366004611747565b610e05565b60006001600160e01b031982166380ac58cd60e01b148061048b57506001600160e01b03198216635b5e139f60e01b145b806104a657506301ffc9a760e01b6001600160e01b03198316145b92915050565b6060600080546104bb90611993565b80601f01602080910402602001604051908101604052809291908181526020018280546104e790611993565b80156105345780601f1061050957610100808354040283529160200191610534565b820191906000526020600020905b81548152906001019060200180831161051757829003601f168201915b5050505050905090565b600061054982610e43565b506000828152600460205260409020546001600160a01b03166104a6565b610572828233610e7c565b5050565b6007602052816000526040600020818154811061059257600080fd5b60009182526020909120015464ffffffffff8082169350600160281b820416915060ff600160501b8204811691600160581b90041684565b6001600160a01b0382166105f957604051633250574960e11b8152600060048201526024015b60405180910390fd5b6000610606838333610e89565b9050836001600160a01b0316816001600160a01b031614610654576040516364283d7b60e01b81526001600160a01b03808616600483015260248201849052821660448201526064016105f0565b50505050565b61067583838360405180602001604052806000815250610c41565b505050565b3360009081526007602052604090205415806106f957506008543360009081526007602052604090208054600160501b90920464ffffffffff16916106c1906001906119dd565b815481106106d1576106d16119f0565b6000918252602090912001546106ee919064ffffffffff16611a06565b64ffffffffff164210155b6107455760405162461bcd60e51b815260206004820152601860248201527f436f6f6c646f776e20706572696f64206e6f74206f766572000000000000000060448201526064016105f0565b600854429060009061075e9064ffffffffff1683611a06565b336000818152600760209081526040808320815160808101835264ffffffffff808a1682528088168286019081528285018781526060840188815285546001810187559589529690972092519290930180549351965195511515600160581b0260ff60581b1960ff97909716600160501b029690961661ffff60501b19978316600160281b0269ffffffffffffffffffff1990951693909216929092179290921794909416179190911790915551919250907fd3ea57781c71061ced17c505f604769efce22d2cc4ebfb75cc8503f8a4febcd390610852908590859064ffffffffff92831681529116602082015260400190565b60405180910390a25050565b60006104a682610e43565b60006001600160a01b038216610895576040516322718ad960e21b8152600060048201526024016105f0565b506001600160a01b031660009081526003602052604090205490565b6108b9610f82565b6108c36000610faf565b565b6108cd610f82565b8060086108da8282611a5a565b9050507fe86ac525abbd2608cabc097ae3fb992e2f64a539d8cf429066b7f67472a704eb8160405161090c9190611b4b565b60405180910390a150565b336000908152600760205260409020546109645760405162461bcd60e51b815260206004820152600e60248201526d27379030b1ba34bb329038bab4bd60911b60448201526064016105f0565b3360009081526007602052604081208054610981906001906119dd565b81548110610991576109916119f0565b60009182526020909120018054909150600160581b900460ff16156109f15760405162461bcd60e51b8152602060048201526016602482015275145d5a5e88185b1c9958591e4818dbdb5c1b195d195960521b60448201526064016105f0565b6008548154610a169164ffffffffff600160281b918290048116929190910416611a06565b64ffffffffff16421115610a605760405162461bcd60e51b8152602060048201526011602482015270145d5a5e881d1a5b5948195e1c1a5c9959607a1b60448201526064016105f0565b3360009081526007602052604081208054610a7d906001906119dd565b81548110610a8d57610a8d6119f0565b90600052602060002001905060008686604051602001610aae929190611bc5565b604051602081830303815290604052805190602001209050610b07858580806020026020016040519081016040528093929190818152602001838360200280828437600092019190915250506009549150849050611001565b610b455760405162461bcd60e51b815260206004820152600f60248201526e496e76616c696420616e737765727360881b60448201526064016105f0565b6000610b518888611017565b835460ff60581b1960ff808416600160501b81029290921661ffff60501b1990931692909217600160581b178655600854929350600160781b9092041611801590610ba057610ba0338061103c565b6040805160ff84168152821515602082015233917fcb3eeefe1bb266163fb45873e344dc821217a79c20351cef1aac1058d665c40a910160405180910390a2505050505050505050565b6060600180546104bb90611993565b6105723383836110a1565b610c0c610f82565b60098190556040518181527f3c90dbd8e0b4fb00cf6dd6d56fc78b13fe09a02bb249b34128f371fc902c871e9060200161090c565b610c4c8484846105ca565b61065484848484611140565b6060610c6382610e43565b506000610c7b60408051602081019091526000815290565b90506000815111610c9b5760405180602001604052806000815250610cc6565b80610ca584611269565b604051602001610cb6929190611bee565b6040516020818303038152906040525b9392505050565b6040805160808101825260008082526020808301829052828401829052606083018290526001600160a01b0385168252600790529190912054610d455760405162461bcd60e51b815260206004820152601060248201526f4e6f207175697a20617474656d70747360801b60448201526064016105f0565b6001600160a01b03821660009081526007602052604090208054610d6b906001906119dd565b81548110610d7b57610d7b6119f0565b600091825260209182902060408051608081018252919092015464ffffffffff8082168352600160281b8204169382019390935260ff600160501b8404811692820192909252600160581b909204161515606082015292915050565b6001600160a01b03918216600090815260056020908152604080832093909416825291909152205460ff1690565b610e0d610f82565b6001600160a01b038116610e3757604051631e4fbdf760e01b8152600060048201526024016105f0565b610e4081610faf565b50565b6000818152600260205260408120546001600160a01b0316806104a657604051637e27328960e01b8152600481018490526024016105f0565b61067583838360016112fc565b6000828152600260205260408120546001600160a01b0390811690831615610eb657610eb6818486611402565b6001600160a01b03811615610ef457610ed36000856000806112fc565b6001600160a01b038116600090815260036020526040902080546000190190555b6001600160a01b03851615610f23576001600160a01b0385166000908152600360205260409020805460010190555b60008481526002602052604080822080546001600160a01b0319166001600160a01b0389811691821790925591518793918516917fddf252ad1be2c89b69c2b068fc378daa952ba7f163c4a11628f55a4df523b3ef91a4949350505050565b6006546001600160a01b031633146108c35760405163118cdaa760e01b81523360048201526024016105f0565b600680546001600160a01b038381166001600160a01b0319831681179093556040519116919082907f8be0079c531659141344cd1fd0a4f28419497f9722a3daafe3b4186f6b6457e090600090a35050565b60008261100e8584611466565b14949350505050565b600854600090600160801b900460ff16611032836064611c1d565b610cc69190611c34565b6001600160a01b03821661106657604051633250574960e11b8152600060048201526024016105f0565b600061107483836000610e89565b90506001600160a01b03811615610675576040516339e3563760e11b8152600060048201526024016105f0565b6001600160a01b0382166110d357604051630b61174360e31b81526001600160a01b03831660048201526024016105f0565b6001600160a01b03838116600081815260056020908152604080832094871680845294825291829020805460ff191686151590811790915591519182527f17307eab39ab6107e8899845ad3d59bd9653f200f220920489ca2b5937696c31910160405180910390a3505050565b6001600160a01b0383163b1561065457604051630a85bd0160e11b81526001600160a01b0384169063150b7a0290611182903390889087908790600401611c56565b6020604051808303816000875af19250505080156111bd575060408051601f3d908101601f191682019092526111ba91810190611c93565b60015b611226573d8080156111eb576040519150601f19603f3d011682016040523d82523d6000602084013e6111f0565b606091505b50805160000361121e57604051633250574960e11b81526001600160a01b03851660048201526024016105f0565b805181602001fd5b6001600160e01b03198116630a85bd0160e11b1461126257604051633250574960e11b81526001600160a01b03851660048201526024016105f0565b5050505050565b60606000611276836114a9565b600101905060008167ffffffffffffffff8111156112965761129661186e565b6040519080825280601f01601f1916602001820160405280156112c0576020820181803683370190505b5090508181016020015b600019016f181899199a1a9b1b9c1cb0b131b232b360811b600a86061a8153600a85049450846112ca57509392505050565b808061131057506001600160a01b03821615155b156113d257600061132084610e43565b90506001600160a01b0383161580159061134c5750826001600160a01b0316816001600160a01b031614155b801561135f575061135d8184610dd7565b155b156113885760405163a9fbf51f60e01b81526001600160a01b03841660048201526024016105f0565b81156113d05783856001600160a01b0316826001600160a01b03167f8c5be1e5ebec7d5bd14f71427d1e84f3dd0314c0f7b2291e5b200ac8c7c3b92560405160405180910390a45b505b5050600090815260046020526040902080546001600160a01b0319166001600160a01b0392909216919091179055565b61140d838383611581565b610675576001600160a01b03831661143b57604051637e27328960e01b8152600481018290526024016105f0565b60405163177e802f60e01b81526001600160a01b0383166004820152602481018290526044016105f0565b600081815b84518110156114a1576114978286838151811061148a5761148a6119f0565b60200260200101516115e7565b915060010161146b565b509392505050565b60008072184f03e93ff9f4daa797ed6e38ed64bf6a1f0160401b83106114e85772184f03e93ff9f4daa797ed6e38ed64bf6a1f0160401b830492506040015b6d04ee2d6d415b85acef81000000008310611514576d04ee2d6d415b85acef8100000000830492506020015b662386f26fc10000831061153257662386f26fc10000830492506010015b6305f5e100831061154a576305f5e100830492506008015b612710831061155e57612710830492506004015b60648310611570576064830492506002015b600a83106104a65760010192915050565b60006001600160a01b038316158015906115df5750826001600160a01b0316846001600160a01b031614806115bb57506115bb8484610dd7565b806115df57506000828152600460205260409020546001600160a01b038481169116145b949350505050565b6000818310611603576000828152602084905260409020610cc6565b6000838152602083905260409020610cc6565b6001600160e01b031981168114610e4057600080fd5b60006020828403121561163e57600080fd5b8135610cc681611616565b60005b8381101561166457818101518382015260200161164c565b50506000910152565b60008151808452611685816020860160208601611649565b601f01601f19169290920160200192915050565b602081526000610cc6602083018461166d565b6000602082840312156116be57600080fd5b5035919050565b80356001600160a01b03811681146116dc57600080fd5b919050565b600080604083850312156116f457600080fd5b6116fd836116c5565b946020939093013593505050565b60008060006060848603121561172057600080fd5b611729846116c5565b9250611737602085016116c5565b9150604084013590509250925092565b60006020828403121561175957600080fd5b610cc6826116c5565b600060a0828403121561177457600080fd5b50919050565b60008083601f84011261178c57600080fd5b50813567ffffffffffffffff8111156117a457600080fd5b6020830191508360208260051b85010111156117bf57600080fd5b9250929050565b600080600080604085870312156117dc57600080fd5b843567ffffffffffffffff808211156117f457600080fd5b6118008883890161177a565b9096509450602087013591508082111561181957600080fd5b506118268782880161177a565b95989497509550505050565b6000806040838503121561184557600080fd5b61184e836116c5565b91506020830135801515811461186357600080fd5b809150509250929050565b634e487b7160e01b600052604160045260246000fd5b6000806000806080858703121561189a57600080fd5b6118a3856116c5565b93506118b1602086016116c5565b925060408501359150606085013567ffffffffffffffff808211156118d557600080fd5b818701915087601f8301126118e957600080fd5b8135818111156118fb576118fb61186e565b604051601f8201601f19908116603f011681019083821181831017156119235761192361186e565b816040528281528a602084870101111561193c57600080fd5b82602086016020830137600060208483010152809550505050505092959194509250565b6000806040838503121561197357600080fd5b61197c836116c5565b915061198a602084016116c5565b90509250929050565b600181811c908216806119a757607f821691505b60208210810361177457634e487b7160e01b600052602260045260246000fd5b634e487b7160e01b600052601160045260246000fd5b818103818111156104a6576104a66119c7565b634e487b7160e01b600052603260045260246000fd5b64ffffffffff818116838216019080821115611a2457611a246119c7565b5092915050565b64ffffffffff81168114610e4057600080fd5b60ff81168114610e4057600080fd5b600081356104a681611a3e565b8135611a6581611a2b565b64ffffffffff8116905081548164ffffffffff1982161783556020840135611a8c81611a2b565b69ffffffffff00000000008160281b169050808369ffffffffffffffffffff198416171784556040850135611ac081611a2b565b6effffffffffffffffffffffffffffff199290921690921782811760509290921b64ffffffffff60501b16918217845591606085013591611b0083611a3e565b60ff60781b1993909316179190911760789190911b60ff60781b16178155610572611b2d60808401611a4d565b82805460ff60801b191660809290921b60ff60801b16919091179055565b60a081018235611b5a81611a2b565b64ffffffffff9081168352602084013590611b7482611a2b565b9081166020840152604084013590611b8b82611a2b565b1660408301526060830135611b9f81611a3e565b60ff1660608301526080830135611bb581611a3e565b60ff811660808401525092915050565b60006001600160fb1b03831115611bdb57600080fd5b8260051b80858437919091019392505050565b60008351611c00818460208801611649565b835190830190611c14818360208801611649565b01949350505050565b80820281158282048414176104a6576104a66119c7565b600082611c5157634e487b7160e01b600052601260045260246000fd5b500490565b6001600160a01b0385811682528416602082015260408101839052608060608201819052600090611c899083018461166d565b9695505050505050565b600060208284031215611ca557600080fd5b8151610cc68161161656fea264697066735822122034969c7c21a6909c4985dc2851a76a401d33d6bc8bfa42e8ea844dc3f1b835c664736f6c63430008190033","linkReferences":{}},"methodIdentifiers":{"answersRoot()":"3618039c","approve(address,uint256)":"095ea7b3","balanceOf(address)":"70a08231","getApproved(uint256)":"081812fc","getLatestQuizAttempt(address)":"e27322dd","getQuizAttemptCount(address)":"e6644a72","isApprovedForAll(address,address)":"e985e9c5","name()":"06fdde03","owner()":"8da5cb5b","ownerOf(uint256)":"6352211e","quizAttempts(address,uint256)":"0e9c85bb","quizConfig()":"bab8aef4","renounceOwnership()":"715018a6","safeTransferFrom(address,address,uint256)":"42842e0e","safeTransferFrom(address,address,uint256,bytes)":"b88d4fde","setApprovalForAll(address,bool)":"a22cb465","startQuiz()":"4c3415e6","submitQuiz(bytes32[],bytes32[])":"8962b95a","supportsInterface(bytes4)":"01ffc9a7","symbol()":"95d89b41","tokenURI(uint256)":"c87b56dd","transferFrom(address,address,uint256)":"23b872dd","transferOwnership(address)":"f2fde38b","updateAnswersRoot(bytes32)":"abf43fdf","updateQuizConfig((uint40,uint40,uint40,uint8,uint8))":"786481da"},"id":39}