{
  "_format": "hh-sol-artifact-1",
  "contractName": "NFTAuction",
  "sourceName": "contracts/NFTAuction.sol",
  "abi": [
    {
      "inputs": [
        {
          "internalType": "contract VintageCarNFT",
          "name": "_nftContract",
          "type": "address"
        }
      ],
      "stateMutability": "nonpayable",
      "type": "constructor"
    },
    {
      "inputs": [],
      "name": "AuctionEnded",
      "type": "error"
    },
    {
      "inputs": [],
      "name": "AuctionNotActive",
      "type": "error"
    },
    {
      "inputs": [],
      "name": "AuctionStillOngoing",
      "type": "error"
    },
    {
      "inputs": [
        {
          "internalType": "uint256",
          "name": "currentBid",
          "type": "uint256"
        },
        {
          "internalType": "uint256",
          "name": "sentBid",
          "type": "uint256"
        }
      ],
      "name": "BidTooLow",
      "type": "error"
    },
    {
      "inputs": [],
      "name": "BidsExist",
      "type": "error"
    },
    {
      "inputs": [],
      "name": "InvalidStartPrice",
      "type": "error"
    },
    {
      "inputs": [],
      "name": "NotApprovedForTransfer",
      "type": "error"
    },
    {
      "inputs": [
        {
          "internalType": "address",
          "name": "sender",
          "type": "address"
        }
      ],
      "name": "NotOwner",
      "type": "error"
    },
    {
      "inputs": [
        {
          "internalType": "address",
          "name": "sender",
          "type": "address"
        }
      ],
      "name": "NotSeller",
      "type": "error"
    },
    {
      "inputs": [],
      "name": "ReentrancyGuardReentrantCall",
      "type": "error"
    },
    {
      "inputs": [],
      "name": "TransferFailed",
      "type": "error"
    },
    {
      "anonymous": false,
      "inputs": [
        {
          "indexed": true,
          "internalType": "uint256",
          "name": "nftId",
          "type": "uint256"
        }
      ],
      "name": "AuctionCancelled",
      "type": "event"
    },
    {
      "anonymous": false,
      "inputs": [
        {
          "indexed": true,
          "internalType": "uint256",
          "name": "nftId",
          "type": "uint256"
        },
        {
          "indexed": true,
          "internalType": "address",
          "name": "seller",
          "type": "address"
        },
        {
          "indexed": false,
          "internalType": "uint256",
          "name": "startingPrice",
          "type": "uint256"
        },
        {
          "indexed": false,
          "internalType": "uint256",
          "name": "buyoutPrice",
          "type": "uint256"
        },
        {
          "indexed": false,
          "internalType": "uint256",
          "name": "auctionEndTime",
          "type": "uint256"
        }
      ],
      "name": "AuctionCreated",
      "type": "event"
    },
    {
      "anonymous": false,
      "inputs": [
        {
          "indexed": true,
          "internalType": "uint256",
          "name": "nftId",
          "type": "uint256"
        },
        {
          "indexed": true,
          "internalType": "address",
          "name": "winner",
          "type": "address"
        },
        {
          "indexed": false,
          "internalType": "uint256",
          "name": "amount",
          "type": "uint256"
        }
      ],
      "name": "AuctionEnded",
      "type": "event"
    },
    {
      "anonymous": false,
      "inputs": [
        {
          "indexed": true,
          "internalType": "uint256",
          "name": "nftId",
          "type": "uint256"
        },
        {
          "indexed": true,
          "internalType": "address",
          "name": "bidder",
          "type": "address"
        },
        {
          "indexed": false,
          "internalType": "uint256",
          "name": "amount",
          "type": "uint256"
        }
      ],
      "name": "BidPlaced",
      "type": "event"
    },
    {
      "inputs": [
        {
          "internalType": "uint256",
          "name": "",
          "type": "uint256"
        }
      ],
      "name": "auctions",
      "outputs": [
        {
          "internalType": "address payable",
          "name": "seller",
          "type": "address"
        },
        {
          "internalType": "uint256",
          "name": "nftId",
          "type": "uint256"
        },
        {
          "internalType": "uint256",
          "name": "startingPrice",
          "type": "uint256"
        },
        {
          "internalType": "uint256",
          "name": "highestBid",
          "type": "uint256"
        },
        {
          "internalType": "address payable",
          "name": "highestBidder",
          "type": "address"
        },
        {
          "internalType": "uint256",
          "name": "auctionEndTime",
          "type": "uint256"
        },
        {
          "internalType": "uint256",
          "name": "buyoutPrice",
          "type": "uint256"
        },
        {
          "internalType": "bool",
          "name": "active",
          "type": "bool"
        }
      ],
      "stateMutability": "view",
      "type": "function"
    },
    {
      "inputs": [
        {
          "internalType": "uint256",
          "name": "_nftId",
          "type": "uint256"
        },
        {
          "internalType": "address",
          "name": "_nftOwner",
          "type": "address"
        }
      ],
      "name": "cancelAuction",
      "outputs": [],
      "stateMutability": "nonpayable",
      "type": "function"
    },
    {
      "inputs": [
        {
          "internalType": "uint256",
          "name": "_nftId",
          "type": "uint256"
        },
        {
          "internalType": "uint256",
          "name": "_startingPrice",
          "type": "uint256"
        },
        {
          "internalType": "uint256",
          "name": "_buyoutPrice",
          "type": "uint256"
        },
        {
          "internalType": "uint256",
          "name": "_duration",
          "type": "uint256"
        },
        {
          "internalType": "address",
          "name": "_nftOwner",
          "type": "address"
        }
      ],
      "name": "createAuction",
      "outputs": [],
      "stateMutability": "nonpayable",
      "type": "function"
    },
    {
      "inputs": [
        {
          "internalType": "uint256",
          "name": "_nftId",
          "type": "uint256"
        }
      ],
      "name": "endAuction",
      "outputs": [],
      "stateMutability": "nonpayable",
      "type": "function"
    },
    {
      "inputs": [],
      "name": "nftContract",
      "outputs": [
        {
          "internalType": "contract VintageCarNFT",
          "name": "",
          "type": "address"
        }
      ],
      "stateMutability": "view",
      "type": "function"
    },
    {
      "inputs": [
        {
          "internalType": "uint256",
          "name": "_nftId",
          "type": "uint256"
        }
      ],
      "name": "placeBid",
      "outputs": [],
      "stateMutability": "payable",
      "type": "function"
    },
    {
      "stateMutability": "payable",
      "type": "receive"
    }
  ],
  "bytecode": "0x608060405234801561001057600080fd5b5060405161166e38038061166e833981810160405281019061003291906100f6565b600160008190555080600160006101000a81548173ffffffffffffffffffffffffffffffffffffffff021916908373ffffffffffffffffffffffffffffffffffffffff16021790555050610123565b600080fd5b600073ffffffffffffffffffffffffffffffffffffffff82169050919050565b60006100b182610086565b9050919050565b60006100c3826100a6565b9050919050565b6100d3816100b8565b81146100de57600080fd5b50565b6000815190506100f0816100ca565b92915050565b60006020828403121561010c5761010b610081565b5b600061011a848285016100e1565b91505092915050565b61153c806101326000396000f3fe6080604052600436106100595760003560e01c806327ebe40a146100655780634e8eaa131461008e578063571a26a0146100b75780639979ef45146100fb578063b9a2de3a14610117578063d56d229d1461014057610060565b3661006057005b600080fd5b34801561007157600080fd5b5061008c600480360381019061008791906110bc565b61016b565b005b34801561009a57600080fd5b506100b560048036038101906100b09190611137565b610530565b005b3480156100c357600080fd5b506100de60048036038101906100d99190611177565b610672565b6040516100f29897969594939291906111ef565b60405180910390f35b61011560048036038101906101109190611177565b610707565b005b34801561012357600080fd5b5061013e60048036038101906101399190611177565b61085b565b005b34801561014c57600080fd5b506101556108b6565b60405161016291906112cc565b60405180910390f35b6101736108dc565b610218600160009054906101000a900473ffffffffffffffffffffffffffffffffffffffff1673ffffffffffffffffffffffffffffffffffffffff16636352211e876040518263ffffffff1660e01b81526004016101d191906112e7565b602060405180830381865afa1580156101ee573d6000803e3d6000fd5b505050506040513d601f19601f820116820180604052508101906102129190611317565b82610922565b61022184610996565b6102c6600160009054906101000a900473ffffffffffffffffffffffffffffffffffffffff1673ffffffffffffffffffffffffffffffffffffffff1663081812fc876040518263ffffffff1660e01b815260040161027f91906112e7565b602060405180830381865afa15801561029c573d6000803e3d6000fd5b505050506040513d601f19601f820116820180604052508101906102c09190611317565b306109d3565b600160009054906101000a900473ffffffffffffffffffffffffffffffffffffffff1673ffffffffffffffffffffffffffffffffffffffff166342842e0e8230886040518463ffffffff1660e01b815260040161032593929190611353565b600060405180830381600087803b15801561033f57600080fd5b505af1158015610353573d6000803e3d6000fd5b505050506040518061010001604052808273ffffffffffffffffffffffffffffffffffffffff16815260200186815260200185815260200160008152602001600073ffffffffffffffffffffffffffffffffffffffff16815260200183426103bb91906113b9565b8152602001848152602001600115158152506002600087815260200190815260200160002060008201518160000160006101000a81548173ffffffffffffffffffffffffffffffffffffffff021916908373ffffffffffffffffffffffffffffffffffffffff16021790555060208201518160010155604082015181600201556060820151816003015560808201518160040160006101000a81548173ffffffffffffffffffffffffffffffffffffffff021916908373ffffffffffffffffffffffffffffffffffffffff16021790555060a0820151816005015560c0820151816006015560e08201518160070160006101000a81548160ff0219169083151502179055509050508073ffffffffffffffffffffffffffffffffffffffff16857f05f9bf100dd0ca9f37f08e0526690286d357ed7d6c5a4ac29730440b6e2dfd628686864261050a91906113b9565b604051610519939291906113ed565b60405180910390a3610529610a3c565b5050505050565b6105386108dc565b600060026000848152602001908152602001600020905061057d8160000160009054906101000a900473ffffffffffffffffffffffffffffffffffffffff1683610a46565b61058a8160030154610aba565b60008160070160006101000a81548160ff021916908315150217905550600160009054906101000a900473ffffffffffffffffffffffffffffffffffffffff1673ffffffffffffffffffffffffffffffffffffffff166342842e0e3084866040518463ffffffff1660e01b815260040161060693929190611353565b600060405180830381600087803b15801561062057600080fd5b505af1158015610634573d6000803e3d6000fd5b50505050827f2809c7e17bf978fbc7194c0a694b638c4215e9140cacc6c38ca36010b45697df60405160405180910390a25061066e610a3c565b5050565b60026020528060005260406000206000915090508060000160009054906101000a900473ffffffffffffffffffffffffffffffffffffffff16908060010154908060020154908060030154908060040160009054906101000a900473ffffffffffffffffffffffffffffffffffffffff16908060050154908060060154908060070160009054906101000a900460ff16905088565b61070f6108dc565b60006002600083815260200190815260200160002090506107408160070160009054906101000a900460ff16610af8565b61074d8160050154610b32565b61075b816003015434610b6e565b61078d8160040160009054906101000a900473ffffffffffffffffffffffffffffffffffffffff168260030154610bb8565b348160030181905550338160040160006101000a81548173ffffffffffffffffffffffffffffffffffffffff021916908373ffffffffffffffffffffffffffffffffffffffff1602179055503373ffffffffffffffffffffffffffffffffffffffff16827f0e54eff26401bf69b81b26f60bd85ef47f5d85275c1d268d84f68d6897431c473460405161082091906112e7565b60405180910390a380600601543410158015610840575060008160060154115b1561084f5761084e82610c95565b5b50610858610a3c565b50565b6108636108dc565b60006002600083815260200190815260200160002090506108878160050154610f3e565b6108a18160070160009054906101000a900460ff16610af8565b6108aa82610c95565b506108b3610a3c565b50565b600160009054906101000a900473ffffffffffffffffffffffffffffffffffffffff1681565b600260005403610918576040517f3ee5aeb500000000000000000000000000000000000000000000000000000000815260040160405180910390fd5b6002600081905550565b8073ffffffffffffffffffffffffffffffffffffffff168273ffffffffffffffffffffffffffffffffffffffff161461099257806040517f245aecd30000000000000000000000000000000000000000000000000000000081526004016109899190611424565b60405180910390fd5b5050565b600081116109d0576040517f7de4b0c800000000000000000000000000000000000000000000000000000000815260040160405180910390fd5b50565b8073ffffffffffffffffffffffffffffffffffffffff168273ffffffffffffffffffffffffffffffffffffffff1614610a38576040517fc991816400000000000000000000000000000000000000000000000000000000815260040160405180910390fd5b5050565b6001600081905550565b8173ffffffffffffffffffffffffffffffffffffffff168173ffffffffffffffffffffffffffffffffffffffff1614610ab657806040517fe38d022a000000000000000000000000000000000000000000000000000000008152600401610aad9190611424565b60405180910390fd5b5050565b6000811115610af5576040517f504e2b3700000000000000000000000000000000000000000000000000000000815260040160405180910390fd5b50565b80610b2f576040517f69b8d0fe00000000000000000000000000000000000000000000000000000000815260040160405180910390fd5b50565b804210610b6b576040517fa0e9298400000000000000000000000000000000000000000000000000000000815260040160405180910390fd5b50565b818111610bb45781816040517ff0defc61000000000000000000000000000000000000000000000000000000008152600401610bab92919061143f565b60405180910390fd5b5050565b600073ffffffffffffffffffffffffffffffffffffffff168273ffffffffffffffffffffffffffffffffffffffff1614610c915760008273ffffffffffffffffffffffffffffffffffffffff1682604051610c1290611499565b60006040518083038185875af1925050503d8060008114610c4f576040519150601f19603f3d011682016040523d82523d6000602084013e610c54565b606091505b5050905080610c8f576040517f90b8ec1800000000000000000000000000000000000000000000000000000000815260040160405180910390fd5b505b5050565b600060026000838152602001908152602001600020905060008160070160006101000a81548160ff021916908315150217905550600073ffffffffffffffffffffffffffffffffffffffff168160040160009054906101000a900473ffffffffffffffffffffffffffffffffffffffff1673ffffffffffffffffffffffffffffffffffffffff1614610e8457600160009054906101000a900473ffffffffffffffffffffffffffffffffffffffff1673ffffffffffffffffffffffffffffffffffffffff166342842e0e308360040160009054906101000a900473ffffffffffffffffffffffffffffffffffffffff16856040518463ffffffff1660e01b8152600401610da4939291906114cf565b600060405180830381600087803b158015610dbe57600080fd5b505af1158015610dd2573d6000803e3d6000fd5b50505050610e088160000160009054906101000a900473ffffffffffffffffffffffffffffffffffffffff168260030154610f7b565b8060040160009054906101000a900473ffffffffffffffffffffffffffffffffffffffff1673ffffffffffffffffffffffffffffffffffffffff16827fd2aa34a4fdbbc6dff6a3e56f46e0f3ae2a31d7785ff3487aa5c95c642acea5018360030154604051610e7791906112e7565b60405180910390a3610f3a565b600160009054906101000a900473ffffffffffffffffffffffffffffffffffffffff1673ffffffffffffffffffffffffffffffffffffffff166342842e0e308360000160009054906101000a900473ffffffffffffffffffffffffffffffffffffffff16856040518463ffffffff1660e01b8152600401610f07939291906114cf565b600060405180830381600087803b158015610f2157600080fd5b505af1158015610f35573d6000803e3d6000fd5b505050505b5050565b80421015610f78576040517f4880659900000000000000000000000000000000000000000000000000000000815260040160405180910390fd5b50565b60008273ffffffffffffffffffffffffffffffffffffffff1682604051610fa190611499565b60006040518083038185875af1925050503d8060008114610fde576040519150601f19603f3d011682016040523d82523d6000602084013e610fe3565b606091505b505090508061101e576040517f90b8ec1800000000000000000000000000000000000000000000000000000000815260040160405180910390fd5b505050565b600080fd5b6000819050919050565b61103b81611028565b811461104657600080fd5b50565b60008135905061105881611032565b92915050565b600073ffffffffffffffffffffffffffffffffffffffff82169050919050565b60006110898261105e565b9050919050565b6110998161107e565b81146110a457600080fd5b50565b6000813590506110b681611090565b92915050565b600080600080600060a086880312156110d8576110d7611023565b5b60006110e688828901611049565b95505060206110f788828901611049565b945050604061110888828901611049565b935050606061111988828901611049565b925050608061112a888289016110a7565b9150509295509295909350565b6000806040838503121561114e5761114d611023565b5b600061115c85828601611049565b925050602061116d858286016110a7565b9150509250929050565b60006020828403121561118d5761118c611023565b5b600061119b84828501611049565b91505092915050565b60006111af8261105e565b9050919050565b6111bf816111a4565b82525050565b6111ce81611028565b82525050565b60008115159050919050565b6111e9816111d4565b82525050565b600061010082019050611205600083018b6111b6565b611212602083018a6111c5565b61121f60408301896111c5565b61122c60608301886111c5565b61123960808301876111b6565b61124660a08301866111c5565b61125360c08301856111c5565b61126060e08301846111e0565b9998505050505050505050565b6000819050919050565b600061129261128d6112888461105e565b61126d565b61105e565b9050919050565b60006112a482611277565b9050919050565b60006112b682611299565b9050919050565b6112c6816112ab565b82525050565b60006020820190506112e160008301846112bd565b92915050565b60006020820190506112fc60008301846111c5565b92915050565b60008151905061131181611090565b92915050565b60006020828403121561132d5761132c611023565b5b600061133b84828501611302565b91505092915050565b61134d8161107e565b82525050565b60006060820190506113686000830186611344565b6113756020830185611344565b61138260408301846111c5565b949350505050565b7f4e487b7100000000000000000000000000000000000000000000000000000000600052601160045260246000fd5b60006113c482611028565b91506113cf83611028565b92508282019050808211156113e7576113e661138a565b5b92915050565b600060608201905061140260008301866111c5565b61140f60208301856111c5565b61141c60408301846111c5565b949350505050565b60006020820190506114396000830184611344565b92915050565b600060408201905061145460008301856111c5565b61146160208301846111c5565b9392505050565b600081905092915050565b50565b6000611483600083611468565b915061148e82611473565b600082019050919050565b60006114a482611476565b9150819050919050565b60006114b982611299565b9050919050565b6114c9816114ae565b82525050565b60006060820190506114e46000830186611344565b6114f160208301856114c0565b6114fe60408301846111c5565b94935050505056fea2646970667358221220322e7b93141efb785af58df634d6f1fde69a1803965fb74100882018b4c54a3f64736f6c634300081b0033",
  "linkReferences": {},
  "deployedLinkReferences": {}
}