{
  "_format": "hh-sol-artifact-1",
  "contractName": "NFTAuction",
  "sourceName": "contracts/NFTAuction.sol",
  "abi": [
    {
      "inputs": [
        {
          "internalType": "contract VintageCarNFT",
          "name": "_nftContract",
          "type": "address"
        }
      ],
      "stateMutability": "nonpayable",
      "type": "constructor"
    },
    {
      "inputs": [],
      "name": "AuctionEnded",
      "type": "error"
    },
    {
      "inputs": [],
      "name": "AuctionNotActive",
      "type": "error"
    },
    {
      "inputs": [],
      "name": "AuctionStillOngoing",
      "type": "error"
    },
    {
      "inputs": [
        {
          "internalType": "uint256",
          "name": "currentBid",
          "type": "uint256"
        },
        {
          "internalType": "uint256",
          "name": "sentBid",
          "type": "uint256"
        }
      ],
      "name": "BidTooLow",
      "type": "error"
    },
    {
      "inputs": [],
      "name": "BidsExist",
      "type": "error"
    },
    {
      "inputs": [],
      "name": "InvalidStartPrice",
      "type": "error"
    },
    {
      "inputs": [],
      "name": "NotApprovedForTransfer",
      "type": "error"
    },
    {
      "inputs": [
        {
          "internalType": "address",
          "name": "sender",
          "type": "address"
        }
      ],
      "name": "NotOwner",
      "type": "error"
    },
    {
      "inputs": [
        {
          "internalType": "address",
          "name": "sender",
          "type": "address"
        }
      ],
      "name": "NotSeller",
      "type": "error"
    },
    {
      "inputs": [],
      "name": "ReentrancyGuardReentrantCall",
      "type": "error"
    },
    {
      "inputs": [],
      "name": "TransferFailed",
      "type": "error"
    },
    {
      "anonymous": false,
      "inputs": [
        {
          "indexed": true,
          "internalType": "uint256",
          "name": "nftId",
          "type": "uint256"
        }
      ],
      "name": "AuctionCancelled",
      "type": "event"
    },
    {
      "anonymous": false,
      "inputs": [
        {
          "indexed": true,
          "internalType": "uint256",
          "name": "nftId",
          "type": "uint256"
        },
        {
          "indexed": true,
          "internalType": "address",
          "name": "seller",
          "type": "address"
        },
        {
          "indexed": false,
          "internalType": "uint256",
          "name": "startingPrice",
          "type": "uint256"
        },
        {
          "indexed": false,
          "internalType": "uint256",
          "name": "buyoutPrice",
          "type": "uint256"
        },
        {
          "indexed": false,
          "internalType": "uint256",
          "name": "auctionEndTime",
          "type": "uint256"
        }
      ],
      "name": "AuctionCreated",
      "type": "event"
    },
    {
      "anonymous": false,
      "inputs": [
        {
          "indexed": true,
          "internalType": "uint256",
          "name": "nftId",
          "type": "uint256"
        },
        {
          "indexed": true,
          "internalType": "address",
          "name": "winner",
          "type": "address"
        },
        {
          "indexed": false,
          "internalType": "uint256",
          "name": "amount",
          "type": "uint256"
        }
      ],
      "name": "AuctionEnded",
      "type": "event"
    },
    {
      "anonymous": false,
      "inputs": [
        {
          "indexed": true,
          "internalType": "uint256",
          "name": "nftId",
          "type": "uint256"
        },
        {
          "indexed": true,
          "internalType": "address",
          "name": "bidder",
          "type": "address"
        },
        {
          "indexed": false,
          "internalType": "uint256",
          "name": "amount",
          "type": "uint256"
        }
      ],
      "name": "BidPlaced",
      "type": "event"
    },
    {
      "inputs": [
        {
          "internalType": "uint256",
          "name": "",
          "type": "uint256"
        }
      ],
      "name": "auctions",
      "outputs": [
        {
          "internalType": "address payable",
          "name": "seller",
          "type": "address"
        },
        {
          "internalType": "uint256",
          "name": "nftId",
          "type": "uint256"
        },
        {
          "internalType": "uint256",
          "name": "startingPrice",
          "type": "uint256"
        },
        {
          "internalType": "uint256",
          "name": "highestBid",
          "type": "uint256"
        },
        {
          "internalType": "address payable",
          "name": "highestBidder",
          "type": "address"
        },
        {
          "internalType": "uint256",
          "name": "auctionEndTime",
          "type": "uint256"
        },
        {
          "internalType": "uint256",
          "name": "buyoutPrice",
          "type": "uint256"
        },
        {
          "internalType": "bool",
          "name": "active",
          "type": "bool"
        }
      ],
      "stateMutability": "view",
      "type": "function"
    },
    {
      "inputs": [
        {
          "internalType": "uint256",
          "name": "_nftId",
          "type": "uint256"
        },
        {
          "internalType": "address",
          "name": "_nftOwner",
          "type": "address"
        }
      ],
      "name": "cancelAuction",
      "outputs": [],
      "stateMutability": "nonpayable",
      "type": "function"
    },
    {
      "inputs": [
        {
          "internalType": "uint256",
          "name": "_nftId",
          "type": "uint256"
        },
        {
          "internalType": "uint256",
          "name": "_startingPrice",
          "type": "uint256"
        },
        {
          "internalType": "uint256",
          "name": "_buyoutPrice",
          "type": "uint256"
        },
        {
          "internalType": "uint256",
          "name": "_duration",
          "type": "uint256"
        },
        {
          "internalType": "address",
          "name": "_nftOwner",
          "type": "address"
        }
      ],
      "name": "createAuction",
      "outputs": [],
      "stateMutability": "nonpayable",
      "type": "function"
    },
    {
      "inputs": [
        {
          "internalType": "uint256",
          "name": "_nftId",
          "type": "uint256"
        }
      ],
      "name": "endAuction",
      "outputs": [],
      "stateMutability": "nonpayable",
      "type": "function"
    },
    {
      "inputs": [],
      "name": "nftContract",
      "outputs": [
        {
          "internalType": "contract VintageCarNFT",
          "name": "",
          "type": "address"
        }
      ],
      "stateMutability": "view",
      "type": "function"
    },
    {
      "inputs": [
        {
          "internalType": "address",
          "name": "operator",
          "type": "address"
        },
        {
          "internalType": "address",
          "name": "from",
          "type": "address"
        },
        {
          "internalType": "uint256",
          "name": "tokenId",
          "type": "uint256"
        },
        {
          "internalType": "bytes",
          "name": "data",
          "type": "bytes"
        }
      ],
      "name": "onERC721Received",
      "outputs": [
        {
          "internalType": "bytes4",
          "name": "",
          "type": "bytes4"
        }
      ],
      "stateMutability": "pure",
      "type": "function"
    },
    {
      "inputs": [
        {
          "internalType": "uint256",
          "name": "_nftId",
          "type": "uint256"
        }
      ],
      "name": "placeBid",
      "outputs": [],
      "stateMutability": "payable",
      "type": "function"
    },
    {
      "stateMutability": "payable",
      "type": "receive"
    }
  ],
  "bytecode": "0x608060405234801561001057600080fd5b50604051611823380380611823833981810160405281019061003291906100f6565b600160008190555080600160006101000a81548173ffffffffffffffffffffffffffffffffffffffff021916908373ffffffffffffffffffffffffffffffffffffffff16021790555050610123565b600080fd5b600073ffffffffffffffffffffffffffffffffffffffff82169050919050565b60006100b182610086565b9050919050565b60006100c3826100a6565b9050919050565b6100d3816100b8565b81146100de57600080fd5b50565b6000815190506100f0816100ca565b92915050565b60006020828403121561010c5761010b610081565b5b600061011a848285016100e1565b91505092915050565b6116f1806101326000396000f3fe6080604052600436106100745760003560e01c8063571a26a01161004e578063571a26a01461010f5780639979ef4514610153578063b9a2de3a1461016f578063d56d229d146101985761007b565b8063150b7a021461008057806327ebe40a146100bd5780634e8eaa13146100e65761007b565b3661007b57005b600080fd5b34801561008c57600080fd5b506100a760048036038101906100a29190611193565b6101c3565b6040516100b49190611256565b60405180910390f35b3480156100c957600080fd5b506100e460048036038101906100df9190611271565b6101d8565b005b3480156100f257600080fd5b5061010d600480360381019061010891906112ec565b61059d565b005b34801561011b57600080fd5b506101366004803603810190610131919061132c565b6106df565b60405161014a9897969594939291906113a4565b60405180910390f35b61016d6004803603810190610168919061132c565b610774565b005b34801561017b57600080fd5b506101966004803603810190610191919061132c565b6108c8565b005b3480156101a457600080fd5b506101ad610923565b6040516101ba9190611481565b60405180910390f35b600063150b7a0260e01b905095945050505050565b6101e0610949565b610285600160009054906101000a900473ffffffffffffffffffffffffffffffffffffffff1673ffffffffffffffffffffffffffffffffffffffff16636352211e876040518263ffffffff1660e01b815260040161023e919061149c565b602060405180830381865afa15801561025b573d6000803e3d6000fd5b505050506040513d601f19601f8201168201806040525081019061027f91906114cc565b8261098f565b61028e84610a03565b610333600160009054906101000a900473ffffffffffffffffffffffffffffffffffffffff1673ffffffffffffffffffffffffffffffffffffffff1663081812fc876040518263ffffffff1660e01b81526004016102ec919061149c565b602060405180830381865afa158015610309573d6000803e3d6000fd5b505050506040513d601f19601f8201168201806040525081019061032d91906114cc565b30610a40565b600160009054906101000a900473ffffffffffffffffffffffffffffffffffffffff1673ffffffffffffffffffffffffffffffffffffffff166342842e0e8230886040518463ffffffff1660e01b815260040161039293929190611508565b600060405180830381600087803b1580156103ac57600080fd5b505af11580156103c0573d6000803e3d6000fd5b505050506040518061010001604052808273ffffffffffffffffffffffffffffffffffffffff16815260200186815260200185815260200160008152602001600073ffffffffffffffffffffffffffffffffffffffff1681526020018342610428919061156e565b8152602001848152602001600115158152506002600087815260200190815260200160002060008201518160000160006101000a81548173ffffffffffffffffffffffffffffffffffffffff021916908373ffffffffffffffffffffffffffffffffffffffff16021790555060208201518160010155604082015181600201556060820151816003015560808201518160040160006101000a81548173ffffffffffffffffffffffffffffffffffffffff021916908373ffffffffffffffffffffffffffffffffffffffff16021790555060a0820151816005015560c0820151816006015560e08201518160070160006101000a81548160ff0219169083151502179055509050508073ffffffffffffffffffffffffffffffffffffffff16857f05f9bf100dd0ca9f37f08e0526690286d357ed7d6c5a4ac29730440b6e2dfd6286868642610577919061156e565b604051610586939291906115a2565b60405180910390a3610596610aa9565b5050505050565b6105a5610949565b60006002600084815260200190815260200160002090506105ea8160000160009054906101000a900473ffffffffffffffffffffffffffffffffffffffff1683610ab3565b6105f78160030154610b27565b60008160070160006101000a81548160ff021916908315150217905550600160009054906101000a900473ffffffffffffffffffffffffffffffffffffffff1673ffffffffffffffffffffffffffffffffffffffff166342842e0e3084866040518463ffffffff1660e01b815260040161067393929190611508565b600060405180830381600087803b15801561068d57600080fd5b505af11580156106a1573d6000803e3d6000fd5b50505050827f2809c7e17bf978fbc7194c0a694b638c4215e9140cacc6c38ca36010b45697df60405160405180910390a2506106db610aa9565b5050565b60026020528060005260406000206000915090508060000160009054906101000a900473ffffffffffffffffffffffffffffffffffffffff16908060010154908060020154908060030154908060040160009054906101000a900473ffffffffffffffffffffffffffffffffffffffff16908060050154908060060154908060070160009054906101000a900460ff16905088565b61077c610949565b60006002600083815260200190815260200160002090506107ad8160070160009054906101000a900460ff16610b65565b6107ba8160050154610b9f565b6107c8816003015434610bdb565b6107fa8160040160009054906101000a900473ffffffffffffffffffffffffffffffffffffffff168260030154610c25565b348160030181905550338160040160006101000a81548173ffffffffffffffffffffffffffffffffffffffff021916908373ffffffffffffffffffffffffffffffffffffffff1602179055503373ffffffffffffffffffffffffffffffffffffffff16827f0e54eff26401bf69b81b26f60bd85ef47f5d85275c1d268d84f68d6897431c473460405161088d919061149c565b60405180910390a3806006015434101580156108ad575060008160060154115b156108bc576108bb82610d02565b5b506108c5610aa9565b50565b6108d0610949565b60006002600083815260200190815260200160002090506108f48160050154610fab565b61090e8160070160009054906101000a900460ff16610b65565b61091782610d02565b50610920610aa9565b50565b600160009054906101000a900473ffffffffffffffffffffffffffffffffffffffff1681565b600260005403610985576040517f3ee5aeb500000000000000000000000000000000000000000000000000000000815260040160405180910390fd5b6002600081905550565b8073ffffffffffffffffffffffffffffffffffffffff168273ffffffffffffffffffffffffffffffffffffffff16146109ff57806040517f245aecd30000000000000000000000000000000000000000000000000000000081526004016109f691906115d9565b60405180910390fd5b5050565b60008111610a3d576040517f7de4b0c800000000000000000000000000000000000000000000000000000000815260040160405180910390fd5b50565b8073ffffffffffffffffffffffffffffffffffffffff168273ffffffffffffffffffffffffffffffffffffffff1614610aa5576040517fc991816400000000000000000000000000000000000000000000000000000000815260040160405180910390fd5b5050565b6001600081905550565b8173ffffffffffffffffffffffffffffffffffffffff168173ffffffffffffffffffffffffffffffffffffffff1614610b2357806040517fe38d022a000000000000000000000000000000000000000000000000000000008152600401610b1a91906115d9565b60405180910390fd5b5050565b6000811115610b62576040517f504e2b3700000000000000000000000000000000000000000000000000000000815260040160405180910390fd5b50565b80610b9c576040517f69b8d0fe00000000000000000000000000000000000000000000000000000000815260040160405180910390fd5b50565b804210610bd8576040517fa0e9298400000000000000000000000000000000000000000000000000000000815260040160405180910390fd5b50565b818111610c215781816040517ff0defc61000000000000000000000000000000000000000000000000000000008152600401610c189291906115f4565b60405180910390fd5b5050565b600073ffffffffffffffffffffffffffffffffffffffff168273ffffffffffffffffffffffffffffffffffffffff1614610cfe5760008273ffffffffffffffffffffffffffffffffffffffff1682604051610c7f9061164e565b60006040518083038185875af1925050503d8060008114610cbc576040519150601f19603f3d011682016040523d82523d6000602084013e610cc1565b606091505b5050905080610cfc576040517f90b8ec1800000000000000000000000000000000000000000000000000000000815260040160405180910390fd5b505b5050565b600060026000838152602001908152602001600020905060008160070160006101000a81548160ff021916908315150217905550600073ffffffffffffffffffffffffffffffffffffffff168160040160009054906101000a900473ffffffffffffffffffffffffffffffffffffffff1673ffffffffffffffffffffffffffffffffffffffff1614610ef157600160009054906101000a900473ffffffffffffffffffffffffffffffffffffffff1673ffffffffffffffffffffffffffffffffffffffff166342842e0e308360040160009054906101000a900473ffffffffffffffffffffffffffffffffffffffff16856040518463ffffffff1660e01b8152600401610e1193929190611684565b600060405180830381600087803b158015610e2b57600080fd5b505af1158015610e3f573d6000803e3d6000fd5b50505050610e758160000160009054906101000a900473ffffffffffffffffffffffffffffffffffffffff168260030154610fe8565b8060040160009054906101000a900473ffffffffffffffffffffffffffffffffffffffff1673ffffffffffffffffffffffffffffffffffffffff16827fd2aa34a4fdbbc6dff6a3e56f46e0f3ae2a31d7785ff3487aa5c95c642acea5018360030154604051610ee4919061149c565b60405180910390a3610fa7565b600160009054906101000a900473ffffffffffffffffffffffffffffffffffffffff1673ffffffffffffffffffffffffffffffffffffffff166342842e0e308360000160009054906101000a900473ffffffffffffffffffffffffffffffffffffffff16856040518463ffffffff1660e01b8152600401610f7493929190611684565b600060405180830381600087803b158015610f8e57600080fd5b505af1158015610fa2573d6000803e3d6000fd5b505050505b5050565b80421015610fe5576040517f4880659900000000000000000000000000000000000000000000000000000000815260040160405180910390fd5b50565b60008273ffffffffffffffffffffffffffffffffffffffff168260405161100e9061164e565b60006040518083038185875af1925050503d806000811461104b576040519150601f19603f3d011682016040523d82523d6000602084013e611050565b606091505b505090508061108b576040517f90b8ec1800000000000000000000000000000000000000000000000000000000815260040160405180910390fd5b505050565b600080fd5b600080fd5b600073ffffffffffffffffffffffffffffffffffffffff82169050919050565b60006110c58261109a565b9050919050565b6110d5816110ba565b81146110e057600080fd5b50565b6000813590506110f2816110cc565b92915050565b6000819050919050565b61110b816110f8565b811461111657600080fd5b50565b60008135905061112881611102565b92915050565b600080fd5b600080fd5b600080fd5b60008083601f8401126111535761115261112e565b5b8235905067ffffffffffffffff8111156111705761116f611133565b5b60208301915083600182028301111561118c5761118b611138565b5b9250929050565b6000806000806000608086880312156111af576111ae611090565b5b60006111bd888289016110e3565b95505060206111ce888289016110e3565b94505060406111df88828901611119565b935050606086013567ffffffffffffffff811115611200576111ff611095565b5b61120c8882890161113d565b92509250509295509295909350565b60007fffffffff0000000000000000000000000000000000000000000000000000000082169050919050565b6112508161121b565b82525050565b600060208201905061126b6000830184611247565b92915050565b600080600080600060a0868803121561128d5761128c611090565b5b600061129b88828901611119565b95505060206112ac88828901611119565b94505060406112bd88828901611119565b93505060606112ce88828901611119565b92505060806112df888289016110e3565b9150509295509295909350565b6000806040838503121561130357611302611090565b5b600061131185828601611119565b9250506020611322858286016110e3565b9150509250929050565b60006020828403121561134257611341611090565b5b600061135084828501611119565b91505092915050565b60006113648261109a565b9050919050565b61137481611359565b82525050565b611383816110f8565b82525050565b60008115159050919050565b61139e81611389565b82525050565b6000610100820190506113ba600083018b61136b565b6113c7602083018a61137a565b6113d4604083018961137a565b6113e1606083018861137a565b6113ee608083018761136b565b6113fb60a083018661137a565b61140860c083018561137a565b61141560e0830184611395565b9998505050505050505050565b6000819050919050565b600061144761144261143d8461109a565b611422565b61109a565b9050919050565b60006114598261142c565b9050919050565b600061146b8261144e565b9050919050565b61147b81611460565b82525050565b60006020820190506114966000830184611472565b92915050565b60006020820190506114b1600083018461137a565b92915050565b6000815190506114c6816110cc565b92915050565b6000602082840312156114e2576114e1611090565b5b60006114f0848285016114b7565b91505092915050565b611502816110ba565b82525050565b600060608201905061151d60008301866114f9565b61152a60208301856114f9565b611537604083018461137a565b949350505050565b7f4e487b7100000000000000000000000000000000000000000000000000000000600052601160045260246000fd5b6000611579826110f8565b9150611584836110f8565b925082820190508082111561159c5761159b61153f565b5b92915050565b60006060820190506115b7600083018661137a565b6115c4602083018561137a565b6115d1604083018461137a565b949350505050565b60006020820190506115ee60008301846114f9565b92915050565b6000604082019050611609600083018561137a565b611616602083018461137a565b9392505050565b600081905092915050565b50565b600061163860008361161d565b915061164382611628565b600082019050919050565b60006116598261162b565b9150819050919050565b600061166e8261144e565b9050919050565b61167e81611663565b82525050565b600060608201905061169960008301866114f9565b6116a66020830185611675565b6116b3604083018461137a565b94935050505056fea2646970667358221220bde83582f0bac86cee049d2f1928c8cc9cacd17cc2e5acda00ea2aa8f5c4a9d464736f6c634300081b0033",
  "linkReferences": {},
  "deployedLinkReferences": {}
}